S02B0000544849524450415254595F4C5749505F5241575F42415349435F485454505F4558414D504C455F417A
S214000000C05D0020E9210000E5210000E521000098
S21400001000000000000000000000000000000000DB
S214000020000000000000000000000000E5210000C5
S2140000300000000000000000E5210000E5210000AF
S214000040E5210000E5210000E5210000E521000093
S214000050AD060000E5210000E5210000E5210000D6
S214000060E5210000890B0000990B0000A90B000099
S214000070B90B0000C90B0000D90B0000E5210000F9
S214000080E5210000E5210000351F0000451F0000A7
S214000090551F00000000000000000000E5210000E1
S2140000A0E521000000000000E5210000000000003F
S2140000B00000000010B5064C2378002B07D1054B36
S2140000C0002B02D0044800E000BF0123237010BDBF
S2140000D030020020000000000C640200084B10B53F
S2140000E0002B03D00749084800E000BF0748036814
S2140000F0002B00D110BD064B002BFBD09847F9E72C
S21400010000000000340200200C6402000C640200B0
S2140001100000000070B5094B00209847FA21084CF3
S21400012089000500A047074B074918602800A0472C
S2140001300522064B1860064B1A6070BD711C000045
S214000140B97C00000000002040420F0004000020A0
S21400015010E000E030B580240021074B64021A68E6
S214000160064B013800D230BD002AFAD05A6099609A
S2140001701D682542FCD0F4E70000002010E000E0F7
S214000180094B196800290BD1EFF31080074A0028A5
S21400019005D172B6BFF35F8F054908700121117053
S2140001A01A6801321A6070474C0200205002002084
S2140001B008000020084B1A68013A1A601B68002BDA
S2140001C009D1064B1B78002B05D00122044B1A7070
S2140001D0BFF35F8F62B670474C02002050020020CB
S2140001E008000020F7B50125002701AC084E2100C5
S2140001F013206570A7702570B0478022054B120348
S2140002009A6121001C2027706570B047F7BDC04674
S214000210050800000044004130B585B001AC05007B
S2140002200D4B2000984716230193B0235B036360B1
S214000230012302222372A37221000620074BE272DA
S2140002409847002206212800054B98470021054BB9
S2140002500620984705B030BD8107000095070000CE
S214000260650600008D060000F0B5164C87B00190BC
S2140002700091012214492000144FB847802303AD93
S2140002802B702A00773B2900114E2000B0476B46A2
S21400029001991A880F4EFF232000B047FF2304223F
S2140002A029002000B0470322009B134004D09AB2D6
S2140002B02900FF232000B047002203492000B8474A
S2140002C007B0F0BD5C26002098260020B10E000086
S2140002D0B90F0000210E000037B50E4D04000122B4
S2140002E028000D490D4B98476A46C02313700C4AE8
S2140002F028001378591C11703F2213406A46537029
S2140003000023D470240A9370147169460522054BA5
S214000310984737BD5C26002098260020B10E0000C6
S214000320510200202D0F000010B58AB2024B0100CA
S2140003300248984710BDC0462D0F00005C260020DE
S21400034013B5084C002806D00422121A92B2694649
S2140003502000054B9847002204492000044B98478C
S21400036013BDC0465C2600202D0F000098260020F6
S214000370B10E000073B5164D164C06000122164B42
S214000380290020009847FC22B30092001340B207D1
S2140003901AD5C022920101A913431A0A4B70FF23F3
S2140003A00A708B70CB706A460C4EFB3B2000B04741
S2140003B0290000222000084B98476B466A46DB78E7
S2140003C090781B02184376BDC0221201E3E7C046B0
S2140003D0982600205C260020B10E0000B90F000011
S2140003E0F7B5154E154D07000122154B0C002800D9
S2140003F031009847FC22BB0092001340BA0717D57D
S214000400C022920113438022D20101A913431A0A83
S2140004108C70240A0A704B70CC706A46280004233D
S214000420084CA047310028000022054B9847F7BD2E
S214000430C0221201E6E7C046982600205C2600206F
S214000440B10E0000B90F000070B5054B0D0004009A
S2140004509847284381B2034B2000984770BDC0469A
S21400046075030000E103000070B5054B0D000400A5
S2140004709847A84381B2034B2000984770BDC046FA
S21400048075030000E1030000F0B55E4B91B098479D
S2140004900026232001255C4F02AC21005B4B387000
S2140004A07E70BE706570A670257098473A785309BE
S2140004B0D109B14200D0A3E01F2728003A4090405F
S2140004C002005348DB011B189A610D236B44D97751
S2140004D00C22504B08A825706160A16021746174DD
S2140004E0A574E5742175984780235B02E3604A4B48
S2140004F04A4EA36201235B42E362494B2200236318
S214000500484B49496363494B3000A361484B9847C1
S2140005103468484B200098470740BD40464B1D6056
S2140005203368DA69002AFCD1022321681C200B43B9
S2140005302360012301A94B700B70344B8A700B2487
S214000540984764258023324F5B053C4E7B6128002C
S214000550B04780235B05BB612800B047013CC02044
S214000560374EB047002C49D00F239843354B80B206
S2140005709842E7D1344C35491020A0473449122020
S214000580A04704211420A04780218420C901A04749
S214000590F72170204900A04780218620C901A04786
S2140005A001219C20A0472B497420A0479621762045
S2140005B0A0478C21802789008220A047BF01042104
S2140005C02020A047F6203900234DA847F620B04744
S2140005D0384203D12021F620204B9847204992200C
S2140005E0A047802190208901A04701217020A847BC
S2140005F074200121A847002011B0F0BD0120FBE7C0
S214000600B661FFDE150100009826002005080000F0
S2140006100044004195800000030022005C26002074
S2140006200300360003003700001C00428096980046
S214000630590C00005D0B000000E100E055010000D1
S2140006407503000070880000E103000002A00000AF
S2140006501C250000E07C000049040000690400003E
S214000660FFFF000010B51723002A06D1064B8900AD
S214000670CC58002C03D1C8502300180010BD13001E
S2140006808442FAD01D23F8E79C2600201723002971
S21400069006D11F2806D8163B8340034AD3600B00BA
S2140006A018007047C960FFDE00180040002370B5D0
S2140006B001250B4C237023780F2B00D970BD290021
S2140006C09940084A1069084206D01161064A9B0004
S2140006D09B58002B00D09847237801332370EAE715
S2140006E09B260020001800409C260020014B5878CE
S2140006F0C009704700180040022310B5044A11785C
S2140007000B431370034B98470028FBD110BDC0461F
S21400071000180040ED060000402307B5104A0520EB
S21400072091690B439361002301A90B700D4B984709
S2140007300D4B0520984701230C4A11780B43137084
S2140007400B4B98470028FBD102000A4B1A50043086
S2140007504028FBD11022084B1A60084B984707BD6B
S21400076000040040811D0000F91C00000018004035
S214000770ED0600009C26002000E100E0F9060000DF
S21400078000230122036043608372023302724272C6
S214000790C3727047F7B50C000026237901A94E7086
S2140007A0CE700B70237A05008B702078134B984719
S2140007B033001F2D00D8124B0721A27A294089004A
S2140007C0E67A002A01D0082216430F278E408F4073
S2140007D03100EA0892009A189069B8430143916183
S2140007E0617A0122002904D0AA4059690A435A6155
S2140007F0F7BDAA40596991435961F9E7551E0000B3
S2140008000018004007B5802201AB1A700A785A70AB
S2140008104A789A708A781900DA70014B984707BDB3
S214000820551E0000F0B5002489B0009201933F23C6
S214000830002600272500069007910393039A134B82
S214000840012000219847B6197F41069B079A03406E
S2140008500A4004960597134303D0012333431E0032
S214000860059F019BBB4209D802D1009BB34205D825
S214000870009A019BB61A9F4104430D43039B5A1EE0
S2140008800392DBD22000290009B0F0BDA57F00004E
S21400089010B54908040000234020A14201D210BD33
S2140008A00300581C091B80B28C42F9D94020FF2B4C
S2140008B0F5D813800020F2E7F0B585B01E000AAB2D
S2140008C00D00197803004B4303924027AB4217D81C
S2140008D0002E18D10200330008001B4C3100A04740
S2140008E02A0001003300194C3000A04700220123E3
S2140008F0121A8B41140C180404430027039B1C8017
S214000900380005B0F0BD0024012EF6D10A00230001
S21400091021000D4EB047009001910B00020021000F
S21400092028000A4CA047802306009B019842E7D87F
S214000930009A019B690FE800A047F400041BE4B28C
S21400094064033443D9E7C046BD7F00002508000095
S21400095037B50D4C05002378002B01D000290CD0AC
S21400096001A91320094B0D7098471320084B984790
S21400097001230020657023703EBD63780800AB42FB
S214000980FAD01D20F8E7C04652020020811D000064
S214000990F91C0000394A030000B50800934233D022
S2140009A007D8374A934214D0364A93421FD00023C2
S2140009B017E0354A93423AD0344A934244D0344AF8
S2140009C09342F4D1002303290BD807F061F9502A8B
S2140009D02C2E0023032904D807F05AF943020507F2
S2140009E02C4B180000BD2C4BFBE72C4BF9E70023E3
S2140009F00329F6D807F04CF937020406284BF0E72F
S214000A00284BEEE7284BECE700230329E9D807F04C
S214000A103FF92C020406254BE3E7254BE1E7254B7F
S214000A20DFE7254BDDE7254BDBE7254BD9E7002342
S214000A300329D6D807F02CF91D020406214BD0E76F
S214000A40214BCEE7214BCCE700230329C9D807F07A
S214000A501FF9120204061E4BC3E71E4BC1E71E4BCE
S214000A60BFE71E4BBDE70323BBE71D4BB9E71D4B96
S214000A70B7E71D4BB5E71D4BB3E7C0460010004275
S214000A8000080042000C004200180042001C004211
S214000A9000140042030005000300060003000700E0
S214000AA00300010003001E0003001F0002000D00EB
S214000AB002000E0002000F000300110003001200E7
S214000AC00300130005003F0005003E00050052002D
S214000AD003001700030018000300190003000400B9
S214000AE002000C000300100005005300030016006F
S214000AF070B586B06946094B6A4670CB70C170CB3C
S214000B0070C1002399005158814202D1D8B206B074
S214000B1070BD0133062BF5D10020F8E7F8960000EB
S214000B2070470000F0B5094C094A2378002B09D11C
S214000B301E00084F084DD750EE500433182BFAD13C
S214000B40173B237080001150F0BDC04654020020B1
S214000B5058020020210B0000DC26002007B50923E0
S214000B606A46137001335370013393700133D370A8
S214000B700133137101335371024B98476B46185675
S214000B800EBDC046F10A000010B5024B00201B68DF
S214000B90984710BD5802002010B5024B01205B6834
S214000BA0984710BD5802002010B5024B02209B68E3
S214000BB0984710BD5802002010B5024B0320DB6892
S214000BC0984710BD5802002010B5024B04201B6940
S214000BD0984710BD5802002010B5024B05205B69EF
S214000BE0984710BD58020020002210B54309C409DA
S214000BF0944202D1DA01064BD2181F2318401E3B3E
S214000C008340002901D0936110BD5361FCE7C046C4
S214000C1000440041036805201A7ED20703D5002051
S214000C20C905C90D9962704730B5042403681022BF
S214000C301D7E25420CD05D8B0022254201D05C83B0
S214000C401E3280799B6A012804D1DB05DB0D0B8000
S214000C50100030BDDBB2FAE7F0B5050029601400DD
S214000C600A6889B00F001C23920700D5BAE0012657
S214000C700B6833400193019A0523002A00D0B1E0A7
S214000C8008005A4B9847811C8E40594B14301A6AFC
S214000C9016431E62631DDB7F02AAC6B213701100E4
S214000CA03000544B98473000534B9847631DD87F0D
S214000CB00199524B98472378012B03D13A680B339E
S214000CC013433B602B002A0000260C33283240C317
S214000CD09342FCD12B003633AE86EE622E86AE6291
S214000CE01E705E709E70032328686B723F4B2E71D9
S214000CF098470700424B43499847434BBF00FD5077
S214000D00802302AA13710123937123782F685671EA
S214000D10D671002B00D196710026A36A0493E36A6D
S214000D200593236B0693636B0793B30004AA985846
S214000D30F1B2002802D13800344B9847431C06D045
S214000D4002AB1871000CC0B203A9314B98470136AC
S214000D50042EEAD123786B71237CAB71A37CEB71F4
S214000D60237D2B7202AB9E1C002333802378012B3D
S214000D7010D11E4B286898471430264BC0B29847AF
S214000D80254B01003200A06998471723002829D177
S214000D9033783B73A3686268617C1A43E3681A433E
S214000DA0237C002903D11D498978890701D5802134
S214000DB00A43A17C002902D0802189020B43E17CF2
S214000DC0002902D0802189000B43217D002902D012
S214000DD0802189010B4339680A433A607A681343D5
S214000DE07B600023180009B0F0BDC046F10A000081
S214000DF000040040811D0000F91C0000510900009D
S214000E00250B000075100000DC2600209509000068
S214000E10551E00009D1D00009108000000200041A6
S214000E20F0B585B001930300040005200091383327
S214000E301B781600834233D01230002A30D0E37974
S214000E400530002B2CD000256379012B08D12268B1
S214000E500121137E0B42FBD001992000124B9847CC
S214000E6022680421137E0B42FBD002AB9F1D002399
S214000E7039003B8020000D4B9847002810D1009980
S214000E803A886B1C4A55A1799BB201290AD1009970
S214000E900235120AADB2CA54013EB6B2002ED3D104
S214000EA005B0F0BD1D00F7E7150C0000290C00008A
S214000EB073B50E004179050014001520012903D1F1
S214000EC02A7A002A01D0002076BD3078144B002CF8
S214000ED022D07478002C1CD02C68247E0C4202D1C0
S214000EE098470520F0E7110098470E4BB178280088
S214000EF09847EB79002BE6D1296804330A7E1A421C
S214000F00FCD06B460024991D2800074B0C809847A0
S214000F10D9E721009847D6E798472000D4E7C0468F
S214000F20E90B0000150C0000290C00000300F7B5C3
S214000F300400052038331B780F001500834203D0C9
S214000F4012300026002A20D1FEBD01211A7E0A4258
S214000F50FBD0A27973189BB2B95D012A17D01E0088
S214000F6089B2134B20009847E379002B09D02268FA
S214000F700421137E0B42FBD06B462000991D0D4BBF
S214000F809847013DADB2002D07D02368DDE7FB5C36
S214000F9002361B02B6B21943E3E763792800012B39
S214000FA0D2D1216801330A7E1A42FCD00020CBE75A
S214000FB0150C0000290C0000F0B51F00030004000B
S214000FC0052085B00091019238331B78834241D0CA
S214000FD01230002F3ED0E3790530002B3AD00025A2
S214000FE02E00236801211A7E0A42FBD0009A73184D
S214000FF0915DA2799BB2012A2ED01E0089B22000F4
S2140010001A4B984722680421137E0B42FBD000231C
S21400101002AAD380911D2000154B9847002819D1AD
S21400102002AA0199D2886B1C4A55A1799BB2012964
S21400103019D101990235120AADB2CA54013FBFB2A6
S214001040002FCED16379012B04D1216801330A7EAB
S2140010501A42FCD005B0F0BD009A0236D35CB6B298
S2140010601B021943CBE71D00E8E7C046150C00003D
S214001070290C0000F8B5684B8000C45823002200F5
S2140010803733363225681B7816781E402B7EAF7DA8
S2140010901F40FB0734D56279012A31D1637A002BD1
S2140010A00DD15E4B1B88AB62638E013B9BB26386A1
S2140010B0638E002B00D12A756379012B20D1637AC9
S2140010C0002B1DD0E16A2268481C0B78E062A079EC
S2140010D0DBB2012851D09BB2DB05DB0D9362A38EF9
S2140010E0013B9BB2A386A38E002B09D101332B753F
S2140010F0637A012B04D1E379002B01D10233AB755F
S21400110004210F4215D06B8B0B423CD0637A012B27
S2140011100CD023001E2238331A7003236372023366
S2140011202B75330702D52000A3699847AB6A0423C2
S2140011306B8302210F4214D06379012B11D1637A9D
S214001140DBB2012B0DD1E279002A0AD129750131D3
S2140011506172210038310A701E4202D02000E36816
S21400116098477FB2002F07DA80232B752B767306FD
S21400117002D5636A20009847F8BD4878023100021D
S2140011800343E162A8E7627A2368D2B29B6A012A27
S21400119013D1638E013B9BB26386638E9BB2002B9A
S2140011A0C7D12975210038310B700333637216429C
S2140011B0BFD02000E3689847BBE7DB05A16ADB0DDC
S2140011C0DAB20A70A26A511CA162A179012904D17F
S2140011D01B0A5370A36A0133A362238E013B9BB2A2
S2140011E02386238E9BB2002BA3D1220038321370A5
S2140011F004332B75627A022A04D11E4299D020004D
S2140012006369D8E7637A002B00D092E7B30700D46F
S2140012108FE720002369CEE7DC260020F426002096
S214001220F0B5070093B09E4B396008001400049197
S21400123098470122049B06001B680520134200D035
S2140012400AE1049B17301D6802231D4000D003E10D
S214001250F3181B3898400300924A1436116AF6B207
S2140012600B43136223002D3302931B780CA90B70DB
S21400127030008D4B984730008C4B9847029B2900D6
S21400128018788B4B9847E37A08267B71631DDB7FC3
S214001290BB71A31DDB7FFB71E37E3B72237F7B72FA
S2140012A03B68039318007E4B98470EAB1D80238A3D
S2140012B0143002938023029ADB019A4214D008D895
S2140012C0802310269B019A4200D1C8E010260025F4
S2140012D00AE0C023029ADB019A4200D1BEE08023D6
S2140012E003261B029A42F1D123680693E36807930C
S2140012F063690893237E0993E31DDB7F0A93636883
S21400130005932300059A0833002A00D1A9E080221D
S2140013100599520591420ED1DB7F002B0BD1654B10
S214001320C0B2256A98470EAA0100634B280098476A
S214001330002800D090E0637E002B02D0A37E039AA4
S21400134093730EAE3388039A9381079A069B1343D2
S214001350089A1343059A1343029A1343099A1202F2
S21400136013430A9A5207134322000832D27F002AF8
S21400137001D104321343627E217F920249020A435E
S214001380617FE07A09020A43611DC97F49040A4366
S214001390A11DC97F09040A43A17A01430A43218992
S2140013A0FF2900D173E08020400403430A43210054
S2140013B02C310978002903D140498978890701D55D
S2140013C080210B433868C1690029FCD103994A6023
S2140013D03968CA69002AFCD103990DAD0B608023D9
S2140013E02B70236B6A700E93636BEA707360A36B4B
S2140013F0AA70B360E36B1400F360A300F058E1B288
S214001400002802D104982E4B9847431C05D028701C
S214001410000CC0B229002B4B98470134042CECD1A9
S2140014203B0000243033FC85FC603C617C61BC6181
S214001430FC613C62BC627C62BC859C701C705C700B
S214001440DC703868164B984705001F4B1F499847B5
S21400145020001F4BAD00EF5013B0F0BD082601254D
S21400146042E7DB7F002B07D02B000096A16A206A9C
S2140014700EAA184DA8475BE7236AC0B20B930D4B24
S2140014809847009601002B000EAA0B98F1E7E17E24
S214001490002900D18BE78021C9040B4387E7C046AB
S2140014A0F10A000000040040811D0000F91C000045
S2140014B0510900009D1D0000910800000020004119
S2140014C095090000551E0000250B0000651500005C
S2140014D0DC260020B9080000C2791C23002A0AD0A6
S2140014E0C28D173B002A06D1036802321985197E81
S2140014F01142FCD000231800704710B582791C23D7
S214001500002A11D0828D173B002A0DD102680420D4
S214001510147E044208D0538BDBB29C061DD00224F6
S214001520234203D01A235483180010BD034202D06E
S21400153050831E23F8E70120034202D05083132372
S214001540F2E71020034202D050834223ECE720202B
S214001550034202D050834123E6E7138D0B8000231D
S214001560E2E70000F8B5584B8000C4582568EB69E0
S214001570002BFCD12B7EAF7D1F40230030331A7822
S2140015805E78012316401F4219D0E28D002A00D152
S21400159072E0A26A511C1378A1626179DBB201295C
S2140015A064D09BB2DB05DB0D2B85E38D013B9BB244
S2140015B0E385002B03D101332B750133AB75022372
S2140015C01F4209D02B752300002233331A70F3070D
S2140015D002D52000E368984704231F4227D0A28D37
S2140015E0002A00D16DE06B8BDBB21A0746D43F228F
S2140015F0134045D002221A2113420FD104221E2185
S21400160013420BD101221321134207D1102242218B
S214001610134203D12022134204D041212300323347
S21400162019706A83730702D52000636998471023F0
S2140016301F4206D02B752B761E4202D02000E3698F
S214001640984720231F4206D02B752B76330702D5EA
S2140016502000A369984708231F4206D02B752B76D7
S214001660B30602D5236A20009847F8BD51780232A7
S21400167009020B43A26295E72B75A0E73722B7E76E
S2140016802B8D616ADB05DB0DDAB20A70626A511CCB
S21400169061626179012904D11B0A5370636A0133C0
S2140016A06362A38D013B9BB2A385002BBFD10422AE
S2140016B02A75220032321370B307B8D5200023698A
S2140016C0B4E72B75B3E7C046DC260020102302499A
S2140016D0CA681A42FCD07047000800400222F8B5DB
S2140016E00026094D094C2B68094F13432B60A28432
S2140016F0B847AB68E3626B68A362A684B8472B68FA
S21400170030009BB2A384F8BD7002002000080040A1
S214001710CD16000070B5082806D806F0B9FA0805F8
S214001720053030120B1528000024200070BD164B23
S2140017301C69FAE7154B164C1B6A9B059B0FDC4091
S214001740F3E7114B5C69F0E70F4D00242B689B070D
S214001750EBD5104B984724222B681340042B11D14D
S21400176020000D4B9847AC68A4B24443DDE70B4B12
S21400177000241B785B07D8D5034BDC68D5E78024AC
S2140017802402D2E7064CD0E7700200200008004092
S21400179000127A00CD1600009D1D00005008004083
S2140017A0006CDC0270B5847802784578012040260B
S2140017B00540204080240849AD010B6AC001B343B0
S2140017C02B43A34303430320024004481202034072
S2140017D013430B6270BDC04600080040FFFCFFFFCD
S2140017E0F7B5184F4678BB691900037801930423B0
S2140017F042790479C57800920122994308238078BB
S21400180016401040800008439843F60006431540F3
S214001810A801350038339D4305431440E30180207A
S2140018202C0084431C43072301990B4006491B02E6
S21400183021401943009B1A401303044A0A401A43E6
S214001840BA61F7BD00080040FFF8FFFFFFEFFFFF9B
S214001850F0B5224B4278077885B09C469B8A039267
S2140018607A425741427B8478C57806790192027B9A
S2140018700292817B1A4A80685061B80004270122D0
S214001880BB43184308231540BD4016409843F60056
S2140018900643DB189E43354310339D432B00402000
S2140018A0144064012343029C83431440A401234351
S2140018B080240198A3431040C00103430720039CE3
S2140018C011402040074C00022340074A03431A40B9
S2140018D0634609030A439A8205B0F0BD000800403B
S2140018E070020020FFF8FFFFFFEFFFFF10B5027A3F
S2140018F0438992069B059B0D120C1A43174B5A60A0
S214001900C179827984880A43418821430A43417811
S2140019100478C9010A431A60042C0DD1027B018A9F
S21400192092060A43C1890E48090401400A439A6098
S2140019301A6814431C6010BD202CFCD1027B018A5F
S21400194092060A43C1890648090401400A439A6080
S2140019501968044A0A431A60EDE7C0467002002080
S2140019600000FF032404000010B5082806D806F07F
S2140019708FF91405050C0E1A07202300172010BD3A
S2140019800223104A116A0B4313620020F7E7022372
S2140019900C4A91690B439361F7E70223094A118ABF
S2140019A00B431382F1E70223064A918A0B43938284
S2140019B0EBE7054B9847E2E70223044A11780B430E
S2140019C01370E2E700080040DD16000044080040FF
S2140019D0C2231E22F0B5524DDB005249AB604B6865
S2140019E0002693431A00042313434B60022391B04E
S2140019F00BAC2370F0B221004B4B01369847252ED6
S214001A00F8D1802207A81202002382600122037008
S214001A108370C37002710373837305324373434B41
S214001A2042709847424B052098470223EA681A42BC
S214001A30FCD08023AA8A3F4F1343AB823B68AA6937
S214001A403D49DB045B0E0A401B041343AB610123D4
S214001A50002602A8037106330370384BC670467121
S214001A60467086709847324B042098473F23638120
S214001A703B3B6680A680A671E671237066703B6865
S214001A809B0E3F2B00D1203B2372B723DB00238223
S214001A900723237338330126E38120000024284BD4
S214001AA0984701A8274B4470867004709847204BCF
S214001AB006209847244B9847052304AF39003B700F
S214001AC03000224B7E607C703C727C7298473000FF
S214001AD01F4B984739002000134B3E709847200054
S214001AE01C4B98471C4B9847D022EB681340D02BD2
S214001AF0FBD10024194B39001C725C729C72DC729C
S214001B0001237B6006333B702000104B7C703C72D8
S214001B107C72984720000E4B984711B0F0BDC04627
S214001B200008004000400041811D000051180000E0
S214001B306919000024608000FFFF80FFE1170000A5
S214001B40ED180000A51700006D1B00008D1B00009F
S214001B50311C0000F91C0000DD16000000040040E7
S214001B60014B5878C0097047000C00400823054A0E
S214001B7091690B4393610123034A1370117819424C
S214001B80FCD1704700040040000C0040F8B50C780B
S214001B904B782402060005000443002B02D0802365
S214001BA0DB021C434B7A002B02D080231B031C4312
S214001BB04B68012B12D95D1E1D400222002D06D057
S214001BC01D02802335439B0207E0013552009A42EE
S214001BD0FBD380232D0235435B031C430B7A002B7B
S214001BE002D080239B031C430C4FB8470028FBD130
S214001BF00B4B98470B4B1E70B8470028FCD10A4B7E
S214001C009D601D00B8470028FCD180226B685202F8
S214001C1013401C436C60054B9847F8BD611B0000E1
S214001C2081010000080C0040000C0040B5010000D7
S214001C3070B50500094CA0470028FBD1084B984713
S214001C40084B1D70A0470028FCD18023064A5B0283
S214001C5051680B435360054B984770BD611B0000ED
S214001C6081010000040C0040000C0040B50100009B
S214001C70F7B50700184EB0470028FBD1174B98471A
S214001C80174B1F700193B0470028FCD1154D164B1B
S214001C906868C004C00E98470400019B1F706B68FC
S214001CA0DB02DB0F0193114B1F70B0470028FCD1FD
S214001CB0AD680F4B9847019B2D022D0C002B08D1C9
S214001CC0012D04D9200029000A4B98470400200063
S214001CD0FEBD0135EC40FAE7611B00008101000003
S214001CE0040C0040000C004015170000080C0040D3
S214001CF0B5010000B97C000010B50400064B9847FB
S214001D00064B074A1C7080235188DB010B43538027
S214001D10044B984710BDC04681010000020C0040ED
S214001D20000C0040B501000010B504000E4B9847AB
S214001D300E4B0F4A1C700F4B0F4C588859880005E5
S214001D40114059805988000F214059801100802287
S214001D50D2015C881442FCD15A8800020A40024331
S214001D605A80064B984710BD81010000020C0040C7
S214001D70FFF0FFFF000C0040FFBFFFFFB5010000B3
S214001D8010B50C78034B240204439847024BA4B2C8
S214001D905C8010BD291D0000000C004010B504003A
S214001DA0064B9847064B1C70064B5C88064B240572
S214001DB0240F98472000054B984710BD810100006E
S214001DC0020C0040000C0040B5010000711C000031
S214001DD0D37830B5002B35D11478802C03D08023EF
S214001DE024065B02234302255478AC4306D194783C
S214001DF0002C24D18024A402234341605478013C63
S214001E00012C01D8124C2340A0248DB2E4052C43AB
S214001E101C438462D0240D0C24062C431C4384628D
S214001E20D478002C0AD15B0303D59378012B0CD110
S214001E3081615378013B012B00D8816030BDC024FE
S214001E40E402D9E741600023DEE74161F1E7C046DE
S214001E50FFFFFBFF10B503000A004409C10900207C
S214001E60814202D10449E00140181F210B401E396F
S214001E709940024B984710BD00440041D11D000018
S214001E807047000010B5054B9847054B9847054B23
S214001E909847054B9847054B984710BDD119000049
S214001EA0E5010000811E000019070000811E0000E9
S214001EB0931C9B001950037E022A04D10E32134352
S214001EC0037600207047032A01D11D32F7E701216F
S214001ED091400B43F4E7000070B50126144B8000D8
S214001EE0C4582368227E657E9B7B15401D40354284
S214001EF004D0A3682000984723689E7302263542C4
S214001F0004D0E3682000984723689E731026354265
S214001F1004D023692000984723689E732026354204
S214001F2004D063692000984723689E7370BDC0463E
S214001F30F826002010B50020014B984710BDC0467B
S214001F40D91E000010B50120014B984710BDC046B1
S214001F50D91E000010B50220014B984710BDC046A0
S214001F60D91E00007FB50C4B0100180001AA70C8EE
S214001F7070C2019A91420AD05A68914209D09B6871
S214001F8000208B4201D10230C0B204B070BD0020E8
S214001F90FAE70120F8E7C04610970000F0B58B4B33
S214001FA0050087B0080014000E0098476A461B23F9
S214001FB0137201335372937280231B0113828023A2
S214001FC05B01538280239B0193820023AB60EB600E
S214001FD02B616B612B766B767D4B8200D5502E6025
S214001FE0A3780700082B03D11720FA0700D4D5E002
S214001FF001222B7133880520134200D0CEE0F37BFC
S2140020001730DB0600D5C9E0022133880B4000D02C
S214002010C4E0217C002908D003A9CB70237E207D54
S2140020200B706C4B8A704A709847237F002B0ED03B
S2140020300022012303A9CA7024328B70A2184B70A9
S2140020401F33E31812781878624B0A7098477A00A4
S214002050944668461022801862465F4B825A196A78
S2140020600A431A62A278082A0AD1791C4A009446C2
S21400207010216A4652186146186A525A02431A627A
S214002080237801A90B7008226B469B18DF5D534B23
S21400209038009847524B380098472389A288A17980
S2140020A01A43A3780B4313436278002A02D0802297
S2140020B0120113432968CA7B52B2002AFBDB338025
S2140020C0637B5A1E9341A27B9B00002A01D001220B
S2140020D013432968CA7B52B2002AFBDBFF22327107
S2140020E0002B05D02968CA7B52B2002AFBDB73712D
S2140020F0E37AA27A002B01D010231A43237B002B0D
S21400210001D020231A432968CB7B5BB2002BFBDB74
S214002110B2712B68DA7B52B2002AFBDB2A79042ADA
S21400212019D0082A3CD01720002A37D1DA7B52B2C1
S214002130002AFBDB238D33822A68D37B5BB2002B1D
S214002140FBDB638D33832A68D37B5BB2002BFBDB20
S214002150A38D738321E0DA7B52B2002AFBDB2300D7
S21400216028331B7833742A68D37B5BB2002BFBDBE7
S214002170230029331B7833752A68D37B5BB2002B88
S214002180FBDB23002A331B7833762A68D37B5BB2CB
S214002190002BFBDB2B3423787376002007B0F0BDD2
S2140021A0DA7B52B2002AFBDBA36A33612A68D37B50
S2140021B05BB2002BFBDBE36AB3612A68D37B5BB2BE
S2140021C0002BFBDB236BF361E7E7C046651F0000CF
S2140021D0F8260020551E000000040040811D000067
S2140021E0F91C0000FEE700002148224970B588422D
S2140021F004D00023204CCA18A24232D300211F4B21
S2140022001F4A934231D3FF211E4B1F4A8B439360D4
S21400221002220C25082430261C4B1D485A62C3781F
S214002220FC398B431343C370C378AB432343C3705B
S214002230184B987BB0430600202030439873987B59
S214002240A84304439C73987B884302439A73802375
S214002250114A51680B435360104B9847104B9847F0
S214002260FEE7C55804331560C5E702C3C9E7C04694
S2140022700C640200000000202C0200203002002027
S214002280C05300200000000000ED00E0FC7000419C
S2140022900050004100480041004000411D80000001
S2140022A0B972000070B50E0014001500002808D0A2
S2140022B0012040420CE0074B013D1868064B1B68A6
S2140022C09847611B7118002DF5DCE043C0172040CD
S2140022D070BDC0460C27002004270020013870B5CA
S2140022E00E0002280DD80C008D18A01BAC420AD098
S2140022F0054B21781868054B01341B689847002861
S214002300F3DA0120404270BD0C2700200827002089
S214002310054B02001968002901D1044919601868A4
S21400232082181A607047C04688020020C05D0020F0
S21400233001204042704780239B0100204B6070477D
S214002340012070470020704740BA80B2704740BAFC
S21400235080B2704700BA704710B5014B984710BD61
S21400236055230000F0B587B0039207000D00002249
S214002370242101201D4B9847061E35D03B68446833
S21400238002936B46257000251B7B25716370657173
S214002390A571E57140681C223968154B08309847CE
S2140023A0A570E57071892000124B9847029AA070BC
S2140023B0000AE070029B527B1B7B12021A43029BB0
S2140023C029009B7B30001B041A43029B0A4CDB7BD4
S2140023D000951B0613430593012305AA0193FE33BC
S2140023E0A0473000054B984707B0F0BDC93700003E
S2140023F083800000BD250000E92800006D3700003E
S2140024000F22F0B5456889B02B78069113409B00E3
S21400241004935B421BB219003E4F04000593B84775
S214002420002814D12389032B11D963681B78082B45
S2140024300DD1394EE833326806991A403068374B6A
S21400244007929847002802D1079BE02B04D1200072
S214002450334B984709B0F0BD2389072BF7D92000E6
S214002460304B98470028F2D16B4610229B5E242101
S21400247020000493B847002845D004992000B847A8
S214002480021EE4D121890220274B9847071EDED082
S2140024902100264B98470028D9D1059938001D4BB6
S2140024A07D6898470028D2D120001D4B98473C00F5
S2140024B00023FF27327861682A7372786A73B278CD
S2140024C0AA73F278EA731A4A1078287450786874F7
S2140024D09078D278A874EA7420000B708B70CB705A
S2140024E0AB72EB722F7204990A4B9847021EAED15C
S2140024F0069B0090029301233100019320003B00CD
S2140025000C4DA847A3E7242120004942B8470028DD
S2140025109DD1CDE70B370000182700202D2900009D
S2140025206D370000CD250000C93700008539000052
S21400253010270020F927000010B50A0004300321F8
S214002540014B984710BDC0466523000010B50A0031
S21400255004300B21014B984710BDC0466523000090
S21400256037B56B4601249D1D002304402B809C42FA
S2140025701CD0994209DD0378421C6B700139002398
S214002580012915DC01D112782A702888C018030C9E
S21400259080B21B18180C9BB2C018002C04D003067F
S2140025A0000A1B0CC0B2184380B23EBD0200E6E72C
S2140025B0108802391B180232E2E7000010B5024B01
S2140025C09847C04380B210BD61250000F8B50025CD
S2140025D006002C000127002E09D1002D04D023066A
S2140025E0240A1B0CE4B21C43E04380B2F8BD0A4B3D
S2140025F071897068984773890019040C80B2241892
S2140026003B4207D0FF222306240A7D1B1B0C1440E6
S214002610EDB21C433668DEE761250000012110B5E7
S2140026200E4B1B68002B0BD10D4A1268002A05D0F2
S21400263011002D310978C90700D51300180010BD08
S2140026401A002D3212780A4205D05C680268624091
S2140026509C681442F2D01B68E4E7C046344F002062
S214002660384F0020F7B544680500267800913309F6
S214002670042B04D02800524B98470020FEBD0F23A1
S214002680E0781E40A378000218434E4B98476B89AB
S2140026900100B600B342EDD32B898342EAD34A4BFE
S2140026A028009847627C237C12021A43A37C474F7B
S2140026B01B041A43E37C009E1B0613433B60627BAD
S2140026C0237B12021A43A37B1B041A43E37B1B06DD
S2140026D013433F4A136001230193330001222D3335
S2140026E01B78134204D1019B002B3AD136683AE09E
S2140026F07368002BF7D03868834204D03100354B1E
S21400270098470028EFD0324B00991868314B98470D
S2140027100028AFD12E4B1B680193F023019A13407B
S214002720E02BA7D0002EA5D0E379A2791B02134395
S214002730C022934305D02800274B9847051E9CD0FF
S2140027404468009B254E3360254B1C60637A062B3D
S2140027501ED0112B10D0012B1ED100992800214B22
S2140027600DE0214B1E68009B9E4200D13668002378
S21400277001939E42B1D1C6E7280000991B4B9847AB
S2140027800023174A33601360114A3B60136074E7F6
S21400279000992800164BF2E7009938680D4B9847C9
S2140027A0002809D1F0233A681340E02B04D06C606F
S2140027B0022128000F4B98472800014B9847DFE777
S2140027C06D3700004F230000ED380000182700206A
S2140027D0102700202D290000CD2B000014270020F4
S2140027E01C27002001240000344F0020D56600007E
S2140027F09550000039250000F0B587B001930CAB6A
S2140028001B78050002930DAB1B780091171E0393EF
S2140028104AD01421304B9847061E59D16B466C6837
S2140028201B7923726B461B7B63723B681A0A237400
S21400283062741A0C1B0EE374452323706B461B7AD6
S214002840A27463702889254B9847A671E671244EBA
S214002850A070000AE070214B3088984733882071BA
S21400286001333380009B000A6071002B02D01B6886
S214002870002B01D10E9B5B681A0A237362731A0C35
S2140028801B0EE3730023A273A372E3720E9B9B8C52
S214002890002B17D02A899A4214D93A0028000E999C
S2140028A0104B984707B0F0BD416805AF4A7C0B7CDB
S2140028B012021A438B7C1B041A43CB7C1B06134361
S2140028C00593E3E70E9B3A005B6929000E98E8E75C
S2140028D002204042E6E7C0460B37000049230000CE
S2140028E08C020020992F0000F0B587B005930CAB42
S2140028F01E780DAB05001F7810000A4B04911400DB
S214002900984700280AD00290220001970096059B5F
S21400291004992800044CA04707B0F0BD04204042AC
S214002920FAE7C0461D260000F9270000431E10B532
S2140029300124033312D80B002D331B7800249B0789
S2140029400CD54A68904209D08B684240134205D1A4
S214002950DB431840C01A43425841C4B2200010BDA1
S214002960F0B500273E00036887B0019102920593F8
S2140029700091002405ABDD5D28001E4B0A21984718
S214002980CBB203930A2128001B4B9847039A631C7B
S214002990303204A9C5B2DBB20A55002D1AD10B009D
S2140029A00433DD553300009A911B00989A1B821859
S2140029B0FF2C11D102995E1C8B4218DA531C00932F
S2140029C02E2301371370042FD3D1002301981370E0
S2140029D007B0F0BD1C00CFE70298621ED2B2834259
S2140029E005DA04A8005D1400C8540133DDE70020B2
S2140029F0EEE7C046C57D0000B97C000010B5102289
S214002A000149024B984710BD8E0200206129000044
S214002A1010B504004069002801D0034B98472100F8
S214002A200520024B984710BD6D3700008535000025
S214002A30F7B5002446680F00736805005A791979BF
S214002A4012020A43A2421BD15A7819781202114385
S214002A509A78DB7812040A4301001B06134343608E
S214002A60142208311C4B70689847012130001B4B1C
S214002A7098471B4B300098471A4B84B23000984753
S214002A806E68002E0FD1184A2B6811688D4220D12F
S214002A90136029000420154B9847154A2000138818
S214002AA01B1B1380FEBD72683000537811781B0222
S214002AB019439378D2781B040B4312061A43084B2B
S214002AC001929847074B241830009847A4B2019EFD
S214002AD0D7E73B60DDE7C046838000004D25000059
S214002AE0453900006D370000A00200208535000043
S214002AF09E020020F7B5040000260091002529005C
S214002B002800244B1B68002B0BD1002802D0224B38
S214002B1098473618009B9E4201DA012DEEDC300005
S214002B20FEBD227B94466746627B12023A43A77B31
S214002B303F041743E27B12063A435F69974219D176
S214002B40227C94466746627C12023A43A77C3F0486
S214002B501743E27C12063A439F6997420AD12279CC
S214002B609F89944601976746627912023A43019F0D
S214002B70974208D00135002804D0DA7F9446C27FF9
S214002B80944500D818001A68002A00D019001300CF
S214002B90B9E7C046A0020020312A000070B5002523
S214002BA0084B1868002800D170BDC37F0468002B4E
S214002BB004D00500013BC3772000F3E72900024B51
S214002BC09847F9E7A0020020312A00000F22F0B54E
S214002BD0446887B0237806001340052B4AD1E07975
S214002BE0A3790002B04D1843A8470490E078A37874
S214002BF000021843A8472378059002933000AB4B99
S214002C009847AB4D01902B881B180A2B27DCA94B45
S214002C101F6800230393002F31D10420A64DA84738
S214002C20071E0AD1A54B019920009847019B8342B5
S214002C3020DC0420A847071E1CD02022A04B002121
S214002C40380098470323FB779A4B1A681F603A6050
S214002C503800142221009B4B083098474DE101991B
S214002C602000964B9847002804D02B88019A9B1882
S214002C700A2BCCDD3000944B98470025A4E0627BFD
S214002C80237B12021A43A37B1B041A43E37B1B0617
S214002C9013437A699A4214D1627C237C12021A4347
S214002CA0A37C1B041A43E37C1B061343BA699A42AF
S214002CB007D163792179BA891B020B439A4200D166
S214002CC00EE103973F68A6E74C68257928006579EA
S214002CD02D0205430198A84200D378E00D0A117032
S214002CE055700D0C090E9570D170002B00D14DE17A
S214002CF0D9799D7909022943884200D2B4E06179E6
S214002D002079090201438C4500D9ADE0310A59709B
S214002D10310C9970310E1E70D970BB7F0025DB0711
S214002D2052D5029BAB424FD0796848684379047904
S214002D301B022343AB4247D1537815781B022B4323
S214002D4095782D042B43D5782D061D43002D00D0F5
S214002D5072E0BB8B14221433BB834E683900737841
S214002D6034781B022343B478083124042343F478D0
S214002D70300024061C43534B9847544BB88B984757
S214002D80B070000AF070B571F571B572F572142165
S214002D9030004F4B9847B072000AF0727D68002CE6
S214002DA000D069E0434A3B6811688F4200D078E063
S214002DB0136039000420474B98473C4B280098473F
S214002DC03B4A1388181A1080280007B0F0BD0199F6
S214002DD0A94249D0A1790800E17909020143019886
S214002DE0884241D3002B07D09979DB791B0219431F
S214002DF08D4201D00023029363782578A1781B02C8
S214002E001D4309040D43E178230009062943B7E072
S214002E10300A5870300C9870300ED8701E709D793D
S214002E20D8795379147900021B0228432343984229
S214002E3000D172E7029170E76B68D07995795A797C
S214002E401C790002120228432243904200D014E765
S214002E505A781D7812022A439D782D042A43DD787D
S214002E602D0615431A0071E7104B30009847104A9C
S214002E701388181A1080FDE614216668494220005F
S214002E80154B98472100154B2800984773783478DF
S214002E901B022343B47824042343F47824061C43FB
S214002EA07DE7039A84E7C0464F23000045390000BB
S214002EB09E020020A002002069350000F52A0000CE
S214002EC095800000838000006D37000049230000D5
S214002ED0BD250000853500000B3700006339000073
S214002EE0E079A37900021843294DA847C00404D10D
S214002EF0F889A847C00400D0AAE6264A0199138894
S214002F005B181380A3799B060ED40123BA7F134364
S214002F10BB770F23029A1A409300059AD31A049A95
S214002F20D204120C9B18BB837568E878AB78000255
S214002F301843174B98470F232C781C40A400041BFB
S214002F40E879AB7900021843114B98476946C004EC
S214002F50030C019372680979002311710199A4B2D8
S214002F60090A5171019913706418A1B20124917174
S214002F708C46090A53709370D370D17179680294A5
S214002F80002900D0A0E6002B00D041E77E60C4E612
S214002F904F2300009E020020F0B593B00B911092D4
S214002FA08B8C04000C93436814260993099A9B792A
S214002FB0D079000218435D4B98478022C3049201E3
S214002FC0DB0C104008930E9020890C99143883B2BD
S214002FD0072014390493CB1703405B18DB109BB211
S214002FE00D93DB009BB20F93002311920593049B75
S214002FF0002B02D1180013B0F0BD089B0E9ADB041C
S214003000DB0C1A43049B0A9207930C9B049A133B0F
S214003010934205DC0A9B119A13430A930F9B07936E
S214003020002214210220424B9847051E26D0414B11
S214003030142209994068984763686F689B19636013
S21400304063899E1B079B66810393039B002B3CD0E2
S21400305062890399131C8A4201D96B469B899BB2ED
S2140030600593002B01D12468EFE70520324B9847E3
S2140030700690002805D12800304B98470120404292
S214003080B9E7059B2E4E01936368022200930599CB
S214003090069B0320B047061E04D106990520294B3F
S2140030A09847E8E72000284B9847069B069A5C61FD
S2140030B0264B310013612800254B9847039B059A41
S2140030C09B1A9BB20393002BCDD1224E0A98B04791
S2140030D0B871000AF8710798143080B2B0476B4692
S2140030E01B7BB870BB726B461B7B000AF870FB72CA
S2140030F014213800184B98470B9BB872000AF872D8
S2140031005B69109A29000B98039398470B4B28008D
S2140031109847049B079A059E9F1A0D9ABBB2944641
S2140031200493089B63449BB2089360E74F23000018
S214003130C937000083800000693500006D37000045
S214003140B93600008535000057390000112A000006
S2140031506339000049230000BD25000010B5064B6A
S2140031609847064B9847064B9847064B9847064B9A
S2140031709847064B984710BDF13200001D350000F9
S21400318099350000D1660000DD3A00007532000077
S21400319070B5164B040006200E0015009847002850
S2140031A009D00023124903600B688660C56044603E
S2140031B0002B01D1086070BD5A68944207D2121BDA
S2140031C05A600360F6E74C68A2420BD30B005968BE
S2140031D04268521A426019680029F4D11A680260DF
S2140031E01860E8E7A21A4A60F8E7C04669350000AA
S2140031F0A402002010B50A4B1A68002A0ED1094A0C
S2140032001268002A03D1084A1268002A06D0012252
S21400321006491A60FA200022054B984710BDC046A2
S214003220A8020020444F0020584F002035320000EE
S21400323091310000094B10B59847094B1B68002BCD
S21400324003D1084B1B68002B05D000220649FA2044
S214003250064B984710BD064A1360FBE789430000FB
S214003260444F0020584F00203532000091310000B6
S214003270A8020020FA2010B50022064C064980005D
S214003280A047002205490648A047064B9847064B2C
S214003290186010BD91310000D1320000AD32000040
S2140032A088130000717C0000AC02002010B5044BAF
S2140032B09847002203490448044B984710BDC0466F
S2140032C079690000AD3200008813000091310000DB
S2140032D010B5044B9847FA20002203498000034BA0
S2140032E0984710BD9D2B0000D132000091310000A0
S2140032F003220A4B00219B189343094A094813608E
S214003300A0229201598019719918016001201A8033
S21400331008719A524A80044A13607047202700209A
S214003320B4020020B8020020B002002030B5002809
S21400333032D01A4B1B6898422ED3194A1468A04202
S2140033402AD200221749083802710A68904200D231
S214003350086002889A1890420ED01579002D0BD17D
S214003360944209D00C68A24200D1086014880480F8
S2140033701288C41A9A18548044881A1990420BD09E
S2140033801579002D08D10D68A84200D10A60018881
S214003390118002889B185C8030BDC046B4020020B5
S2140033A0B8020020B00200200323F7B5033189B22B
S2140033B099430B2905D9A0239B01994202D90020E5
S2140033C035E00C21234B1B68834230D8224A126812
S2140033D090422CD20500083D2E88EC1A3200A4B28A
S2140033E0083A121B92B28A42E9D320D09E19377946
S2140033F0002F1DD132880192220008328918174A00
S21400340089B2944667463F685A18BE4201D166465E
S2140034103260002616716E46B6885480A024168048
S21400342029801288A401A24201D09B185980FEBDB3
S2140034300E0014369642FAD82200084E0832891832
S21400344089B237685A18BA4200D23260002616711E
S2140034502E88E2E7B4020020B8020020B002002066
S214003460F7B5031E0AD0032203339BB293430B2BFC
S21400347005D9A02200209201934201D9FEBD0C235B
S214003480A026234AB6011568224AF01A1168019050
S2140034906A1A92B20198824201DB0020EEE7881891
S2140034A004790788A446002C2FD1083CA41A3C199E
S2140034B09C422AD31F001437BC4220D367460833E9
S2140034C0D3189BB2CC182771078862800122278008
S2140034D0038002712288B24201D089184B8085424F
S2140034E00BD10D4B1A680B4B196803001C79002C86
S2140034F001D0934206D1064A13600830BEE7012386
S2140035000371ECE71B88CB18F0E73A00C2E7C04629
S214003510B0020020B4020020B802002003220E4BA6
S214003520F0B59B18934300220C4E00210C4C500023
S21400353001510C49575A0021B94203D10232122ACE
S214003540F3D1F0BD255801311D60955B2350AC4684
S21400355089B26344F0E7C046BC0200203297000000
S214003560CC23002020970000082800D9FEE7044A54
S21400357083009858002801D0016899507047C046CB
S214003580CC230020002904D0024B8000C2580A60D9
S214003590C1507047CC2300207047000070B50B0068
S2140035A005000C1E0CD00B684268934207D00F4BE8
S2140035B01868002806D10E4B1B68002B0BD1236819
S2140035C06B6070BD03686A68C668934201D1094B98
S2140035D098473000EDE71A68002A04D069688A42E6
S2140035E001D122681A60DB68E7E7C046444F002036
S2140035F04C4F00205944000070B516001D00064BC5
S21400360004009847331E00D03368A3602B1E00D0FA
S2140036102B68E36070BDC0469D350000F8B50025F8
S214003620040045608560C5602D3005700D4E069817
S214003630E56120623078471C3770260030363070DF
S2140036400898094E20612000B0472000079B984745
S214003650A84205D1054B1A6822601C602000F8BD00
S2140036602C00FBE7F0230020F9350000344F002043
S214003670014B18607047C046384F002070B50500F3
S21400368001232D352A7804001A420ED113432B70DD
S214003690C369002B00D0984730222B781340934202
S2140036A003D1211D2000014B984770BDBD69000065
S2140036B0002800D0C1617047F0B505AC20CC0027CB
S2140036C02688032817D804F0E3FA1C02181A2424C4
S2140036D06018844600200700B4450CDC186085425C
S2140036E011D02C195C6002201A7301221F00587337
S2140036F019815981DA813800F0BD1024E8E70024EA
S214003700E6E73824E4E75D60EDE730B5030000291E
S2140037101ED0002829D08CB2002905DA4C424289F6
S214003720A4B2A24200D2FEE71D7B5A68002D01D04B
S214003730032D0FD11C001034521A0120A24208D3C8
S2140037405A605A8989B28A185A811A898918198141
S214003750002030BD0120013D8542FAD80029F8DA64
S2140037605D89A542F5D3521AEAE7F2E770B5041E62
S21400377003D000240225002801D1200070BDC38993
S214003780013B9BB2C381002BF7D1437B06682B42DB
S21400379002D00369984706E0037B032B07D101009C
S2140037A00820074B98470134E4B23000E3E7013BBA
S2140037B0012B02D801000720F3E7024BEAE7C046D8
S2140037C0853500002D330000F8B50F0015000024E5
S2140037D003281AD804F05CFA0F020B0D24260024E6
S2140037E0032D12D8280004F053FA556A6A081026EA
S2140037F0F5E70026F3E73826F1E70820364B98472A
S214003800041E04D10122354B1A702000F8BD002397
S2140038100322BE25036083191333B61893439643D9
S214003820ED00027343600781AD1BBD4200DD3D0025
S214003830012365817D1B2700E381002D04DC012325
S214003840E38100236373E0E70820234B9847061EB6
S21400385007D10122214B20001A70214B98470024E3
S214003860D3E70323BE2103730023AAB24373036086
S214003870C9003860131C02818A4201D9194B1B8883
S2140038809AB273813300103373600123AD1AF3814B
S2140038903700D2E7032530007B19AB431030C01841
S2140038A080B2114B9847041ED9D0002386191336D0
S2140038B0AE4346600781478103600373BFE7072076
S2140038C0054B9847041ECAD00023078143604781F2
S2140038D003600573B3E7C046693500003C4F00201F
S2140038E06D370000449700006134000070B503890E
S2140038F004008B421AD90D00CB1A61898D4216D866
S214003900237B002B09D18D4207D063682000191B4A
S214003910691889B2094B984704002068658125819B
S214003920002801D0064B98470023236070BD2289EB
S2140039306D1A9A182281ADB22468DEE7A93300001A
S2140039406D37000002000020002A00D170470130C9
S214003950C0B21268F8E7002802D0C3890133C381D9
S214003960704710B5002801D0002901D1FEE72000DD
S21400397003890A8904689B180381002CF7D101602B
S21400398010BD0000F7B505000C00002805D0002982
S21400399003D002890B899A4200D2FEE700273E0038
S2140039A06A896389921B91B2DB1B01919A4201DB03
S2140039B09BB201936B68019A98196368D919164BE4
S2140039C09847019BF618FF186389BFB2B6B2BB4290
S2140039D001D8002724686B89B34212D12D68002DC8
S2140039E00ED1002C0AD0FEE7628923899A420AD1BA
S2140039F02368002B07D0FEE7002CD1D10020FEBDA7
S214003A000026002CF0D16A892B899A42F4D12B68C3
S214003A10002BF1D0FEE7C04683800000F7B5060015
S214003A2001911700002800D1FEE7019A0025002A20
S214003A3008D1FEE77289002B0AD0934208D39B1A5E
S214003A409BB23668002F01D0002EF3D12800FEBDB1
S214003A50D21A92B23C1C974200D9141C019AA4B206
S214003A60501972682D19D1183F1B034B2200984736
S214003A70ADB2BFB20023E4E7838000000A204042D4
S214003A8070470000F0B58023C027114C114E2088E7
S214003A90DB013F02104A90420BD0013080B2002179
S214003AA08A591268002A06D104311029F8D12080DC
S214003AB00AE03800F3E7558B854206D1013B9BB2FE
S214003AC0002BE7D120801800F0BDD268EAE7C04698
S214003AD01000002054970000FFFF00007047000011
S214003AE0F8B5037E04000D00002B00D0FEE7002A88
S214003AF003D1184B9847021E26D00021164FCB59EB
S214003B001B68002B11D104311029F8D1002D03D0E9
S214003B102B68002B00D02360104B62831A681C6051
S214003B20E2600F4B98470020F8BD588B904209D1B1
S214003B301E68002E0BD0002D09D02868002806D05D
S214003B40864204D0DB68DCE702204042ECE708202F
S214003B50FBE7C046853A000054970000544F00200B
S214003B60F531000070B5067E0400002E00D0FEE79A
S214003B700220224B9847051E28D0012123690361A5
S214003B80638B01764383637E43760223227A134354
S214003B900372A37A8372637A437223680360638B2B
S214003BA0002B07D0164A13689C4211D1E3681360B5
S214003BB00023E360134B210001209847124B6B61F2
S214003BC0124B1A681D60EA60114B9847280070BDBA
S214003BD0320010480360002B03D1002AE8D00360AF
S214003BE0E6E7DE68B44205D1002A00D00360E2684A
S214003BF0DA60DDE70A003300EDE7C046693500000D
S214003C00544F0020853500007D3A00004C4F0020C0
S214003C10F5310000504F00200200F0B5858D016B95
S214003C20846AD78E0A4E681A00193B1CB74200D920
S214003C30331C9BB2C31A01D4D585F0BD0020631A8D
S214003C40834201DDD085F8E7091BD185F5E7C0463C
S214003C50B405000010B5838D0400C9180A4B89B25C
S214003C6099420ED88185094B20009847084B984208
S214003C7006DD0223A27F20001343A377054B984757
S214003C8010BD8385EFE7C046680B0000193C0000B6
S214003C90D9020000D160000010B5041E08D04068AC
S214003CA0002801D0034B984721000320024B984779
S214003CB010BDC0466D3700008535000010B50028E1
S214003CC000D110BD0468024B98472000F7E7C046B5
S214003CD0993C00004176704770B5074B05000320FD
S214003CE09847041E06D0054B1022290098476068A6
S214003CF0034B9847200070BD6935000083800000A4
S214003D0057390000016170470430C1677047C167CA
S214003D1070478C3001607047416170470300013086
S214003D2088331960C277704770B5037E0400012B94
S214003D3018D90A2B16D0806F002803D00A4B984754
S214003D400023A367606F094EB047012300255B423E
S214003D50A386E06E6567B047206FB047E5662567C7
S214003D606A34258070BDC0466D370000BD3C00003B
S214003D70F0B5AF4FAF4A3B6887B001333B6013786E
S214003D8001331370AC4B1C6800230393002C06D140
S214003D90AA4E3568002D00D031E107B0F0BDA54B26
S214003DA01A78A31CD97F914204D1E668039C039439
S214003DB03400EBE7DA772200207E4632022803D171
S214003DC011780125062916D0117801250C2912D064
S214003DD0220095321578002D00D181E02000984908
S214003DE0943003784919013901330978DBB203703E
S214003DF099426BD90025237E062B0AD1A27FD206D4
S214003E0007D58B4A616A1268521A282A01D90135E9
S214003E10EDB20821227A00260A4217D0042B01D0E0
S214003E20072B13D1626A3B68FA219B1A059323007D
S214003E3090331E68834B4900F018834B9847059BC8
S214003E40834200D889E001260135EDB2606F002874
S214003E500DD03B68626A9A1AA31D3E21595E06235E
S214003E604B439A4203D3794B984700236367237EDC
S214003E70032B00D08AE06E4B626A1B689B1A282BC5
S214003E8000D98DE0002D00D08AE0E37F621C01336C
S214003E90DBB2E377D27FE6689A4288D86C4BE57748
S214003EA01D70230088331B682800002B02D02100D9
S214003EB020699847664B1B78002B00D062E70028E5
S214003EC000D074E72000634B984770E70023037028
S214003ED0062D01D80135157020005F4B984789E7FD
S214003EE03426A25F002A01DB0132A286226F002A56
S214003EF080D0A21D04923422A65EA21DB4463E26A1
S214003F00965FB44500DA75E702280BD03E229B5E2A
S214003F10201D3E22805EDB101B185048A21D415C0F
S214003F208B40D38700232200A38623004C326033C5
S214003F3018881188031C884200D90B1C20009BB2ED
S214003F405B084E300380E18E4E00B34200DA0680F6
S214003F5011802000424B98474DE72300FA21963304
S214003F6004931B783F4849005843374B80199847BD
S214003F70059B0026834200D868E73B4B2000984705
S214003F80049B049A1B78013313705FE7092B00D05B
S214003F9078E7274B626A1B689B1AF02B00D871E7FC
S214003FA0324B20009847039AE368002A24D0D36057
S214003FB0002E09D0A28B231D0192628B2C4D0092FD
S214003FC0A16A2200206DA84723008C331D68236950
S214003FD0210004930120274BE668984700231C4CD9
S214003FE023709D4203D00A2104984942A8472378AB
S214003FF0002B00D1DAE6C5E60F4A1360D8E70C4B73
S2140040006A6A1B689B1AF02B0AD82C00ED68C1E67A
S214004010E360EF6829000120164B98473D00B9E69B
S214004020124B28009847EB68002CF1D13360F0E77C
S214004030484F0020F2230020444F0020584F002015
S21400404064970000B84C0A00B97C0000BD3C000034
S214004050404F0020D1600000016600004697000037
S214004060B9640000F8240100BD650000293D000089
S214004070016400008535000070B503680C008B42B3
S21400408017D1CB68036000232000E360144B9847E9
S214004090237E0A2B0AD0012B08D0A27FD30705D592
S2140040A002231343A37720000E4B98470023237662
S2140040B070BD002101250C4A1360002B03D1002996
S2140040C0E1D01360DFE7D868844205D1002900D02C
S2140040D01360E268DA60D6E729000300EDE7C04621
S2140040E0293D0000D1600000504F002037B5040085
S2140040F0007E002944D0042801D0072840D1A36FB1
S214004100002B03D1464BA28D9A4239D0A28B231D99
S2140041100192628BA16A0092206D2200414DA84751
S214004120414B20009847414A13689C4202D1E368FD
S214004130136010E0002101253D4A1360002B02D1D8
S214004140002908D0F4E7D868844216D1002900D0A8
S2140041501360E268DA6001220025364BE5601A70CB
S214004160237E042B31D106332376334B1A681C602A
S214004170E260324B9847002045E029000300DDE767
S2140041800728F8D803F07AFD0429303939F7F740C4
S214004190638B002B19D02A4A13689C4202D1E3682D
S2140041A0136010E000210125214A1360002B02D184
S2140041B0002908D0F4E7D86884420BD1002900D043
S2140041C01360E268DA600023E360210001201D4BE3
S2140041D09847D0E729000300E8E721001A481B4B60
S2140041E0984721000220F2E721001048174B984715
S2140041F00120104B21001870E9E7154B2000984766
S2140042000523002806D03EBD2000114B9847002805
S214004210F9D10923237620000E4B9847ABE7C0461A
S214004220680B000001640000293D0000444F002098
S214004230504F0020404F0020584F0020F53100001E
S214004240544F0020853500004C4F00207940000078
S21400425019600000D160000010B5037E012B03D06A
S2140042601023827F134383770121014B984710BDAB
S214004270ED40000010B50800141E08D01189074B49
S21400428098472000064B98470024200010BD002BBE
S214004290FBD1044B98470400F7E7C046553C0000A6
S2140042A06D37000059420000F7B5866F071D737B17
S2140042B00400019300238367FD6F9D421CD001001C
S2140042C032000069A847051E1DD1019B9B0611D52B
S2140042D0A38D0F4A934201D00133A385FE6F002EB3
S2140042E008D0002321001A002069B0470A3001D107
S2140042F00A256D422800FEBD2B0001003200280072
S214004300044DA847DFE70A35F2D0A6670025F1E797
S214004310680B000075420000F8B5164D2B78013387
S2140043202B70154B1C682B78A21C002C00D1F8BDF6
S214004330D17F9942F9D0D3770122A37F134209D0C7
S21400434092181343A37720000C4B98470322A37FB1
S2140043509343A377A36FE768002B01D13C00E2E705
S2140043600023074E20003370064B98473378002B07
S214004370F4D0D6E7F2230020444F0020D16000009E
S214004380404F0020A9420000064B10B59847064A49
S21400439013780133DBB21370DB0701D5034B984764
S2140043A010BDC04619430000F1230020713D0000F7
S2140043B0F0B5037E85B004000F000A2B09D101007A
S2140043C01E4B1F489847210001201E4B984705B0FA
S2140043D0F0BD836A056D029303008C331E68036983
S2140043E0010003931848154B98470122174B206F7E
S2140043F01A70002801D0164B9847E06E002801D0AE
S214004400134B9847606F002801D0114B9847002F38
S21400441009D0A28B28000192628B231D009202997C
S21400442022000C4DA84721000120064B9847002E7D
S214004430CDD00A2103984942B047C8E7794000002A
S214004440584F002085350000444F0020404F002084
S214004450BD3C00000164000010B50121014B9847E7
S21400446010BDC046B1430000034B044A10681A68EA
S214004470101818607047C0460C000020484F0020F7
S214004480F7B506003B4D0120A8473B4F041E20D140
S21400449021003A4B38681B68002B52D1002C02D002
S2140044A02000374B98470120A847041E11D13A68D0
S2140044B0844601927F22334B00921B68002B48D122
S2140044C0002C02D020002E4B98470120A847041E3F
S2140044D035D0982200212C4B20009847220000253A
S2140044E02A4B6632667613805580A385E385FF23C4
S2140044F00622A3721A33FF33E386A31D6572DA879A
S214004500A31CDD870123261D5B42F287A3862300BA
S214004510053A4C331A801E4B98473B68A21C6362D0
S2140045201C4BA0651B782065A064E065D3771A4B0A
S214004530E577F3672300194A90331A609D712000CF
S214004540FEBD5A6A821A8A4201D311001C00DB683B
S214004550A2E7597E8E420AD3009A914207D8019A62
S214004560586A121A624502D394461C000091DB6812
S214004570A4E7C04669350000484F0020584F002089
S21400458059440000444F002095800000680B00004E
S21400459069440000F22300207542000000DD6D0033
S2140045A010B54020014B984710BDC046814400001E
S2140045B010B5094B040008009847002809D0838CE2
S2140045C0002B06D0283B1A1C9BB2A34200D9221C03
S2140045D094B2200010BDC0461D260000F7B5C36883
S2140045E00500587B1A7B00021043234B0C00012663
S2140045F09847304221D02000204B984700242C605A
S214004600F7BD507B137B000218431B4B9847304284
S2140046100ED0EF68787B3B7B000218430190184B66
S21400462030009847019B184380B23873000A7873AD
S21400463027682000134B98473C00002CDFD0E26828
S214004640114B507911790002084391791F680904CB
S2140046500843D1792B89090601432089DB194018C4
S214004660181ACED55B1A002BC9DDC91B89B2298161
S2140046706868064B9847C2E74F230000BD3C000021
S21400468049230000993C000014240020ED38000067
S214004690F7B5C74B07001B78DB0600D485E00300A0
S2140046A0C44A60331D88816D436D1068C24C1A1A67
S2140046B00FD4834202D12368CB1A0AD423689942C6
S2140046C032D1BE4B1B689A7BDB7B1B0213439D4299
S2140046D02AD2BA4B1E68F37BB27B1B0213433A0006
S2140046E060321380B27B9446F27B664612023243F7
S2140046F03E000092623632889446009A944502D272
S2140047006A4612883280AC4A78651268BA653A0002
S2140047109532002B00D03EE11078002804D13800F6
S21400472094300370013313703800A34BBE6C1A68C4
S2140047306430931B002B00DD52E100230380A04B66
S2140047401D381B88002B01D000F044FC3B00603372
S21400475069181B88BD6D5B19994201D000F03AFCC0
S21400476034217B5E002B01DA00F034FCB24201D02B
S21400477000F030FC0278531CDBB29A4200D2037081
S2140047800378032B00D80CE13A004C321188FB8EDC
S214004790CB189BB2994200D21380FB6E002B00D040
S2140047A0B2E1BA6B002A00D0FCE1854BB86A1C88DF
S2140047B0002C01D100F000FC3B7E062B01D900F056
S2140047C0FBFB7C4B1B68C21A012A00D517E20121AD
S2140047D0C91A091B0918002900DD10E2794C1100DE
S2140047E0606843899A4200DC07E2002503899B1A29
S2140047F09BB24289914200DDFAE1494209B2724B0E
S21400480098476C4ABB6A12680092228900998A18F7
S214004810D21A68492281E2680B60190A1371517135
S214004820190C1B0E9171D371624BBA6A19688B1AF8
S21400483001D500F0BDFB4B1CB88D9B1A1B1A002B34
S21400484001DD00F0B5FB914200D0C9E25D4DEB689A
S2140048502C89587B1A7B00025C4B10439847032335
S2140048601840431E9841564B2418A4B21C80BB8D9A
S214004870A3423CD2EB68587B1A7B0002534B104392
S2140048809847C30712D5EE68504B747B307B2402E2
S2140048900443200098473E2318404D4B98474D4B05
S2140048A01C40204380B23073000A7073BB8D2B818E
S2140048B0EB68587B1A7B0002444B104398478307EB
S2140048C002D52B89013B2B8129896868424B984782
S2140048D0EB682C89587B1A7B00023C4B10439847A8
S2140048E003231840431E9841354B24181C807B6FC9
S2140048F0002B00D192E1EB68587B1A7B0002334B09
S214004900104398470123184200D084E17A6F019340
S2140049100092009B002B3BD0264B1D68284B1A8824
S214004920009B5219D96848790C798B7900020443A8
S2140049301B041C430098CB7900891B062343C01830
S214004940101A00D4AAE1D21A002A21DD1D4C5B1BE6
S2140049502381E368587B1A7B00021C4B1043984760
S214004960830702D52389013B2381218960681A4B7E
S2140049709847E3682589587B1A7B0002134B10433F
S214004980984703231840431E98410D4B2D181D8051
S214004990009B7B6742E11378002B00D1C4E600231E
S2140049A0C1E6032B00D0F8E638000C4B9847F4E637
S2140049B0F823002014240020F423002018240020CC
S2140049C01C240020FC2300200B3700004F2300008F
S2140049D049230000FFC0FFFFED38000069650000B6
S2140049E0396D511A002900DD8BE00420B97F0142A1
S2140049F006D08143B97739004E31088802390880DD
S214004A003D00002146352970BD1C3E26AD5F3E1D8B
S214004A10F68FED10B81DAD19C5875E30009045883D
S214004A209BB203805B1943803B00473319703B7E83
S214004A30BA64032B0DD93E003B004C364E33358806
S214004A401B88F88EAB4210D9281880B2854200D257
S214004A5030803B6F002B0DD100233A6F9A424ED127
S214004A6001225242BA86FB7797E62900CD4B404397
S214004A709847E9E7DA68537910791B02034390797F
S214004A8000040343D07900061843C74B98473B6F92
S214004A9005001A89DB680192587B1A7B00021043D6
S214004AA0C24EB04703231840431E9841019BC018CE
S214004AB0BF4B1B68ED1A4519002DCDDC3D6F2B68EA
S214004AC03B67009B1B88002B0DD0EB68587B1A7B3E
S214004AD000021043B0470123184204D0009B009AFE
S214004AE01B88013B13806868B24B98473A006832CF
S214004AF01388181A1080B04B28009847A9E7BB8681
S214004B00B1E70023038048E6DA682668537910790F
S214004B101B020343907900040343D0790006184330
S214004B20A14B9847FB6E05001A89DB680092587BFC
S214004B301A7B00029D4B1043984703231840751BB1
S214004B40461EB041009BC018281A00D529E62368E7
S214004B503A6D9B1A002B00DD23E6FD6E2B68FB6684
S214004B60002B02D13A006A3213803E006436338846
S214004B70002B0CD0EB68587B1A7B00028B4B104343
S214004B8098470123184202D03388013B3380894B73
S214004B90686898473A0068321388181A1080864B5F
S214004BA0280003E7824BF96B1B68CB1A00D4FCE5A0
S214004BB0BC1C3E23E05E814B1968891AC210891A14
S214004BC089B2081800B20BB2E087002B01DA49421E
S214004BD00BB2391D3E240A5FC0109410121BD31866
S214004BE09BB2CB87BA1D1B18D3870023BB63DCE5BB
S214004BF003814581891A0068FBE55142FEE51B1AD0
S214004C0000D411E60223BA7F1343BB770CE6036891
S214004C107B67694B9847786F0028F8D1684B380057
S214004C201988684B1A68BB8D52185B1ABA62BB8526
S214004C30654B9847654B5A681189002903D064492B
S214004C400A6000225A60DB68587B1A7B0002574BCA
S214004C5010439847C30704D520235E4A11780B43B8
S214004C601370032501267C6F002C0DD0E268517965
S214004C7013790902194393791B041943D3791B0648
S214004C800B43B96A8B4240D00123BA7F1A4202D046
S214004C909A43130002221343BB77ABE0487B0B7B9F
S214004CA000021843414B9847019B184226D0474DB7
S214004CB0EB68587B1A7B00023C4B10439847022354
S214004CC018421BD1EE68444B747B307B24020443AD
S214004CD001989847204380B23073000A7073EB68DF
S214004CE02C89587B1A7B0002304B104398470323CD
S214004CF01840431E9841324B24181C80009B1C68A9
S214004D0018002D4B9847009403E62E490B60238924
S214004D100093507B137B00021843244B984728408F
S214004D20431E9841009BBA6AC318D318BB622389F6
S214004D300093E368587B1A7B00021C4B104398478D
S214004D402840431E9841009BC318B88DC31ABB85E4
S214004D5038001D4B984761680B89002B07D01C4B09
S214004D60186800281CD01D4B984700236360E36832
S214004D70587B1A7B000210430C4B9847304209D0F0
S214004D802023144A11780B4313703B7E042B01D169
S214004D9003333B76236820007B67074B984762E720
S214004DA01960E2E7CD7D0000592300004F23000084
S214004DB0F423002045390000993C0000484F0020AD
S214004DC01C24002014240020193C0000FC23002092
S214004DD00C24002010240020492300006339000022
S214004DE038007E4B98477D6F002D04D17C487D4B64
S214004DF098477867F7BD00247B4B1A68531E9C467D
S214004E00531C0093E96848790B79000218438B79A4
S214004E101B041843CB791B060343934211D17048F9
S214004E202B8902899A42E5D96E4B98470028E1D033
S214004E30002C0FD0206029006C4B9847DAE705005D
S214004E40E0E7002C08D1D01A3CD56548654B98475A
S214004E500028CFD07867EEE7E668E06876790079D4
S214004E6036020643E068807900043043E668F67947
S214004E70360630436646301A24D40098C01A0028F6
S214004E8020DC5748574B9847061EB3D0E268537944
S214004E9011791B02194393791B040B43D179524AAB
S214004EA009060B4311682289D218521A002A05DD1A
S214004EB0C91A89B2218160684D4B9847266029003F
S214004EC03000B9E728682C000028B8D1D31A002B88
S214004ED000DC8FE7487B0B7B00021843454B984766
S214004EE0C30700D586E73E483E4B98472860002813
S214004EF000D17FE7EA683C4C537911791B021943CD
S214004F0093791B040B43D1792A8909060B43216840
S214004F10D218521A002A05DDC91A89B22981686892
S214004F20334B9847344BB96A1A882368D218BB8D1E
S214004F305B189A4200D85DE72B68DB68587B1A7BC3
S214004F4000022C4B10439847C30713D52B68DE6826
S214004F50284B747B307B24020443200098473E2372
S214004F601840264B9847264B1C40204380B230738F
S214004F70000A70731C4B1A68BB8D9A1ABB6A9B1882
S214004F802A6813812B6819895868194B98472B682B
S214004F901C89DB68587B1A7B0002164B1043984727
S214004FA003231840431E9841134B2018188021E70E
S214004FB038000A4B98471DE70B4B1B681A1A06D495
S214004FC00133BA8D1B1A9B1A002B00DC12E7BA7F3E
S214004FD0022360E600230370FFF7DFFB7D6000001E
S214004FE0FC230020D93C000014240020DD450000EE
S214004FF0ED3800004F2300001C2400204923000049
S214005000FFC0FFFFF8B51F4F05003C681E4E607BD3
S214005010237B00021843B047000B80B205280ED948
S2140050203B681434587B1A7B00021043B0470023B9
S214005030000B05388000154980B2984200D8F8BDAC
S214005040E25C012A09D0002AF9D0E618022A07D025
S2140050507278002AF3D09B1800E001339BB2ECE78D
S2140050607278042AEBD1DA1C8242E8DAB778F27852
S2140050703F023A43561EB6B28E4200D9044A2A80F0
S2140050800433EBE7182400204F230000B30500008C
S214005090B40500000F22F0B543680E001978BF4C27
S2140050A0114089005B18494287B009B2BC4D070021
S2140050B02360A847002800D039E13B89132B00D88D
S2140050C035E1B84B31001868B74B9847002800D038
S2140050D02DE1B44B1B680293F023029A1340E02B99
S2140050E000D124E12368B14E587B1A7B000210439E
S2140050F0B0470421000B49424143380009B2A84793
S2140051000590002800D012E1256868782B78000208
S2140051101843B0472870000A68702568E878AB78AE
S21400512000021843B047A870000AE87025686B793B
S21400513028791B020343A87900040343E879000694
S21400514018439B4B9847030A6B71030CAB71030E15
S214005150EB71984B2871256818606B7A287A1B02C9
S2140051600343A87A00040343E87A00061843904BEA
S2140051709847030A6B72030CAB72030EEB728E4BEE
S214005180287225681860E87BAB7B00021843B0479E
S2140051902368A873000AE873587B1A7B0002104342
S2140051A0B047C3B29C463F2362461340834A03215E
S2140051B01370634619404B1E99416A463B89C918CD
S2140051C08BB2029312897E4B05991A807D4B7E4ADC
S2140051D01E682368340012680492724A12680392AA
S2140051E0002C02D1794A1068A6E05A781D78A08B68
S2140051F012022A43904258D1DA789D78608B1202C8
S2140052002A43904251D16268049882424DD1226866
S2140052100398824249D1002904D0E268CA60694AEC
S214005220E660146000216A4A6A4D11603889D360CE
S214005230694B108119606346576029701B0703D5B8
S21400524001237A7B13437B73A36F002B00D02BE1E3
S2140052505A4E624B32781C60530700D540E1022359
S214005260A17F1A4205D0227E0B43023A012A00D9BA
S214005270C4E1CB0602D45A4B1B68636223000022AB
S214005280200096331A703630564B9847207E0238E8
S214005290072800D93DE102F005FD5101DC013B0283
S2140052A07702C5023B02E30203032100E46897E7A6
S2140052B05A781978858B12020A4395423BD1DA78E0
S2140052C09978448B12020A43944234D1049A416876
S2140052D08A4230D1039A01688A422CD163465B0722
S2140052E025D463469B0713D5324B1968836ACB1ABD
S2140052F014D4828D9B1A002B10DC029B0195591842
S21400530000942D48304B274A0068374CA0470EE0E3
S2140053106346DB0702D5324B1B684362029B002BB9
S21400532005D00223827F13438377304B984738009B
S2140053302F4B9847D2E0C0680028B9D12D4A116893
S2140053400D00002D18D1587B1A7B0002174B104316
S21400535098474307EBD4114B16491A68184B09684F
S2140053601B881078591853781B0203430193D3788F
S21400537090781B02034326E3DA789E786C8B120241
S2140053803243944207D12A68039C944200D1FDE23E
S214005390002A00D1FAE22800ED68D2E7182400209F
S2140053A00B370000182700202D2900004F2300008F
S2140053B05923000014240020F4230020F8230020A2
S2140053C01C240020444F002010270020584F0020A7
S2140053D0FC230020102400200C2400205C4F00201A
S2140053E0484F00200550000001640000D160000016
S2140053F06D3700004C4F002063469B0797D5687EAC
S214005400C54B9847041E92D0C44B1B6803606B8B39
S2140054104383C34B1B684360C24B1A6853781178AA
S2140054201B020B43838303230376BF4B19684B1C75
S21400543083620363D37B907B1B02034320006030B0
S2140054400380907BD27B0139120202432000623037
S214005450028022004E321380732261652B6923611D
S2140054606B6963612B7A93432372B04B1A681C6096
S214005470E260AF4B984701222000AE4B36301A70E0
S214005480AD4B9847211DAD4BE08E98471221E08624
S214005490AB4B20009847002804D031002000A94BD1
S2140054A0984744E7200040E72000A74B98470A307B
S2140054B008D0A36F002B00D1CAE6A44B1B88002B94
S2140054C000D1C5E60024A24BA24D1C606868A24B22
S2140054D01C60A04202D0A14B98476C6007B0F0BD9C
S2140054E0237E022B0CD19E4B226D1B689A4210D154
S2140054F008232A78134301222B70A37F93437DE071
S214005500894BA26A1B689B1A03D4A28D9B1A002B98
S214005510EEDD944E3278130700D4D3E123008C33AB
S2140055201B680B21002B00D0DAE121007F488E4B50
S2140055309847210001208D4B9847C3E71222337805
S2140055401340934269D1236FDA68537910791B02AE
S2140055500343907900040343D07900061843844B34
S21400556098477F4B01301B68984256D1220066321E
S2140055701388013313806C4BA0641A68531CA36213
S2140055802363684B013A1968CB7B887B1B02034375
S214005590200060300380887BCB7B21001B02034306
S2140055A062310B80042362652376E118E08E634B3C
S2140055B098470A23220043434E32E0861380230096
S2140055C04C331A88012A01D1400080B2220018808C
S2140055D068321388013B1380206F03682367654B8E
S2140055E09847236F002B0BD1013BA386230008337B
S2140055F0DB6F002B0AD10223A27F1343A37788E731
S214005600220000234632A3861370EFE70022210013
S214005610206998470A30EED154E73378DB0600D489
S21400562077E7404B40491A68484B09681B88107852
S214005630591853781B0203430193D37890781B02C2
S214005640034347480093354A354B00684A4DA84700
S2140056505FE73378DA064DD5414B1868A36CDB4319
S214005660C34233D4236DC31A002B2FDC04232376C6
S2140056706369002B03D12000404B984722E70022A5
S214005680210020699847002802D00A30F3D119E794
S21400569026003B4B4C362000378898472200643261
S2140056A01388002B01D0013B1380E38E012F01D11C
S2140056B05B009BB233802B789B0600D429E702233D
S2140056C0A27F1343A3770723237622E7154B1649B9
S2140056D01A681E4B09681B881578591853781B02E0
S2140056E02B430193D37895781B022B4300930B4AE8
S2140056F00B4BABE79B0700D40BE70B4AA36A126879
S214005700013B934200D004E720001E4B984700E779
S21400571020001B4B9847CEE7814400001827002046
S214005720102700201824002014240020444F0020B6
S214005730F5310000404F002005500000B145000044
S2140057405D5F0000B1430000A94200001C24002059
S2140057505C4F0020FC2300200C2400206D37000046
S214005760F423002010240020794000008535000036
S21400577059230000993C00000164000059440000D1
S21400578091460000ED640000904B200098472B786F
S21400579010229B063AD53378A17F134231D08C4B2A
S2140057A0226D1B689A422CD102230B43A37720005C
S2140057B0884B9847884A13689C4202D1E368136076
S2140057C010E000210125854A1360002B02D1002934
S2140057D008D0F4E7D868844210D1002900D01360BE
S2140057E0E268DA6001227E4B1A700A2323767D4B2C
S2140057F01A681C60E2607C4B98478AE62900030022
S214005800E3E702230B43A37708235DE733781342CD
S21400581000D17EE66E4B226D1B689A4200D078E679
S214005820062351E7694B200098472B789B0600D447
S2140058306FE60223A27F20001343A377654B9847A9
S214005840654A13689C42B9D000210125634A13605B
S214005850002BBCD0D8688442BFD029000300F7E7ED
S2140058605A4B200098473378DB0600D451E6584B55
S214005870226D1B689A4200D04BE6564B2000984794
S214005880554A13689C4299D000210125534A13605B
S214005890002B9CD0D86884429FD029000300F7E7ED
S2140058A04A4B20009847102332781A4200D130E63F
S2140058B0474A216D1268914200D02AE62A7813439F
