:10000000905100208D2A0000892A0000892A0000D2
:1000100000000000000000000000000000000000E0
:10002000000000000000000000000000892A00001D
:100030000000000000000000892A0000892A00005A
:10004000892A0000892A00006D2A0000E1060000CC
:100050005D030000892A0000892A0000892A000027
:10006000892A0000411300005113000061130000B1
:10007000711300008113000091130000892A000011
:10008000892A0000892A0000D125000031260000BD
:10009000912600000000000000000000892A0000F6
:1000A000892A000000000000892A000000000000EA
:1000B0000000000010B5064C2378002B07D1054B3B
:1000C000002B02D0044800E000BF0123237010BDC4
:1000D00030020020000000002C3D0100084B10B54C
:1000E000002B03D00749084800E000BF0748036819
:1000F000002B00D110BD064B002BFBD09847F9E731
:1001000000000000340200202C3D01002C3D0100C5
:100110000000000070B5094B00209847FA21084CF8
:1001200089000500A047074B074918602800A04731
:100130000522064B1860064B1A6070BD9D22000018
:100140002D0501000000002040420F0004000020A7
:1001500010E000E0802130B50025084B084A1C68FB
:100160004902013808D3002CFBD054609560136815
:100170000B42FCD00138F6D230BDC046040000204E
:1001800010E000E0802130B50025084B084A1C68CB
:100190004902013808D3002CFBD0546095601368E5
:1001A0000B42FCD00138F6D230BDC0460000002022
:1001B00010E000E00B4B1A68002A05D1EFF3108124
:1001C000002905D008490A701A6801321A60704780
:1001D00072B6BFF35F8F054A1170034A0131117087
:1001E000F2E7C0464C020020500200200800002028
:1001F000084B1A68013A1A601B68002B09D1064B9C
:100200001B78002B05D00122044B1A70BFF35F8FBF
:1002100062B670474C020020500200200800002007
:10022000F0B583B001256B460026294C69461320A2
:100230005D709E701D70A0478023264F1B03BB611D
:100240006B4669461C201E705D70A0476B46694670
:1002500052205D709E701D70A04769463E20A047E9
:1002600069463F20A04769462F20A04769461420D1
:10027000A0478022184BD2029A618022174BD205E8
:100280009A61802212069A61802212029A6180236A
:100290005B03BB616B46694653201E70A0478023F9
:1002A0000F4A9B03116A01AC0B43136204220D4BEE
:1002B00021001A800523A570657009200A4D23705E
:1002C000E670A84721000C20A84703B0F0BDC04647
:1002D0001D050000004400410045004180440041EC
:1002E0000004004000540042992400001723002A13
:1002F00001D018007047064A89008B58002B03D0A4
:10030000834203D01D23F4E78850F2E70023F0E78F
:10031000482100201723002901D0180070471F280A
:1003200005D8163B8340034AD3600023F5E7C96034
:10033000FFDEC046001800401723002901D0180036
:1003400070471F2805D8163B8340034A936000235B
:10035000F5E78960FFDEC04600180040F8B50023CD
:1003600001260B4C0B4D0C4F237032009A4029692B
:10037000114206D02A619B00DB59002B00D0984720
:1003800023780133DBB223700F2BEED9F8BDC046C2
:10039000442100200018004048210020402110B5D1
:1003A000144A82B0936905200B439361002301A98D
:1003B0000B70114B9847114B052098470122104CA8
:1003C00023781343237063785BB2002BFBDB40225E
:1003D0000C4B00210C48984710220C4B1A602378D4
:1003E0000E3A1343064A237053785BB2002BFBDBB3
:1003F00002B010BD00040040252300008923000046
:1004000000180040D12101004821002000E100E057
:10041000002301220360436083720233027242723E
:10042000C3727047F0B500230C0083B001A94B7074
:10043000CB70237905000B70237A20788B70154BD5
:10044000984700201F2D00D813480722A37A2A407E
:100450009200E77A002B01D008231F430F26974014
:1004600096403A00EB089B00C3189969B1430A43D0
:100470009A61637A002B06D10122AA404369934313
:10048000436103B0F0BD0123AB40426913434361B4
:10049000F7E7C0469924000000180040010004203E
:1004A00030B51B4AD3690343D3612023194AFF3374
:1004B0001383137D0130DB0700D430BDC0240B78DB
:1004C000A4001B0223401E248D7848786D002C4028
:1004D00080252343C4012343CC78ED02A4042C409F
:1004E0002343C0240979A4020904214008240B43B2
:1004F0005360936808495B035B0F9C400C809368D2
:1005000008714B80108BC005C00F0001D5E7C046B5
:10051000000400400040004154020020802200B549
:1005200083B001AB1A700A785A704A789A708A7848
:100530001900DA70014B984703B000BD9924000000
:10054000036880220820074988509A7A52B2002A0C
:10055000FBDBC12202219A711A721A888A431A801F
:100560007047C04600E100E030B501602021150071
:100570003F4A83B0936904000B439361022301A9AE
:100580000B7004203B4B984704203B4B98470820B6
:1005900080223A49236888509A7A52B2002AFBDBBB
:1005A000C12202219A711A721A888A431A80002283
:1005B000A282E2829A7A52B2002AFBDB01211A88D7
:1005C0002F480A431A80AA78227129790460288862
:1005D00061711880002A25D01720012A20D11A889D
:1005E00092B21A80EA78002A03D080201A88024347
:1005F0001A809A7A52B2002AFBDBA8689A7A52B221
:10060000002AFBDB98610020002909D0802259884C
:10061000D2010A4380215A805A8809020A435A802B
:1006200003B030BD04201A8802431A80EA781330E0
:10063000002AF5D19A7A52B2002AFBDBA8689A7A8E
:1006400052B2002AFBDB0F4A90420ED99A7A52B27C
:10065000002AFBDBE8689A7A52B2002AFBDB094ADF
:100660009042D0D880B25883CDE780B21883EDE7AE
:1006700000040040252300008923000000E100E081
:1006800088210020FFFF0000022A07D00379002BF9
:1006900010D0012B10D11633012A09D8931C9B00CE
:1006A000195001239340818A0B439BB2838200231C
:1006B00018007047022AF1D91723F9E710B504682A
:1006C000022909D0012203238A401340E371C38A1F
:1006D00013439BB2C38210BD80230422E371F6E76B
:1006E00010B5154B1A68D18A1468938A207A19407C
:1006F000E379034058B2002811DB0120184206D0EC
:10070000084201D0936898470123237210BD02204C
:100710001842FBD008420CD102232372F6E74B07A4
:1007200002D480232372F1E7136998478023237250
:10073000ECE7D3689847EFE788210020F0B55746EB
:100740004E464546DE468946E0B5056883B02B68CF
:1007500049881B01DB0F01934B465F7A002F17D0AE
:100760009A7A80236C68DB0223436B6001246A62FF
:100770000023022607E02A7E164207D101330289B0
:100780009BB29A4202D92A7E1442F4D001232B76DE
:100790006B68804A13406B604B461B7A002B31D04C
:1007A0004B461B88BF035A009C4680233A431B02DA
:1007B00013436B6201240023022608E02A7E1642BE
:1007C00008D1013302899BB29A4200D8DBE02A7E2D
:1007D0001442F3D06B686F4A13406B6002232A7E89
:1007E000134200D1C3E02B766A8B134200D09EE007
:1007F000634678221B0A1343773A5B0017431F4373
:100800006F6207E04B461B88BF035B001F43012359
:100810001F436F6200230124022608E02A7E16424D
:1008200008D1013302899BB29A4200D897E02A7E10
:100830001442F3D000230093019B002B00D06DE005
:100840006B68544A13406B60009B002B5ED12A7E7C
:100850000233134200D185E02B766A8B134266D1B6
:1008600001394D4A8BB29C469246202293466246FD
:100870000023AC46072101260227150055452CD040
:1008800062465C46528B144251D0C27A002A04D090
:10089000019A002A4ED0012D4ED00468E26911421F
:1008A000FCD15A1C92B2282490466246125D4C46F6
:1008B0006468E2540268002307E0147E274207D1EF
:1008C000013304899BB29C4242D9147E2642F4D063
:1008D0004346013DADB25545D2D19846837A65462F
:1008E0000268002B08D00721D3691942FCD1C0232C
:1008F00069689B020B436B600721D3691942FCD1E5
:100900002823EA5C4B4641465B685A54009803B082
:100910003CBC90469946A246AB46F0BD012900D0AA
:100920008EE780236A68DB0213436B608CE7412308
:100930000093EBE7002DB0D1624654688022D202CA
:10094000224398466446013D6260ADB24346C2E729
:1009500012230093837A6546002BCDD0C3E7122380
:10096000009369E76B8B5B0700D479E703E06B8B3F
:100970005B0700D43CE7C0236A689B0213436B60AB
:1009800018230093C2E76B68024A13406B6012237E
:100990000093BBE7FFFFFBFFFFFF0000F0B54546FC
:1009A000DE4657464E46E0B54B888C4698460721B2
:1009B0000268D3691942FCD163465E7A002E17D0D3
:1009C000997A80235468DB022343536001245162E7
:1009D0000023022507E0117E0D4207D10133018972
:1009E0009BB2994202D9117E0C42F4D001231376B6
:1009F00053683F490B40536063461B7A002B4BD032
:100A000063461B88B6035B001E4380231B021E4304
:100A1000566200230124022507E0117E0D4207D112
:100A2000013301899BB299425DD9117E0C42F4D009
:100A30000223117E0B4236D01376518B0B423CD1F0
:100A40002023994608339A46243B00210727012595
:100A500002269B46884548D04C46538B1C422CD0DE
:100A6000D3691F42FCD1634654465B685B5C1355F7
:100A7000002307E0147E264207D1013304899BB28C
:100A80009C4222D9147E2542F4D05C46538B01311E
:100A90001C42DFD01E2119E063461B88B6035B00B1
:100AA0001E435662B5E7538B5B07C9D5C023516817
:100AB0009B020B435360182100E0412108003CBC1D
:100AC00090469946A246AB46F0BD1221837A002B90
:100AD000F4D00720D3691842FCD1C02350689B0290
:100AE00003435360EAE71221E8E70021EEE7C0463E
:100AF000FFFFFBFFF0B5DE4657464E464546E0B5E4
:100B0000050001279D4B89B02960080014008A4622
:100B1000994698473E00831C9E403300984A143003
:100B2000116AC6B20B431362237B06AA137011002D
:100B30003000944B98473000934B9847934B207B61
:100B40000021984753461B681C209B0706D509B017
:100B50003CBC90469946A246AB46F0BD53461B6846
:100B600017383B409846F2D15246143313602B6835
:100B700007AE18009A46C84780233370434600905A
:100B8000E069B7707370F370276A002800D1ACE099
:100B9000022330707370000C7D4BC0B231009B4655
:100BA0009847002F00D1A5E0022337703F0C310099
:100BB000F8B299467370D847A38A8021EB80E38A04
:100BC0002B81237E002B00D181E0A268236913438F
:100BD0000B432421615C002902D08021C9050B430D
:100BE000A16A0B432C21615C002979D08022120577
:100BF00013432D22A25C002A02D080221204134348
:100C00002E22A25C002A02D08022D2031343524635
:100C100012680098134352461360802314305B001F
:100C2000FA255360C0B25B4B98472368AD005D4323
:100C3000594B05909B469847009001916800D84712
:100C400002900391208ED847544B060099460F001E
:100C500000980199524A534BC84702000B003000DC
:100C60003900C8470022504B504FB84706002800B3
:100C70000F00D84702000B0030003900C8474C4D28
:100C800002000B0000980199A847029E039F474D60
:100C900032003B00A8470022464B454DA847320092
:100CA0003B00454DA847454FB8478023A268060042
:100CB0009B049A4224D04020FF2E00D947E700230E
:100CC00042461A4353461643DE6000203FE74A4639
:100CD0003B4B9B781A4013005A1E9341D90174E78D
:100CE000802189048A4284D180E700215046354B17
:100CF00098474DE701215046324B9847070053E78C
:100D0000FA2361689B004B430098019998460200C2
:100D10000B00264CA047040040460D00D847002297
:100D2000294BC84702000B0020002900224CA04795
:100D30000022204B1E4CA047B847041E13D0234B63
:100D40004146059898470238031B4020FF2E00D9E2
:100D5000FDE6FF2B00D9FAE6FF221B041204134024
:100D600098462306ACE743465900059B481E9C461F
:100D7000164B60449847431EE7E7C04661120000E7
:100D8000000400402523000089230000B910000062
:100D900099240000B923000089200100F514010006
:100DA00095D626E80B2E113E000024406D08010068
:100DB000F51901000000F03F8D0E01002120010017
:100DC0000020004101110000000008402D05010035
:100DD00007210368DA691142FCD10721DA6911425F
:100DE000FCD1832202211A751A761A688A431A6086
:100DF0000531DA691142FCD101221A607047C04600
:100E0000012310B58372C372014B984710BDC046D1
:100E10003D070000002310B583720133C372014BFC
:100E2000984710BD9D09000010B5490840230024D3
:100E3000814202D2180010BD1C00631C091A9BB22B
:100E40008842F9D94023FF2CF4D814800023F1E71D
:100E5000F0B5DE46454657464E46E0B587B0934668
:100E600010AA14780200884662434021424507D9FF
:100E7000080007B03CBC90469946A246AB46F0BD80
:100E8000002B5FD10200002120008A4CA04743467E
:100E900000930023202198468A461F3900278C465C
:100EA000414681460193D846002200233F2002910B
:100EB000BB460FE0BD4252D0A346009C019D02916B
:100EC000BD4234D8BD4250D011001C000A0023009E
:100ED000013832D32021494241183AD464468C402B
:100EE00021006446844092185B41049466464C4657
:100EF00016430C4200D0320014001D0016001F00E3
:100F0000009A019BA41A9D4122005C462B00049D7F
:100F100025432C00029D2943019DBD42CAD95C4650
:100F20000299A346009C019D0291BD42CAD931009D
:100F30003C000A0023000138CCD25F467F42C34602
:100F40003F0C02E00027012B15D05B4600211F80DB
:100F50008EE751466446091ACC402100C1E7009D46
:100F6000B542A9D95C460299DBE70099B142ABD9F9
:100F700031003C00DDE7220000234E4C0021A04759
:100F800001240B00002102008C46002000213F2696
:100F9000A14618E004000D0020002900A41A9D417C
:100FA00000940195644627438B421ED81BD0BC4653
:100FB0008B4215D812D00098019982460C005046F9
:100FC0002100013E13D34F46001849414C46B7401B
:100FD000454604432F42DDD00D00DDE78242EAD9C9
:100FE00082460C00EBE78242E1D96746DFE78020CA
:100FF00040218001874200D93AE74146490F0C0061
:101000003F264146B446C9003E3E0D00B046002191
:101010005E46894605970020674600210496A24651
:10102000AC4618E004000D0020002900A41A9D41E0
:101030004E4602940395009C344326008B4228D8E8
:1010400025D0B1468B421FD81CD0029C039D2000A6
:101050002900013F24D3202464423C191BD4454677
:10106000A54000184941444646460443BE40A346B5
:10107000644600963440564635402543D2D05C46FF
:101080000D00D1E78242E0D904000D00DFE7824283
:10109000D7D94E46D5E720244546E41BE540E0E796
:1010A000049B059F9B46FB00F31ADBB25B031F43C7
:1010B000BFB24AE71908010030B50E4C83B023785F
:1010C0000500002B06D0002904D1637883420FD09D
:1010D0001D200BE001A91320074B0D70984713202A
:1010E000064B9847012300206570237003B030BD84
:1010F0000020FBE75C02002025230000892300007C
:101100003A4B984243D00AD9394B984217D0394BC1
:10111000984232D0384B98421BD000207047374B52
:10112000984220D0364B9842F7D1012943D000296C
:101130003FD002293BD00329EFD13248EEE7012905
:1011400031D000292DD002292FD00329E5D12E48F6
:10115000E4E701293FD000293BD0022937D00329F9
:10116000DBD12A48DAE701293DD0002939D002290C
:101170002BD00329D1D12648D0E7012923D000293B
:101180001FD002291BD00329C7D12248C6E7012955
:1011900025D0002921D002290FD00329BDD11E4816
:1011A000BCE71E48BAE71E48B8E71E48B6E71E4827
:1011B000B4E70320B2E71D48B0E71D48AEE71D487D
:1011C000ACE71D48AAE71D48A8E71D48A6E71D484B
:1011D000A4E71D48A2E71D48A0E71D489EE71D485B
:1011E0009CE71D489AE71D4898E7C046001000425A
:1011F00000180042001C0042001400420008004297
:10120000000C004203001F00050052000300130001
:10121000030007000300190002000F00050053003F
:1012200005003F0005003E0003001E000300010012
:1012300002000E0003001800030016000300170050
:101240000300060003001200030010000300110059
:1012500002000C0002000D00030004000300050062
:1012600070B586B001006846154B70CB70C070CB6E
:1012700070C0009B8B4211D0019B8B4211D0029B0E
:101280008B4211D0039B8B4211D0049B8B4211D017
:10129000059B00208B4210D006B070BD0020C0B26C
:1012A000FAE70120C0B2F7E70220C0B2F4E703205A
:1012B000C0B2F1E70420C0B2EEE70530C0B2EBE700
:1012C000003401007047C046F8B50C4E0500337875
:1012D0000F000B4C002B0DD10A4B182223606360CA
:1012E000A360E360236163610021074B07489847CF
:1012F00001233370AD006751F8BDC0465E02002087
:1013000060020020C5120000D121010090210020C0
:1013100000B583B06A46092313700133537001335B
:1013200093700133D3700133137101335371034B45
:1013300098476B46185603B000BDC04661120000C6
:1013400010B5024B00201B68984710BD60020020BA
:1013500010B5024B01205B68984710BD6002002069
:1013600010B5024B02209B68984710BD6002002018
:1013700010B5024B0320DB68984710BD60020020C7
:1013800010B5024B04201B69984710BD6002002075
:1013900010B5024B05205B69984710BD6002002024
:1013A000F0B54E464546DE465746E0B50500296095
:1013B0000B6887B00E0014009B070ED401230F6842
:1013C0009A461F400520002F00D1E0E007B03CBC4A
:1013D00090469946A246AB46F0BD136B906A98467C
:1013E000536BD76A9946002800D1C0E0431C1ED039
:1013F0000204000C130CC0B29B46C109430900292A
:1014000000D0BFE01F3101408C46CF49DB018A4646
:10141000614653445918403109788A4601215246A1
:10142000114200D040E180235B4500D09BE0002FBB
:1014300000D1A1E07B1C19D03A043F0C130CF8B288
:101440009A46C1094309002900D09BE0BE491F27E5
:101450008C460122DB0107406344D91940310978E9
:101460000A4200D030E1802353457CD14346002B13
:1014700000D141E14346013319D043461A04130C0D
:101480009A464346180CC0B24309C1097AD1AE4905
:101490001F278C460122DB0107406344D9194031E4
:1014A00009780A4200D01BE180239A455BD14B4664
:1014B000002B00D126E14B46013327D04B461904BF
:1014C0000B0C9A464B46180CC0B24309C20959D1BD
:1014D0009D4A1F279446DB0163440740DA194032D6
:1014E00012789046012294467F32914661464246E8
:1014F000114209D07F08DB1930331A78D2B2014289
:1015000000D105E113099946CA452CD113208F4B10
:10151000984722780027012A00D129E1A268636850
:10152000217C1343E268607C13433B430A0000289C
:1015300001D080200343A07C002802D080229202A8
:101540000A43E07C002802D0802080000243207DF6
:10155000002802D0802080010243022730683B43EC
:10156000834200D1D8E000231C202B602EE700210D
:101570003000774B984739E701213000744B98478A
:10158000070057E71F23184040300378FFDE0800AC
:10159000704B98475246704B196A9C46831C9A4080
:1015A000130062460B43136224236A469946E35CA8
:1015B00014301370C3B2984669461800674B9847B9
:1015C0004046674B98474B460021E05C654B984787
:1015D0002378012B00D1A8E02A68914601AA904601
:1015E000802241460A704F7042465146D770917032
:1015F000002B00D19370A36A02AF0293E36A002626
:101600007B60236BBB60636BFB60514B9B46564B0F
:101610009A46B300F858F1B2002842D0431C05D0D6
:1016200043461870000CC0B24146D0470136042E24
:10163000EFD100216F4623786B71227CAA71A67CC2
:10164000EE71207D79802872012B00D1A3E0A16882
:101650006368657C0B43E1680B431100002D1DD1CD
:10166000424DAD78AD0719D4002E02D080218902F9
:101670001143E27C002A02D080229200114300280C
:1016800002D08022920111434A461268002013437F
:101690004A46136053680B43536097E680252B43FB
:1016A000E2E74846D847B9E76246520894466344A1
:1016B00030331B78DBB29C461B09014200D0B3E6F5
:1016C0000F2362461340AFE67F08DB1930331978E9
:1016D000C9B20B09024200D0C6E60F230B40C3E695
:1016E0007F08DB1930331978C9B20B09024200D0E8
:1016F000DBE60F230B40D8E602213000144B98475D
:101700008046B7E603213000114B98478146D2E668
:101710000F231A409146F7E67368934200D022E700
:10172000237800206B71A97150E60C2132680A43BE
:1017300032602A68914601AA9046802241460A708A
:101740004F708B70CF7056E700440041B923000002
:101750000111000061120000000400402523000078
:1017600089230000B91000009924000000200041E6
:101770000100154B02AAA069984703001720002B0F
:1017800000D023E66A46337B127A05309A4200D0B5
:101790001CE60C37C2E60D4B2868984714300C4BFA
:1017A000C0B29847084B0100BA1CA06998470300D3
:1017B0001720002B00D009E64A46BB781373227C21
:1017C000A67C207D43E7C046290E00006112000080
:1017D000B9230000F0B543791524012B01D0200076
:1017E000F0BD047A002C38D1002A38D04A78002A7B
:1017F00044D005682A7E1A400DD108784109C409F1
:101800003AD11F3202409340CA01254905348C4623
:1018100062449361E3E70E787209F7093DD11F2412
:1018200034401E00A64034001D4ED201B44662442E
:1018300054612A7E8978134200D0A962C379002BB3
:101840000BD104222B7E1A42FCD02B7E1A4204D0EC
:101850006B8B5B0700D56A83AB6A0024BFE708780F
:101860004109C40908D11F2202409340CA010C4912
:101870008C4662449361B2E79261FFDE08784109C9
:10188000C40908D11F2202409340CA0104498C4672
:1018900062445361A3E75261FFDE6461FFDEC0462C
:1018A00000440041F0B54546DE4657464E46E0B599
:1018B00005000C0091B029600800BC4F9046B84765
:1018C0000123226806000520134206D011B03CBC5B
:1018D00090469946A246AB46F0BD022122681730D9
:1018E00011408A46F2D1B01C8340B14A1436116AC5
:1018F000F6B20B4313622D23994643464A469B5C3E
:101900000AA90B703000AB4B98473000AA4B9847A0
:101910004A4643460021985CA84B98474346DB7AE9
:1019200042466B712423D35CAB712523D35CEB71EE
:10193000D37E2B72137F6B722B6818009946B847C1
:1019400053460CAA1380434602921B8A14309B46CE
:101950008023DB019B4500D1CBE000D8FCE0C02315
:10196000DB019B4500D105E180231B029B4500D094
:10197000FBE0032309930023089343461B68424678
:1019800003934346DB68049343465B6905934346F0
:101990001B7E06932623D35C079353689A46002B3D
:1019A00000D1C9E080235B059A4500D1A9E0272337
:1019B0000026D25C43465B7E002B03D0404649465E
:1019C000807E887348460399868104980143059870
:1019D0000143504601435846014306980002014323
:1019E000079840070143002A01D1043211434246BF
:1019F000127F9B02520213434246527F404612021C
:101A000013432422825C520413432522825C807A91
:101A1000120413434246D27A1043184343461B89AB
:101A2000FF2B00D1ABE080225204114318432C233A
:101A30004246D35C002B03D1614B9B789B0701D5B9
:101A4000802319432A68D369002BFCD14B46586088
:101A5000D369002BFCD14A46116008A94B73CB73A4
:101A60008B7343461B6B80220C9343460A735B6B5C
:101A7000029A536043469B6B93604346DB6BD36093
:101A8000002398464F4B9B464F4B9A4623004446B3
:101A90009846029AA300D058E1B200282ED0431CE9
:101AA00005D008AB1873000CC0B20BA9D0470134A5
:101AB000042CEED1280000211822444B0C3098470A
:101AC00000220023EA85AA626A62AA853032AB54FA
:101AD0000132AB540132AB540132AB542868B847E1
:101AE00004003B4B3B4998473B4BA400E55000208A
:101AF000ECE608230993002308933EE74046D847C5
:101B0000CDE727234246D25C0026002A00D051E7C9
:101B100043461B6AC0B21E00304B9847029A010030
:101B20002F4B30009847002800D0CFE6029B42465A
:101B30001E882723D25C3DE727234246D35C002B37
:101B400026D041464046099B029A0093896A089B29
:101B5000244E006AB047E6E780239B019B4504D1F1
:101B6000102309930F3B089307E7102309930023E1
:101B7000089302E708230993073B0893FDE64346D1
:101B8000DB7E002B00D152E78023DB0419434EE7B4
:101B9000136AC0B21E00114B9847099B01000093C5
:101BA000029A089B30000F4EB047BCE7611200005C
:101BB000000400402523000089230000B910000024
:101BC000002000410111000099240000D1210100F2
:101BD000C91200007D1D000090210020B9230000E3
:101BE000290E0000510E0000C2791C23002A01D1E9
:101BF00018007047C28D173B002AF9D10268118581
:101C00000221137E1942FCD00023F1E710B582793E
:101C100003001C20002A00D110BD9A8D1738002A1D
:101C2000FAD11B6804321C7E2242F5D0588BC0B218
:101C3000840605D00224044206D05C831A20EBE718
:101C40001B8D00200B80E7E7024202D05A831E2042
:101C5000E2E70122024202D05A831320DCE710227D
:101C6000104202D05A834220D6E720221042E7D009
:101C70005A834120D0E7C046F0B5DE4657464E466F
:101C80004546E0B5172383B0002A07D1180003B0FA
:101C90003CBC90469946A246AB46F0BD8379002BEA
:101CA00001D11C23F2E70225AB46013DAA460F35C0
:101CB000A946314D00260423A846013A046892B291
:101CC000257E2B4207D12C4D02E0013D002D0AD08C
:101CD000277E3B42F9D08579002DE2D0858D002DFD
:101CE00003D00523D2E71223D0E705682F7EAC4648
:101CF0003B42F6D06F8B3F25FFB23D4207D05D4699
:101D00003D421BD05B4665466B831A23BEE76546A2
:101D10002D8D771CBFB2ADB201978D554779012F3C
:101D200006D0019E013A92B24245C9D10023ADE7E7
:101D3000019F02362D0AB6B2CD55F3E73B4203D0E0
:101D400065466B831E23A1E755463D4204D05346AA
:101D500065466B83132399E74D462F4204D04B46CB
:101D600065466B83422391E720252F42CFD0202365
:101D700065466B83412389E7FFFF0000F8B5624B9E
:101D80008000C5582C68E369002BFCD1237EA67D1A
:101D900031221E403023AF5CEB5C1F4001233342F5
:101DA00019D0EA8D002A4DD0AA6A511C1378A96275
:101DB0006979DBB2012900D175E09BB2DB05DB0D4F
:101DC0002385EB8D013B9BB2EB85002B03D10133C7
:101DD00023750133A3750223334205D000222375F6
:101DE0003133EA54FB073BD40423334212D0AA8D8B
:101DF000002A25D0638BDBB21A0735D53722134072
:101E000035D002221A4254D01A213223E954628377
:101E10007B0759D41023334203D0237523763B42EA
:101E200016D12023334203D0237523763B0713D4E6
:101E30000823334203D023752376BB0604D4F8BDB0
:101E40002375E7E72375C6E72B6A28009847F6E76E
:101E50002800EB699847E4E72800AB699847E7E773
:101E60002800EB689847BFE73F221340C9D1238D74
:101E7000696ADB05DB0DDAB20A706A6A511C6962B5
:101E80006979012929D0AB8D013B9BB2AB85002B31
:101E9000C0D1042222752E32AB54BB07BAD528001C
:101EA0002B699847B6E75178023209020B43AA62C0
:101EB00084E704221A420BD101221A4213D01321C3
:101EC0003223E9546283A3E728006B699847A1E7AE
:101ED0001E213223E95462839AE71B0A53706B6A0E
:101EE00001336B62CFE710221A4204D04221322321
:101EF000E95462838CE720221A4200D188E741210D
:101F00003223E954628383E79021002010B508282A
:101F10002DD81C4B80001B589F468020000210BD0E
:101F2000194B5869FBE7194B19481B6A9B059B0F16
:101F3000D840F4E7144C002023689B07EFD510220B
:101F40001249CB681A42FCD0242322681340042B88
:101F50000FD01048E3E70C4B1869E0E750230B4A19
:101F60000020D35C5B07DAD5074BD868D7E70020A1
:101F7000D5E7094B00209847A3681B041B0C584366
:101F8000CDE7C04618340100780200200008004068
:101F900000127A00006CDC02B9230000F0B54E4656
:101FA0004546DE465746C2221E21E0B5664BD200AA
:101FB0009A60664A0026536885B08B431A390B43F2
:101FC0005360032301AC624D2370F0B2210001364F
:101FD000A847252EF9D180215B4A5E4F0902938ADA
:101FE000796104210B4308210B43312149420B4005
:101FF00040210B4358490B40C021C9000B435749AE
:102000000B4002219382938A0B439382D368194237
:10201000FCD0534B1B689B0E3F2B00D192E03F221C
:102020009B0213437B60002304223B6098464D4B88
:10203000454EBB603B6813433B60336A4A4A1340DA
:1020400002223362336A13433362484B98470123B9
:10205000994663604346637023726372052323705D
:10206000434B210001209B469847424B01209A4652
:1020700098474B4663604346637063720523237041
:102080004B46210002202372D8470220D047434606
:1020900063706372032323701D3363604B4621001A
:1020A00004202372D8470420D0474B466360434640
:1020B0006370062323704346210005202372637258
:1020C000D8470520D0474B46210000202370A84761
:1020D000294B0020984702223B6813433B600223B0
:1020E0000E32B384F3681A42FCD0BB681021F3624D
:1020F0007B68154AB3620023B384D3681942FCD0CD
:102100003B6811499BB29384D022CB681340D02BFB
:10211000FBD10023194A2100137253729372D372B8
:1021200001226370237263720020073362602370A0
:10213000D8470020D04705B03CBC90469946A246FF
:10214000AB46F0BD0E4B6DE700080040004000417B
:1021500025230000780200204FF8FFFFFFEFFFFF6C
:1021600024608000B9053F1C3FFCFFFF8521000073
:10217000A92100005D220000892300000004004026
:102180003F7C00000821064A93690B4393610123B9
:10219000044A0739137013781942FCD17047C046BE
:1021A00000040040000C004070B50B7806001B02D4
:1021B00003431D004B780400002B02D08023DB0278
:1021C0001D434B7A002B02D080231B031D4348681C
:1021D00001280FD9431E18422FD1022833D00223E1
:1021E000002401345B009842FBD8240280235B0367
:1021F00034431D430B7A002B02D080239B031D43E5
:10220000124A53785BB2002BFBDB114B9847114B02
:102210000E4A1E7053785BB2002BFBDB0B499460B7
:102220004A7852B2002AFBDB80224B6852021340EC
:102230002B434B60084B984770BD802304029B02E0
:1022400034431D43D6E70024D0E7C046000C0040CD
:10225000B5010000080C0040F101000010B50400B9
:102260000A4A53785BB2002BFBDB094B9847094BBA
:10227000064A1C7053785BB2002BFBDB802351684D
:102280005B020B435360044B984710BD000C0040A9
:10229000B5010000040C0040F101000070B504001D
:1022A000194A53785BB2002BFBDB184B9847184B4D
:1022B000154D1C706B785BB2002BFBDB6868154B0F
:1022C000C004C00E98470600114B0F4A1C706D6881
:1022D000114BED02ED0F1C7053785BB2002BFBDB52
:1022E00091680E4B09020C0C9847002D03D0013465
:1022F000E640300070BD012CFBD930002100084BB6
:1023000098470600F5E7C046000C0040B501000004
:10231000040C00400D1F0000080C0040F1010000FB
:102320002D05010070B504000D78114B2D020543F9
:102330009847104B104A1C70104C63881B05190FEE
:1023400063881340638063880D4A13408022638052
:10235000D20163881342FCD162880B020649ADB2F8
:102360000A4013436380074B9847658070BDC046A1
:10237000B5010000020C0040FFF0FFFF000C004020
:10238000FFBFFFFFF101000010B50400064B9847A6
:10239000064B074A1C7080235188DB010B43538096
:1023A000044B984710BDC046B5010000020C004028
:1023B000000C0040F1010000F8B504001C4FB847C4
:1023C0001C4B1D4D1C706C881C4E2405240FB047FF
:1023D0006B785BB2002BFBDBB847194B164D1C70BA
:1023E0006B785BB2002BFBDB6868164BC004C00E39
:1023F00098470700124B104A1C706D68124BED0293
:10240000ED0F1C7053785BB2002BFBDB9168090267
:102410000C0CB047002D03D00134E7403800F8BD64
:10242000012CFBD938002100084B98470700F5E73D
:10243000B5010000020C0040000C0040F10100005A
:10244000040C00400D1F0000080C00402D05010089
:1024500030B5002813DB03240D4A83109446204036
:10246000C025C0000630844081409B006344AD001D
:102470005A59A243114359510023180030BD172364
:10248000421CFAD1034B890719620023F5E7C046C5
:1024900000E100E000ED00E070B5C2090023002A71
:1024A00004D1304A43099446DB0163441F221040A3
:1024B0001E3A8240C87800282DD10C78802C3CD060
:1024C0008020240640020443487802250600AE43DB
:1024D00006D18D78002D2BD0C025ED022C435A60FB
:1024E0000138C0B201282AD9A0251604360CED0502
:1024F000354325439D62D025160C2D0635432543D3
:102500009D62640313D58978012929D05A61012875
:102510000DD89A600BE0A0211004000CC9050143FE
:102520005A609962110CD02212060A439A6270BD59
:102530008025AD022C435A60D2E70024C4E7A021D5
:102540000948C90520401404240C2143D024014328
:1025500099622406110C0C4304439C629A60E6E7DE
:102560009A61D4E700440041FFFFFBFF7047C0467B
:1025700010B5054B9847054B9847054B9847054BB9
:102580009847054B984710BD9D1F00002102000091
:102590006D2500009D0300006D250000931C9B002D
:1025A0001950022A09D0032A0CD0012393401A00A3
:1025B000037E13430376002070471022037E1343EB
:1025C0000376F8E72022037E13430376F3E7C04641
:1025D00070B50126154B1D682B682A7E6C7E9B7B8F
:1025E00014401C4026421AD10226264211D1102640
:1025F000264208D12026264204D06B69280098473D
:102600002B689E7370BD2B69280098472B689E73BA
:10261000F0E7EB68280098472B689E73E7E7AB6804
:10262000280098472B689E73DEE7C046A82100204B
:1026300070B50126154B5D682B682A7E6C7E9B7BEE
:1026400014401C4026421AD10226264211D11026DF
:10265000264208D12026264204D06B6928009847DC
:102660002B689E7370BD2B69280098472B689E735A
:10267000F0E7EB68280098472B689E73E7E7AB68A4
:10268000280098472B689E73DEE7C046A8210020EB
:1026900070B50126154B9D682B682A7E6C7E9B7B4E
:1026A00014401C4026421AD10226264211D110267F
:1026B000264208D12026264204D06B69280098477C
:1026C0002B689E7370BD2B69280098472B689E73FA
:1026D000F0E7EB68280098472B689E73E7E7AB6844
:1026E000280098472B689E73DEE7C046A82100208B
:1026F0000E4B0100180070B584B001AA70C870C2FA
:10270000019A914208D05A68914208D09B680020F3
:102710008B4207D004B070BD0020C0B2FAE70120A0
:10272000C0B2F7E70230C0B2F4E7C0463C34010063
:10273000F0B54746CE4680B5A24B87B003AD0F003B
:10274000904619002A0004009C4649C949C2039AD0
:10275000BA4200D103E163465A68974200D101E1D1
:1027600000229B6891469F4200D1FEE01B2301AEF0
:10277000337001337370B37080231B012B8080236F
:102780005B016B8080239B01AB800023A360E3602F
:1027900023616361237663764B468B4A9B009C5092
:1027A000434627609B78082B0AD023713B8801227F
:1027B0000520DB0709D507B00CBC90469946F0BD53
:1027C0004A461720D207F6D5EFE7FB7B1730DB062A
:1027D000F1D4022339880B40EDD14146097C002910
:1027E00000D0C8E043461B7F002B00D0CFE04B4613
:1027F000764A5B00116AEB5A0B43136243469B789F
:10280000082B00D1D5E043466A461B786946137011
:102810004B46F55C6E4B280098476E4B2800984756
:102820004346424619899B880B439178927911431C
:10283000194343465B78002B02D080231B011943C8
:102840002368DA7B52B2002AFBDB42463980527B96
:10285000002A00D08CE0012100204246927B002A11
:1028600000D10100DA7B52B2002AFBDBFF223A7171
:10287000002935D14246917AD27A002A01D010221D
:1028800011434246127B002A01D020221143DA7BF9
:1028900052B2002AFBDBB971DA7B52B2002AFBDBB1
:1028A0002279042A22D0082A42D01720002A00D0F8
:1028B00081E7DA7B52B2002AFBDB4246128D3A8274
:1028C000DA7B52B2002AFBDB4246528D3A83DA7B36
:1028D00052B2002AFBDB43469B8D00207B836AE7D4
:1028E000DA7B52B2002AFBDB7971C3E7DA7B52B2A2
:1028F000002AFBDB282241468A5C3A74DA7B52B21A
:10290000002AFBDB292241468A5C3A75DA7B52B207
:10291000002AFBDB2A2241468A5C3A76DA7B52B2F5
:10292000002AFBDB2B234246D35C00207B7642E768
:10293000DA7B52B2002AFBDB4246926A3A61DA7BCA
:1029400052B2002AFBDB4246D26ABA61DA7B52B24B
:10295000002AFBDB43461B6B0020FB612BE70023B7
:10296000994603E70123994600E702239946FDE6CD
:102970000521042071E702A9CB7043461B7E8A70B3
:102980000B704346187D144B4A7098472AE7002283
:1029900002A9CA70242042460123121812788B70B3
:1029A0000A704B70202243469B1818780A4B9847B0
:1029B0001DE74B46591C4900106A6B5A03431362CA
:1029C00021E7C0463C340100A8210020000400405B
:1029D0002523000089230000992400000268D37B8E
:1029E0005BB2002BFBDB0379042B0AD0082B06D04B
:1029F0000020002B00D07047108A80B2FBE71069DE
:102A0000F9E7107CC0B2F6E710B50468E37B5BB26F
:102A1000002BFBDB0379042B16D0082B0CD01720DE
:102A2000002B00D010BD17200129FBD80C3192B229
:102A300049000A530020F5E717200129F2D8063192
:102A400089000A510020EDE717200129EAD8D2B207
:102A500061180A760020E5E7A523034A1372D379AB
:102A60005BB2002BFBDB7047001000400122044BDF
:102A700010B59A71034B1B68002B00D0984710BD0E
:102A800000100040B4210020FEE7C046254926483A
:102A9000F8B5814209D0254B984206D2C243D218DC
:102AA000920801329200224B98472248224B9842CA
:102AB00007D2C243D21892080132920000211F4B64
:102AC0009847FF211E4B1F4A8B4393609023032599
:102AD00002240C2708261C4AFD395B00D1501B4AF2
:102AE000D378AB432343D370D378BB433343D37002
:102AF0003022174B987B9043202210439873997B88
:102B0000B9433143997380219A7BAA4322439A7334
:102B1000104A53680B4353600F4B98470F4B98472D
:102B2000FEE7C0462C3D01000000002030020020DE
:102B30009B2101003002002090310020D1210100B2
:102B40000000000000ED00E0007000410050004176
:102B500000480041004000413521010065000100AE
:102B6000F0B5C6460C0000B59046002812D1002AE8
:102B70000DDD0A4E0A4D8F18210030682B68013494
:102B80009847BC42F8D1404604BC9046F0BD0023B3
:102B90009846F8E701235B429846F4E7C0210020FD
:102BA000B8210020F0B5C646013800B50E0015006A
:102BB000022810D80024002A0FD00A4B0A4F98464A
:102BC00002E00134A54208D04346315D18683B68F5
:102BD00098470028F5DA01246442200004BC90469E
:102BE000F0BDC046C0210020BC210020044A13686B
:102BF000002B03D01818106018007047014BF9E73C
:102C00009002002090510020012040427047C046B1
:102C100080239B0100204B607047C0460120704715
:102C200000207047F0B583B06B469C1D0023060062
:102C30000F00054D238021003000A8470028FAD15D
:102C400023883B7003B0F0BD0D1C000070B506007A
:102C5000034D8CB221003000A8470028FAD170BD86
:102C6000E91B000010B582B06B46DC1D012221007B
:102C70000D4B0E48984772B6BFF35F8F00230C4A86
:102C80000C49137024780B780B48C4549B2B09D043
:102C90000133DBB20B7001231370BFF35F8F62B699
:102CA00002B010BD0023F5E7791C0000940200205B
:102CB0000800002064030020C802002070B590B016
:102CC0006946FF2280230A810222DB05009300234C
:102CD000FF320992D53A8B5401328B548B72CB72EE
:102CE0000B8201930A93059313238B7680235B0356
:102CF0000393314B00220C93304B314C0D93012345
:102D00005B420E930F93E1235B0208932D4BCA762F
:102D10000A760A774A764A771C602B4A2B4B2C4955
:102D20001A602C4A2C4B20001A606A462B4B98479D
:102D30002B4E2C4D336800219868A847336800213A
:102D40005868A8472568284B280098471F23184033
:102D50001E3B8340254A13602368DA69002AFCD1B0
:102D600002212A680A432A60DA69002AFCD18022FB
:102D7000596852020A435A600122E271DA69002A54
:102D8000FCD1DA69002AFCD18022596892020A43F8
:102D90005A600122A271DA69002AFCD1144900208C
:102DA000144B984704220A4B9A75104BFD32FF32A0
:102DB0001A6010B070BDC046030004000300050097
:102DC00094020020C02100204D2C0000BC210020D6
:102DD00000080042252C0000B8210020A5180000A2
:102DE000CC010020E52301001113000000E100E008
:102DF000652C0000C91200000122044B10B51A61B5
:102E0000034B1B68002B00D0984710BD00180040F2
:102E10006803002070B53F220024344B84B01A7040
:102E20005C709C7001256B46314E5D709C701D700E
:102E30003F20304B694632707470B47098473078D8
:102E40004209C30950D11F210140280088400100D8
:102E500029482A4C8446D2016244916120002422F0
:102E60006360A354A360237463742375183A00212C
:102E7000234B18302570A574E574984780235B02B6
:102E8000E360204B204DA361204B2200A36201236D
:102E90005B42E3621E4B1F4923631F4B28006363A1
:102EA0001E4B98472B68DC69002CFCD102251A6860
:102EB00068462A431A601A4B9847802320229B03B6
:102EC000009201936B466A461D7201236946537254
:102ED000D3720020134B9472984700220021124BAA
:102EE0001248984704B070BDA461FFDEC8210020DD
:102EF000CC2100201D05000000440041D02100200D
:102F0000D121010000093D000822002005005300E6
:102F100005003E000018004205005200A113000009
:102F20001104000025040000ED020000F92D00004E
:102F3000F0B5CE46474680B583B0EFF310835A42D2
:102F40005341019372B6BFF35F8F0023324F334C6E
:102F50003B70019B324E98468023184331008146D6
:102F6000012220002F4DA847012123681A7E11421B
:102F7000FCD01A7E114201D04A469A6202211A7E82
:102F80001142FCD004211A7E1142FCD01A7E11425B
:102F90000AD05A8B520700D55983A279012A34D01E
:102FA0009A6A2149D2B20A8001211A7E1142FCD0CC
:102FB0001A7E114201D000229A6202211A7E114229
:102FC000FCD004211A7E1142FCD000201A7E8146DA
:102FD000114205D05A8B520715D49B6ADBB2994631
:102FE000002231002000A847FF234246134204D0AC
:102FF000FE3B3B70BFF35F8F62B6484603B00CBC2C
:1030000090469946F0BD5983E7E79A6A0649D2058A
:10301000D20D0A80C8E7C046080000200822002020
:10302000CC210020D5170000C4210020F0B54F4668
:10303000D6464646C0B5894682B0EFF310835A4261
:103040005341019372B6BFF35F8F0023354F364C67
:103050003B70019B354E9846C02318433100824691
:1030600001222000324DA847012123681A7E114217
:10307000FCD01A7E114201D052469A6202211A7E79
:103080001142FCD004211A7E1142FCD01A7E11425A
:103090000AD05A8B520700D55983A279012A3AD017
:1030A0009A6A2449D2B20A8001211A7E1142FCD0C8
:1030B0001A7E114201D04A469A6202211A7E1142BA
:1030C000FCD004211A7E1142FCD01A7E11420AD093
:1030D0005A8B520700D55983A2799B6A012A15D0D1
:1030E000144ADBB21380002231002000A847FF23DE
:1030F0004246134204D0FE3B3B70BFF35F8F62B683
:1031000002B01CBC90469946A246F0BDDB05094AB8
:10311000DB0D1380E7E79A6A0649D205D20D0A80D3
:10312000C2E7C0460800002008220020CC21002071
:10313000D5170000C4210020014B18607047C0461D
:103140006803002070B5044B15000C00984704403C
:103150002C41E0B270BDC046312F0000F8B5170019
:103160001C00064B0E0005009847BC40B04334409D
:10317000C1B221432800024B9847F8BD312F00000F
:103180002D300000F0B54546DE4657464E46E0B5C8
:10319000040085B08846EFF310835A4253410393ED
:1031A00072B6BFF35F8F0023404A414D1370039BFB
:1031B00040490193404B012228009A46984701213B
:1031C0002B681A7E1142FCD01A7E114201D02022B7
:1031D0009A6202211A7E1142FCD004211A7E114209
:1031E000FCD01A7E11420AD05A8B520700D559835F
:1031F000AA79012A53D09A6A3049D2B20A8042464B
:103200004146013AD2B2002934D0013291462022FF
:103210009046002201219346022704200426A1445F
:103220001A7E1142FCD01A7E114201D05A469A628F
:103230001A7E1742FCD01A7E1042FCD01A7E16422B
:1032400009D05A8B104200D05883AA799B6A012A70
:1032500008D0DBB298464346237001344C4509D070
:103260002B68DDE7DB05DB0D984643462370013410
:103270004C45F5D100220F492800D047FF23019A81
:10328000134205D00123094A1370BFF35F8F62B662
:1032900005B03CBC90469946A246AB46F0BD9A6A42
:1032A0000649D205D20D0A80A9E7C04608000020D1
:1032B00008220020CC210020D5170000C4210020C6
:1032C000F0B54E46DE4657464546E0B5040085B0AB
:1032D0000E00EFF310835A425341039372B6BFF3CB
:1032E0005F8F0023404A41481370039B01220193E2
:1032F0003F4B190098463F4B984701213B4B1B68B9
:103300001A7E1142FCD01A7E114201D060229A62CC
:1033100002211A7E1142FCD004211A7E1142FCD0F7
:103320001A7E11420BD05A8B520700D559832F4A6F
:103330009279012A51D09A6A2F49D2B20A802B4A37
:1033400004219279894692462B49013EF6B220002B
:103350000122022504248B46D446FF2E21D0197E5B
:103360000A42FCD0197E07780A4200D09F62197E7B
:103370000D42FCD0197E0C42FCD04F46197E0F4204
:103380000AD0598B0C4200D05C83614601291DD0C4
:103390005F46996AC9B239800130013EF6B2FF2E0C
:1033A000DDD1144B0022414610489847019B1E4234
:1033B00005D001230C4A1370BFF35F8F62B605B0CE
:1033C0003CBC90469946A246AB46F0BD996A0A4F6E
:1033D000C905C90D39800130DFE79A6A0649D2056F
:1033E000D20D0A80ABE7C04608000020082200206A
:1033F000CC210020D5170000C4210020F0B5DE4606
:103400004E4645465746E0B55A4B85B0060001206A
:103410000C0090469847EFF310835A4253410393B0
:1034200072B6BFF35F8F0023534A544D1370039B52
:1034300053490193534B012228009A469847012192
:103440002B681A7E1142FCD01A7E114201D0002254
:103450009A6202211A7E1142FCD004211A7E114286
:10346000FCD01A7E11420BD05A8B520700D55983DB
:10347000AA79012A00D176E09A6A4349D2B20A8039
:1034800001211A7E1142FCD01A7E114200D09E62A8
:1034900002211A7E1142FCD004211A7E1142FCD076
:1034A0001A7E11420AD05A8B520700D55983AA7945
:1034B000012A52D09A6A3449D2B20A804246414621
:1034C000013AD2B2002933D00132914600220121C3
:1034D00090469346022704200426A1441A7E1142F6
:1034E000FCD01A7E114201D05A469A621A7E1742C7
:1034F000FCD01A7E1042FCD01A7E164209D05A8B9C
:10350000104200D05883AA799B6A012A08D0DBB206
:1035100098464346237001344C4509D02B68DDE7BB
:10352000DB05DB0D98464346237001344C45F5D14D
:10353000002213492800D047FF23019A134205D0E7
:1035400001230D4A1370BFF35F8F62B605B03CBC18
:1035500090469946A246AB46F0BD9A6A0A49D20502
:10356000D20D0A80AAE79A6A0749D205D20D0A80CD
:1035700086E7C04655010000080000200822002010
:10358000CC210020D5170000C421002030B50388CD
:1035900083B00400002B06D04E2B11D000230380F3
:1035A000032003B030BD084B00220093074B0848AE
:1035B0001900084DA84705490200074B07489847DE
:1035C0004E2301202380ECE7E13500008822000033
:1035D0001422002045980000E1210100B8340100C8
:1035E000F8B51848184DA847079B18481C782100C3
:1035F000A847022C1FD0032C09D0012C00D0F8BD05
:103600001348A8478022134B12035A61F7E7124868
:10361000A84780250A240F4E2D03104FB561FA20CC
:1036200075614000B847FA20B5614000013CB847D9
:10363000002CF4D1E3E70A48A8478022054B120387
:103640009A61DCE748340100E12101006C3401009B
:103650009034010000440041A834010085010000BD
:103660009C34010010B500210148024B984710BD61
:103670000C00002005EE0000F8B5DE464546574632
:103680004E46244BE0B5244898469847041E18D06F
:10369000224B234F234E994603E02000B047041EDF
:1036A0000FD0251D2800B8470028F6D09621637F4B
:1036B0000902013363772800C8472000B047041E81
:1036C000EFD1194D2800C047041E1DD0174B144FD1
:1036D0009B46174B134E9A46164B994603E0200023
:1036E000B047041E10D0201DB8470028F7D0210095
:1036F0002800D84721005046C8472800C04704008A
:103700002000B047041EEED13CBC90469946A2462C
:10371000AB46F8BDD13B000074030020D9F1000096
:1037200009F20000BD3C00006C030020713C000069
:103730001C000020253D0000F0B55746DE464E46F1
:103740004546E0B5038899B00700002B19D0B9248D
:103750006400A34211D1882930D0924B1B788B4250
:1037600000D199E0B92301205B003B8019B03CBC3B
:1037700090469946A246AB46F0BD00230380032045
:10378000F4E70021884B89489847894C894B0022EF
:1037900018600482884B854900209847A021048244
:1037A00049018648864CA047864B9847A021864B06
:1037B00049019847854889B2A047D3E77F4B9A4291
:1037C00000D1C4E0814B9A42C7D17A4B02AA1B6850
:1037D0007F480193002353717E4B00939847002844
:1037E00000D1CFE07C4B022499467C4B00259A46C1
:1037F00000239B463B0027009846040003AE2100AF
:1038000010220C31B01CC847237F2000B3745B46E4
:103810003375F374637F01357375D0471437040033
:10382000042D00D1A1E014360028E8D16C4B984754
:103830006C48009B98473C0047468046002800D1D2
:103840009DE003AB1E1900239B463B002F00250083
:103850004446984602E01436002812D02100102277
:103860000C313000C847237F200033745B46B374AB
:103870007374637F1435F374D047013704003E2D11
:10388000E9DD2C003D00474602AB1D71220003A973
:103890000198554B984765E7544B1B6899461B7830
:1038A0000093002B00D15DE7002398464D4A494B19
:1038B0000197924647469B46484E4B469D7C5B7D12
:1038C0009846474B98475046D847041E09D0037F77
:1038D000AB4203D123E0037FAB421FD0B0470028A7
:1038E000F9D14348434B9847041E2CD0012343771A
:1038F0004B460577991C1022374B0C309847962180
:10390000201D49023C4B9847210050463B4B9847AD
:10391000009B0137BB42D0DC019F23E704004246F5
:10392000637F9B1A1B06F3D596216277201D4902FF
:10393000314B984721005046314B98472100504663
:10394000304B9847E4E7304B30489847E0E71000A9
:103950002F4B98471B4B9847A0211B4B4901984779
:103960001A4889B2164B9847FCE61D4B9847009BB6
:103970001C48984702AB3C001D71474686E702ABE6
:103980001D7183E7164B98471648009B9847804661
:10399000002800D1E6E6104B022499460F4B002583
:1039A0009A464EE7EC2E002005990000F0B000008A
:1039B000F0B0FFFF70030020E598000078030020BE
:1039C0000DEA00007D3D0000390601009805002049
:1039D00074030020D13B00009B210100BD3C00008E
:1039E000793600006C0300201DA20000902B0020FF
:1039F0001C000020E93C0000D9F10000D53B00008C
:103A0000713C0000313C0000FD2201000C3501003A
:103A1000C9EA000070B5094C2378002B0DD1084885
:103A2000084DA8470848A8470848094B9847094B3C
:103A30000021094898470123237070BDA805002084
:103A40006C030020C93B0000740300201C00002010
:103A5000C93C000005EE000028000020F0B5C64675
:103A600000B52A4D04002B780F00002B38D0284ECB
:103A70003000284B984700280AD0037FA3422CD05F
:103A8000254D02E0037FA34227D0A8470028F9D1A3
:103A90002248234B9847051E33D001231022047778
:103AA000437739001F4B0C3098479621281D090297
:103AB0001D4B9847290030001C4B98471C4C1D4B50
:103AC000256823601C4B9847A0211C4BC9009847D0
:103AD0001B4889B21B4B9847256004BC9046F0BD3B
:103AE000194B1A4898469847094E3000C0470B4872
:103AF000174B9847174B00210E48984701232B700E
:103B0000B6E7154B15489847E7E7C046A8050020DB
:103B100074030020D13B0000BD3C00001C000020CD
:103B2000E93C00009B210100D9F10000313C00007C
:103B300098200020280000207D3D0000390601006B
:103B4000980500200DEA0000C93B00006C0300202E
:103B5000C93C000005EE0000FD2201000C3501000B
:103B600010B5044B98470023034A1370034A13709F
:103B700010BDC04645FD0000A9050020AA05002093
:103B800010B5054B1A7810431870044B1B78584039
:103B9000034B984710BDC046AA050020A905002088
:103BA00071FD000010B5054A1378834318001370A7
:103BB000034B1B785840034B984710BDAA050020C3
:103BC000A905002071FD0000002303607047C04676
:103BD0000068704710B50468002C0CD0A14223D0B7
:103BE0002368002B01D106E0130099420FD01A6818
:103BF0001C00002AF8D100230B600268002A01D1C2
:103C000010E01A001368002BFBD1116010BD002CCE
:103C10000AD00B68236000230B6000230B6002684E
:103C2000002AEFD10160F1E70B680360F3E7C046BB
:103C300030B50568002D0DD0A94216D02B682C0098
:103C4000002B01D106E01300994206D01A681C002F
:103C5000002AF8D10D60016030BD002C05D00B6842
:103C6000236000230B600568F4E70B680360F8E746
:103C700010B50468002C0CD08C4212D02368002BA5
:103C800001D106E01300994204D01A681C00002AF2
:103C9000F8D110BD002C04D00B68236000230B600A
:103CA000F7E70B680360F9E703680020002B03D0F7
:103CB0001B680130002BFBD17047C046002801D0A3
:103CC000006870470020FCE770B50400054D42888D
:103CD00000214068A84723886288A0685A430021D1
:103CE000A84770BDD121010030B54588002D0FD007
:103CF00044682378002B0DD0631C002205E01C00D3
:103D00000133591E0978002905D00132AA42F6DB99
:103D1000002030BD002201232370038880685A43AD
:103D20008018F6E770B5448806008268002C0AD037
:103D30008A420AD00588002301E0914206D001336F
:103D40005219A342F9DBFF2070BD00237268D2181C
:103D500010780028F8D0013810707268D05CF3E752
:103D60008368020010B500208B4206D85488108862
:103D700060431B1899428941484210BD10B5024B5F
:103D8000984780B210BDC0466D230100F0B5C6460D
:103D9000058800B50700782D47D07F2D29D0002D4C
:103DA00005D000230380032004BC9046F0BD2D4BBA
:103DB00098472D4E2D4B2E4C3268187025600023ED
:103DC000002A10D0002188462A4D4146E9549368C4
:103DD000002180209847236801339A00B25823605D
:103DE000002AF2D1DBB2244A1370782301203B80F1
:103DF000DAE71E4B01201B788B42D5D11E4B1C4CA1
:103E000098461C4D1D4E7F222368E95C0A40EA5407
:103E100032680132326042461278013323609342A5
:103E20000EDB3368002B05D1DFE7134B104C9846AF
:103E30001A78124E002333602360002AD5D00D4D2E
:103E4000E95C7F29E9D9084A9B009A58074B002072
:103E500019780B4B98470028D5D17F2301303B8040
:103E6000A2E7C046F5ED0000B00100203822002096
:103E7000B00500206C310020B4050020AC05002006
:103E800099F0000010B50E4B0E4898470E4C60227A
:103E900000210E48A047C8220021D2000C48A047AC
:103EA000042200210B48A047A02100230A4A8900D0
:103EB0000A480B4CA0470B4A0B4B1A6010BDC0467A
:103EC000D998000081400000D121010000060020A7
:103ED000402200203C220020ED3E0000E0050020B2
:103EE000E9E700000100AAAAB805002070B5284C37
:103EF0002378012B0CD06378012B18D0A378012BE9
:103F000025D0E378012B32D02248234B984770BD4F
:103F1000224D234B2800083098470028EBD000237F
:103F200018222370002128001E4B9847E3E71B4D01
:103F30001B4B2800203098470028DFD000232800A2
:103F4000637018220021174B18309847D6E7134D9D
:103F5000134B2800383098470028D2D0002328007F
:103F6000A370182200210F4B30309847C9E70B4D42
:103F70000B4B2800503098470028C5D0002328005C
:103F8000E37018220021074B48309847BCE7C04631
:103F90003C220020E005002041E80000000600204F
:103FA00009F20000D121010070B502240500137848
:103FB000087A6340984228D00B89002B02D18B7A73
:103FC000002B0CD0214E0831346808222000204BF1
:103FD00098470120A84008343460C0B270BDCB7A45
:103FE000FF2BEFD10B7BFE2BECD14B7B002BE9D1D0
:103FF000164E0E31346802222000154B98470220DD
:10400000A84002343460C0B2E8E7487A5378984256
:10401000D2D1887A93789842CED1C87AD378984210
:10402000CAD1087B13799842C6D1487B537998420C
:10403000C2D1887B93799842BED1C87BD37998420C
:10404000BAD10320A840C0B2C8E7C046CC050020C2
:104050009B21010010B50C00064B11002000984771
:10406000054B1B68002B02D09B6820009847034B30
:104070001C6010BD41580000C4050020D40500207C
:10408000F0B5DE46574645464E460023E0B5D54AD4
:1040900087B01370D44B04009847D44B9847D44B47
:1040A000042118609B46D34B0A209A469847D24B6E
:1040B000D24D1B68002B0FD0A9790220D047AB79D5
:1040C000112B00D1D3E1062B00D1D0E100213A2BF6
:1040D00000D136E30120D047AB79062B00D165E251
:1040E00004AB0193002C00D100E318002100C44B65
:1040F00098475B461F68C34BBC1C98461C60002356
:10410000C14EBB703378012B00D15DE24023039395
:104110000023029329786A780B0110090343DBB26C
:1041200098019B0803435BB2D8B281460F2010422E
:1041300003D16888002800D18CE10F20084203D108
:104140001100814300D1B8E2B04B042220002900C5
:10415000009398474B462370434604341C60642305
:1041600060229946AB79112B04D0237043469146C7
:1041700001341C60EB79402B00D10BE1FF2B00D107
:104180005EE2012B00D106E12370434601341C603E
:104190002B89002B00D106E13378012B00D131E2CD
:1041A00000229B4B1A602B7AFE2B00D1AEE220003E
:1041B000009B102297499847434610341C602C7E80
:1041C000FF2C00D1B1E13378012B00D13AE200227B
:1041D0008F4B1A60FE2C00D150E243461E6810221D
:1041E0003000009B8C49984743461036029C1E6065
:1041F00028237C4A1370AB793A00112B00D161E17E
:104200004B467C703B70784BB61A98470199834BAC
:104210001D209847824BF7B21B6802939847039082
:10422000002800DA08E26624241A6F4B984704211C
:104230000A20D0477B4B98461B889A46694B1B78CF
:10424000994653464A469B1AFF223240A11A8B4296
:1042500000DC13E15B461E68734B3100301D98474C
:10426000534640221B0A52421343337043466F4A5F
:104270001B88043773701388FFB2190AF370013377
:1042800013800723E41B9C439A464B462200A4B2AA
:10429000B170F019E918E719009B9847B8B2644B60
:1042A0009847644B9847061E72D001995B4B1D20BE
:1042B0009847614B00219B68604802939847604B88
:1042C000984730005F4B98475F4B300098475F4BF3
:1042D00099461B68012B5BD0053B012B58D90F2059
:1042E0005B4B98473F4B61271B78E4185B46186887
:1042F00043461A882023120A5B4213430370434645
:104300001B88A4B24370039BFF1A53469F43434646
:104310001B889C4200D3CDE0AA4624E001993F4B84
:104320001D20984700214548029B9847444B9847D9
:104330002800444B9847444B280098474B461B683D
:104340003419A4B2012B00D11AE2053B012B00D88D
:1043500016E23F4B0F20984743461B88A34200D8E4
:10436000A8E05A461068E20802711B1B9F4200D960
:104370001F0053463A0019190530009BBEB29847FA
:10438000701D80B22A4B98472A4B9847051EC5D10D
:10439000002090E002234A461A43D3B299462B8963
:1043A000002B00D0F8E66B89002B00D0F4E6AB8937
:1043B000002B00D0F0E6EB89002B00D0ECE62B8A36
:1043C000002B00D0E8E66B8A002B00D0E4E6AB8A35
:1043D000002B00D0E0E6EB8A002B00D0DCE6039B4C
:1043E0000293ECE6F20700201DB2000025B40000A5
:1043F000DC050020E1B40000C4050020F429002001
:1044000075A20000CC050020B80500209B2101000A
:10441000C8050020FC2900200C2A0020FDB4000063
:1044200030380100E0290020AD210100D80500202E
:1044300019B400004DB500003838010055400000A7
:10444000592A000025B60000D5B50000D40500208B
:10445000850100000F230B4200D04CE19A4300D0AD
:1044600049E17C239946C94B782200937AE66B8D0B
:10447000298D994200DD1DE189B22BE65946086875
:104480002900801849441A00009B98474346188821
:104490004B46C01AC01980B2BD4B98470199BD4B1D
:1044A0001D209847BC4B00219B68BC48009398474F
:1044B000BB4B9847012007B03CBC90469946A246AA
:1044C000AB46F0BD2B8D0F201A021B0A1A4392B285
:1044D0001100B44B81430291994200D135E1698DBD
:1044E0000B02090A0B439BB2FF20F0218343090210
:1044F0008B4200D1A9E182438A4200D172E1F023CC
:10450000701C33700422A849009B9847053602228C
:104510003000009BA5499847434602361E60302371
:10452000A34A13705B461A686AE60824029B6A8BEA
:104530001C436B7EE4B2022B2AD0002A2BD1AA8B1B
:10454000002A28D1EA8B002A25D12A8C002A07D1FB
:104550006A8C002A04D12432AA5C002A00D181E1AD
:104560002A8C002A17D12232AA5C002A13D10924EE
:10457000029A29002243D4B242461668233133708E
:10458000701C009B05229847434606361E602FE6A6
:10459000002A00D133E143461E6810223000009B00
:1045A00084499847434610361E6021E62F33EB5C62
:1045B000DA0700D592E03F221340102B00D18FE59F
:1045C00002211220D0478BE57A4B08229946190028
:1045D00079487A4B984700280CD04946774B1039D8
:1045E000082275489847402303930023029300282C
:1045F00000D08FE54346FC1C1C60C0230393403B66
:10460000029387E5B01C08226D496C4B984700283F
:1046100000D0C5E56B4BBA781E60737868491B0102
:104620001343BB70684A694B042040249847644296
:104630002043C3B20293C2E5152351240393F4E54A
:104640000323A8E6B01C08225A495C4B984700286F
:1046500000D0BCE504245B4B56491E60029B727877
:104660002343DCB2BB7800201343BB70019A574B45
:10467000984743460443E4B21E68B9E56B7E802B3D
:1046800000D0AAE56B8B002B00D0A6E5AB8B002BEE
:1046900000D0A2E5EB8B002B00D09EE529004B4B10
:1046A0001831019A002098474346029C1E68044333
:1046B000E4B29DE5190089B20CE53F318B431A4302
:1046C000324B2270601C02224149009398474346B6
:1046D00003341C606C236822994643E503211220B1
:1046E000D04704AB0193002C00D0FEE418003949F8
:1046F000394B9847FDE44B462370434601341C6018
:1047000074239946214B702200932BE56B7A802B02
:1047100000D04CE56B8B002B00D048E5AB8B002B19
:1047200000D044E5EB8B002B00D040E52900274B5F
:104730000831254A04209847029B0343DBB20293C9
:104740003DE5298D49BA89B2C4E46B8D9C4661462A
:104750001B02090A0B439BB219008143080002990E
:10476000884200D0C0E6F32333702B8D6A8D1B0A7C
:104770005033120A1B0150329B1873700236C6E682
:104780001648174B9847002095E6C0469B2101002C
:1047900019B40000FDB40000383801005540000095
:1047A000592A0000B0F000001C2A0020222A002014
:1047B000F20700200C2A0020BA0500207D2101000C
:1047C000FC290020C8050020EC290020A93F00009A
:1047D000F62900202838010075A2000014360100D7
:1047E000FD220100F223290033702B8DB01C1B0A1F
:1047F00073702A310222009B9847043687E6AA8B01
:10480000002A00D0C7E6EA8B002A00D09AE62A8C5C
:10481000002A00D096E66A8C002A00D092E6AA8C84
:10482000002A00D08EE62632AA5C002A00D089E653
:104830000B24029B1C4343461E682723EB5CE4B217
:104840003370434601361E60D2E4F123701C33708E
:104850000222009B0C4998470B4B5B881B0AF370A4
:10486000043654E60A24029A29002243D4B242466E
:10487000166825313370701C009B0322984743460D
:1048800004361E60B4E4C0461C2A0020F0B5DE46A3
:1048900057464E464546E0B50027DD4BDD4E95B008
:1048A0001F809B46DC4B37709847DC4DDC4B286003
:1048B000042098472968DB4B00B20C7818604B78CD
:1048C00024021C43230A3F221800904326D00722CB
:1048D0009343C02B00D1B5E0E02B00D128E1C02BE1
:1048E00000D16CE1E02B20D05B4600221F80FF232B
:1048F00005920492079290460192CB4A0693029346
:10490000002392460393CC1827781F233A009A433A
:10491000602A00D1C1E1412F00D1F3E015B03CBCC9
:1049200090469946A246AB46F0BDC04B002708937F
:10493000FF230693BE4B9A46FF2302930023059361
:104940000193BC4B9846029B9C465C006B466444BA
:104950009B88E40044446382238AA782B64F994629
:10496000B847628A48440538C317D10F90424B417B
:10497000DBB20793B14B9A44238A002B00D12AE182
:10498000052300240393043B984604330493B8475B
:10499000039B9842C2D3B847049B059A9C46C71A0A
:1049A0003678D000296880B28019504461443A00BA
:1049B000A34DA8474346002B00D059E15A46F719AA
:1049C000BBB201931380002B01D000F0FDFB079BCD
:1049D000002BA3D0974B9B4C9846019A5146200040
:1049E000A8470022984B02995A54069B18329C46BD
:1049F00058006044C00040440021944B98476A46E8
:104A0000934B9288934D1A8000235A4613802B684B
:104A1000002B14D0A17902208F4EB047A379112B1F
:104A200000D1DFE3062B00D1DCE300213A2B01D1DA
:104A300000F0E4FC0120B0472B685B689847874B87
:104A400098476BE76405630D01938B78CA781B0266
:104A50001A437D4B91469A461B78002B01D100F0FA
:104A6000FCFB52465278002A01D100F00CFC524661
:104A70009278002A01D100F00AFC5246D278002A2E
:104A800001D100F03AFC012B00D1AFE2FF245346E4
:104A90005B78012B00D175E253469B78012B00D146
:104AA000BAE25346DB78012B00D155E2FF2C01D14D
:104AB00000F027FC5F4B984623001A0002940694EE
:104AC0006400C8235B005343029A9A4694466A46A0
:104AD00064449288E400444462824A46238AA28263
:104AE000564A05939244002B00D135E100220592ED
:104AF00004320492002204230792013229680393AE
:104B0000904600E7049C282223000133DBB2C91839
:104B100050464B4B984721002931CBB21A000493E1
:104B2000337844462833337093B20393424F2EE7D1
:104B30000B79CF7899468B781B021F43424B9A46DC
:104B40001B78012B00D19CE253465B78012B00D1EE
:104B500078E253469B78012B00D1AEE25346DB78D6
:104B6000012B00D0DAE63E4B1C20984708220100BA
:104B7000334B12A898472F4B08221800984648300C
:104B800012A9384B9847002800D0C7E65C2342465C
:104B9000D35ABB4200D0C1E60323482206930892B1
:104BA00002936A464B469380938864050593630D90
:104BB0000193C823069A5B005A439246C3E6FF223C
:104BC000069202920022FF2491460192194A184B44
:104BD0009046640078E70024053303930493089F0C
:104BE000A02138000830C90040441F4B98471C4B97
:104BF0001C209847010038001C4B40449847002C6B
:104C000001D000F03FFD01230B4F9846BFE6C046A0
:104C1000F0070020F207002025B40000DC0500208A
:104C2000F1B40000D005002060060020E817000065
:104C3000708E01000006002071B4000040220020A8
:104C40009B210100F42900203C220020D1210100F9
:104C5000E0290020C4050020E1B4000071990000A3
:104C600019B500007D210100D9F1000075A20000F6
:104C7000CF4B9846029B002C00D0A3E05C00079B22
:104C8000002B00D196E0029B9C466B466444E400F6
:104C90009B8844442382C74C9FE6637809935BB2A8
:104CA0000A93002B00DA5CE2C34AA31C91460893E6
:104CB0001360FB065DD43B0700D56CE25346581CDD
:104CC000089B0322591CBD4B98474A46089B1978FC
:104CD0000433136008938B080F2218009C4660234E
:104CE0001040184353461870302360468901034032
:104CF0000B43514649780A401343524653700423EC
:104D00003B400B9308D15146089A13788B711300DE
:104D10004A4601330893136003231F4044D0A84B35
:104D2000DA5D5346DA71099A93069B0F520600D456
:104D3000E2E10A990022002900DA5AE2002B49D068
:104D4000A04908910978012900D105E300229E4B72
:104D500044461A609D4F1AE6069B01249C465F005C
:104D60006744FB00089304230393049300230793F1
:104D700035E708233B4000D006E26021089802781E
:104D80009206120F0A4351460A70302201788808B1
:104D9000024089010A4351464A70089A4B80531CCD
:104DA0004A4608931360AAE74946089B1A780133DC
:104DB0000B60B6E7029BE018C0004044038ADF198D
:104DC0000782ABE55C00E318DB0043441A8A9619BE
:104DD0001E8254E7082353440D937D4B1C200E93F1
:104DE00098470027109000233A0011970F930C93D7
:104DF00010230D999A1A8C460F9B002163441800CA
:104E0000744B9847002F00D087E30C9B002B03D0F6
:104E100010990D98704B98470323099A1340110776
:104E200056D552072DD46D4A12A912880A805A1EEF
:104E3000012A00D80BE3182252440892684AD45C35
:104E40000F2327091C400F2F00D1EBE20F2C00D1BC
:104E500032E300230993002F00D0D6E3E2180F2A93
:104E600009DC102308999A1A8C46099B0021634497
:104E70001800584B9847002C00D0E3E3002F00D0D7
:104E8000DEE24B461C6837783B00283333700B9BBF
:104E9000002B05D0072223789343F02B00D1FAE1B1
:104EA0002B68E41AE3B20493019B002B00D15EE16E
:104EB0005146283B1A12454F0A714B7153469B7954
:104EC000112B00D198E16B461B8A444603935EE5A3
:104ED000520700D495E10A990022002900DA7DE208
:104EE000384908910978012900D02FE708994978B5
:104EF000914200D02AE7344A08991D2011601822F7
:104F000052440992374AD45C0E9B98470F232709D5
:104F10000C901C400F2F00D175E20F2C00D1B9E28C
:104F200000230A93002F00D06CE3E2180F2A09DC5B
:104F3000102309999A1A8C460A9B00216344180091
:104F4000244B9847002C00D044E3002F99D00C99B3
:104F50000998214B984794E7154B18009846503014
:104F6000214B9847002800D1A0E500235A4640462F
:104F7000138052464830D37000211822154B9847B1
:104F8000032499E50A4B180098462030164B9847A1
:104F9000002800D180E500235A464046138052463F
:104FA00018305370002118220A4B9847012473E5EA
:104FB00000060020F4290020CC0500209B210100E0
:104FC00064360100B8050020C805002071B4000057
:104FD00019B50000D1210100B5700000B035010005
:104FE000703601006836010009F20000CA4BFF2448
:104FF000180098460830C94B9847002800D146E56C
:105000005B4652461F800023002113704046182241
:10501000C34B984700243AE5BF4B180098463830F8
:10502000BE4B9847002800D13BE500235A46404636
:10503000138052463030937000211822B84B9847A5
:1050400002242EE5B74B1C20984708220100B64BDE
:1050500012A89847B04B082218009846183012A999
:10506000B24B9847002800D073E543469B8DBB4266
:1050700000D06EE50123069317330893173B029384
:105080008FE5A84B1C20984708220100A64B12A8C8
:105090009847A14B08221800984612A9A34B98479D
:1050A0000290002800D04FE543469B8ABB4200D0C7
:1050B0004AE500230693089373E59A4B1C20984712
:1050C00008220100984B12A89847934B0822180019
:1050D0009846303012A9954B9847002800D03DE5FE
:1050E00044234246D35ABB4200D037E50223302244
:1050F00006930892029354E5082252440C928C4A7B
:105100001C20D75C874B0E9398473B091A000893E5
:105110000F230F901F4013000F2A00D162E10F2FC1
:1051200000D19DE100220D92002B00D04FE20D9B9B
:10513000FA180F2A09DC10230C999A1A8C460D9B39
:10514000002163441800764B9847002F00D05FE29F
:10515000089B002B00D15FE60F990C98754B984780
:105160005AE6754AE31C089391461360A1E5734F14
:10517000B847FF2351462340C31A30781B18283BF9
:105180001A120A714B7199E652466023137000237C
:1051900053705380B3E5602352461370089B19780F
:1051A00030238A0813400F220A401343524653709B
:1051B000089B901C591C02225B4B98474A46089B4F
:1051C0000333089313609AE55D4C1A0051462000A2
:1051D000A847079B002B01D1FFF711FC4E4B9846C7
:1051E000FFF7FBFB638D218D994200DD190089B229
:1051F00020E4A2781209A1E5534652469B88938584
:1052000061E6182252440992494A1D20D45C0E9B43
:1052100098470F2327090A901C400F2F00D15DE10A
:105220000F2C00D19BE100230893002F00D006E251
:10523000E2180F2A09DC102309999A1A8C46089B58
:10524000002163441800364B9847002C00D0C1E180
:10525000002F00D115E60A997AE600231F00029379
:10526000304B1C20069798472B4B7C009846E3193F
:10527000DB00434401001800324B9847012351469C
:10528000069ACB551DE4012302931F00E8E7022391
:1052900002931F00E4E75246DF3B93710422237818
:1052A0001A4008920C229343F12B00D161E100D8FF
:1052B00021E1F22B00D170E1F32B00D055E1224A1D
:1052C00051469446F02263781B0963449BB21B024B
:1052D00013430B850F23617802340B4063449BB268
:1052E0001B021343524653854B461C60089B002B00
:1052F00000D12AE130373770D2E5032302931F0033
:10530000AEE7124C1248A04700234A4601991148C3
:10531000A047FFF703FBC0460006002009F200008B
:10532000D121010019B500009B2101007D21010060
:105330006C360100B5700000CC05002071B400008F
:10534000F429002075A20000B0F0FFFFE121010068
:10535000B4350100F035010008994978914200D038
:10536000F4E4CF4A08991C201160082252440D929F
:10537000CC4AD75CCC4B0E9398473B091A000C9350
:105380000F2310901F400F2A14D10F2F7AD0102313
:10539000102211970F930C930899C44B02310D986A
:1053A000984711990F9B8C4663441A000F2B00DD20
:1053B00028E51DE50F2F00D069E1131E64D14B468F
:1053C0001B681022089319000D98B84B98471027B6
:1053D000089B9C464B4667441F601DE5A1780F3231
:1053E0000A407DE510230F2F00D1EAE010220D9333
:1053F0000893AF490C98AD4B984798E6218D49BA70
:1054000089B2FFF717FB10270F2C00D132E11023D0
:10541000102210270A930899A44B02310998984743
:105420000A9B82E510270F2C00D127E110231022C0
:10543000102709939D4B12A908989847099B0DE5E1
:105440009C4B0021089898474B461C681BE54A4630
:10545000126812A811780132417049460A60EAE4E4
:10546000002A00D0AEE04B461B6810220D931900B5
:105470000C988E4B984710270D9B9C464B466744D3
:105480001F60C9E410230C931A000F9310231027F8
:10549000119381E7002F00D0ECE04B461B681022EF
:1054A000089319000998814B98471024089B9C4643
:1054B0004B4664441C60E6E4002F00D0DEE04B461F
:1054C0001B681022099319000898784B98471024FC
:1054D000099B9C464B4664441C60D4E410270F2C67
:1054E0003FD01023102210270893704B7049099861
:1054F0009847089B9CE6F02B37D15046611C02224E
:105500006A4B283098475046E11C684B02222A30EB
:1055100098474B4605341C60E8E64B460D9A1199B6
:105520001B68501A0893190010303A005F4B9847D7
:10553000022F00D04CE70C9B0A2B00D948E7FF2331
:105540005246D374013B137542E750462100574B36
:1055500002222E3098474B4602341C60CAE6002FC8
:105560009BD03A0008971024BFE74446524FFFF7FC
:105570000EFA5046611C02224C4B283098474F4A85
:10558000E3789446F02263449BB21B0213435246D5
:1055900053854B4604341C60A8E6484A6378944619
:1055A000F02263449BB21B02134350465246A11C97
:1055B00013852A303D4B022298474B4604341C6029
:1055C00094E60893089B10271A000D9311E71A0020
:1055D0000D930EE74B46099A1B68101B08931900A0
:1055E00010302200314B9847022C00D05EE70A2F82
:1055F00000D95BE7FF2223235146CA54013A013305
:10560000CA5453E73A000A9705E73A00099711E7A9
:105610004B460C9A1B68D01B0D93190010303A00B2
:10562000224B9847022F00D026E7089B0A2B00D96F
:1056300022E7FF235246D374013B13751CE73A005F
:10564000089752E74B46089A1B68101B09931900EC
:1056500010302200154B9847022C00D038E70A2F53
:1056600000D935E7FF2223235146CA54013A0133BA
:10567000CA542DE73A000A971024CCE63A0009975D
:105680001024D7E62968049BA046FFF73CF90C9B41
:10569000002B01D1FFF7A7FB1A000F9311977BE6B0
:1056A000C80500206836010019B500009B210100E3
:1056B00010360100B570000071B4000000F0FFFF6B
:1056C00010B5041E06D0044B9847044B21001868FF
:1056D000034B984710BDC04681E6000048000020FB
:1056E000D9B0000010B5034B03491868034B984725
:1056F00010BDC04648000020C1560000D9AC0000D3
:10570000F8B51D00104B07001868104B160098479D
:10571000041E16D0102239000D4B9847212320007B
:10572000E6540133E554002110300A4DA84720000B
:1057300000211830A847202300222000E254064B05
:1057400098472000F8BDC0464800002001AE000088
:105750009B2101007DF1000081E6000010B5034BA4
:1057600001001868024B984710BDC0464800002051
:10577000B5B10000F0B5C6460F4E00B505000F4BA1
:10578000306898470400002D14D0002812D00C4B2C
:105790000C4F984604E021003068C047041E09D031
:1057A000102229002000B8470028F4D1200004BCB2
:1057B0009046F0BD0024F9E7480000209DAD0000B0
:1057C00001AD00007D21010010B5034B01001868F8
:1057D000024B984710BDC0464800002041B0000071
:1057E000F0B5C646114D00B50600114B2868984724
:1057F0000400002E17D0002815D00E4B0E4F9846EF
:1058000004E021002868C047041E0CD0102231009B
:105810002000B8470028F4D128682100074B98479A
:1058200004BC9046F0BD0020FAE7C04648000020C6
:105830009DAD000001AD00007D210100B5B100006B
:1058400070B5084B05001D200E0098470649074B10
:1058500004009847002804D1320029002000044B9E
:10586000984770BD19B500002838010085A20000D6
:1058700029E60000F8B5DE464E4657464546E0B5F7
:10588000444E454B30689847041E34D0434B444F38
:1058900098469946434B9A461DE0002B42D0032B75
:1058A0002FD0042B12D12025635D022B4FD920006D
:1058B0003D4B9847002802D0037F002B66D0200084
:1058C0003A4B984721003068394B9847210030689F
:1058D000B847041E0FD02225635D012BDDD12000C7
:1058E0001030C0470028F1D00223210063553068F2
:1058F000B847041EEFD13CBC90469946A246AB4641
:10590000F8BD2000254B103098470028DED0042336
:105910000022200063551C33E25400211830254B2F
:105920009847D3E72025635D022BC8D818239B46F0
:10593000A3445846C8470028C8D053461B88002BAC
:10594000C4D1635D220001336355002110E01823A8
:105950009B46A3445846114B98470028B6D0114B9C
:105960001B88002BB2D122002100635D01336355F7
:105970000020114B9847FA21104B89001869104BF1
:1059800098470C4B0100584698479FE70D4B9847A6
:1059900095E7C046480000209DAD000091F1000051
:1059A00001AD0000E0290020455F000081E6000015
:1059B000D9B000007DF10000ED7C000088280020B7
:1059C0002D050100B95E000070B50848084DA847D4
:1059D000084C0948A0470949094B0A4898470A4812
:1059E000A8470A48A0470A48A04770BD8400002085
:1059F000C93C0000C93B0000FC0B0020915D000089
:105A0000D9AC0000680000205C000020640B00207E
:105A1000F40B002010B5002806D04168034B044861
:105A20009847044B984710BD0020FCE7B5B1000033
:105A300068000020C957000010B50248024B984783
:105A400010BDC046FC0B0020D13B000010B5002863
:105A500002D0024B984710BD0020FCE7BD3C00007F
:105A6000F8B5DE4657464E4645468246E0B51948EB
:105A7000194B9847041E29D000239946174B00263E
:105A80009846174B24279B46E55DB54208D3210075
:105A9000EA0808315046D847002801D12E00A14617
:105AA0002000C047041EEFD14B46002B07D04946CB
:105AB00008480C4B9847494606480B4B98474846C0
:105AC0003CBC90469946A246AB46F8BD0023994699
:105AD000F5E7C046FC0B0020D13B0000BD3C0000B8
