S01E000053445F4D4D435F4558414D504C4532325F46617446532E7372656351
S1130000E82100203D2A0000392A0000392A000096
S113001000000000000000000000000000000000DC
S1130020000000000000000000000000392A000069
S11300300000000000000000392A0000392A0000F6
S1130040392A0000392A0000392A0000392A000020
S1130050392A0000392A0000392A0000392A000010
S1130060392A0000B9170000C9170000D917000089
S1130070E9170000F917000009180000392A0000E8
S1130080392A0000392A0000392A0000392A0000E0
S1130090392A00000000000000000000392A000096
S11300A0392A000000000000392A00000000000086
S11300B00000000010B5064C2378002B07D1054B37
S11300C0002B02D0044800E000BF0123237010BDC0
S11300D0980000200000000090630000084B10B559
S11300E0002B03D00749084800E000BF0748036815
S11300F0002B00D110BD064B002BFBD09847F9E72D
S1130100000000009C000020906300009063000049
S11301100000000070B507258C1A0734E117294048
S11301200919C9104018411E2A400978D6181141EE
S1130130082E0DDD841E24780135AD1AAC40214310
S1130140102E05DD102403380078A21A90400143D4
S1130150012098400138084070BD000010B5074BDD
S1130160074819680078CB1CDB7F064C5A1E934164
S11301704A7CDBB20968A04710BDC046B400002029
S1130180BD000020A10D000070B5FF26084D002120
S11301900848094B9847041E02D10024200070BD72
S11301A0064B98473042F9D0013D002DEFD1F4E7DA
S11301B0410D03000D1B0000AD0F0000C10F000036
S11301C010B5034B1878002801D1024B984710BD95
S11301D0BD000020F50D000070B5042300281BD1DC
S11301E0374C237A5A09D90967D13648D2011218F3
S11301F0156A01261F22134032009A40A37B154042
S11302000CD0B34205D1304B1B78002B01D02F4BBF
S113021019600423A3730223180070BD042B26D194
S1130220A6732A4C284A2068294B00280BD1167043
S11302309847FA21274B49019847FA239B005843D2
S113024060602660E7E7280015709847FA220023CB
S113025092002900204CA0470023204A204C8018FB
S11302605941204A0023A0471F4B9847D3E7012B4D
S113027012D1154B1B78002B05D0144A02231168A8
S1130280C903C9D515600223A373184B0022236048
S113029001236374E31CDA770323A27B9A42BBD065
S11302A00022134B1A70134B1C60134B9847A37B0B
S11302B0023B5A425A41D3B2AEE7036AFFDEC0465C
S11302C00C00002000440041BC00002010E000E0CD
S11302D0F9270000B1440000F5470000571B000057
S11302E0B5470000581B000001000020801A0600DA
S11302F0BD000020B40000205D01000073B501249E
S11303000B4D10222B680B4899890B4E090400945D
S11303102300B047002801D1002076BD28682100C1
S11303201230064B98470028F6D0054B9847F4E75F
S1130330B400002009110800510E00003D10000017
S1130340A5100000042210B5034B9A73034BFB3233
S11303501A70034B984710BD0C000020BD0000200C
S1130360990C0000F0B5CA4B89B098470290012857
S113037004D0C84B9847029809B0F0BD6A460024DF
S1130380C54D127A2B681C749C81DA73C34B984751
S1130390882021004001C24CA047002812D0D52655
S11303A076003100BF48A047002800D1A2E1BE4B2F
S11303B09847431C00D19DE10005000D029BB0420B
S11303C000D198E10324B44B1B689C73B14B98474C
S11303D00294D0E7B548A047002800D1A6E1B84769
S11303E0430004D508232A68D17B0B43D37300212F
S11303F0AF48A0470028E5D02B68DB7BDB0700D49F
S113040026E1AC4B98470028DCD02F6808233E0037
S11304101236602280213000A74DA84707234206E8
S11304201840A64B8000C158FA239B004B43120F7F
S1130430A349920052583000534380213B607E22EE
S11304400223A847002800D1E8E0162330228021A7
S11304503000A847013040027860B98999480904FE
S11304608F4B98470028ADD00125082200952B001A
S113047000219548954CA0470028A3D0290006A840
S1130480934B984700289DD0924B9847002899D0C9
S113049004233822402106A8874EB0477E4CA84248
S11304A000D1D2E0002802D0022800D1DCE0236889
S11304B01022CCE07D48A047002883D0B847C02351
S11304C0DB0518408023DB05984204D108232A6801
S11304D0D17B0B43D37300217548A047002800D17A
S11304E070E7744B9847002800D16BE72C6804230D
S11304F0250012357A22802128006F4EB04701383A
S11305001223032804D803F0C9FF02838587142328
S11305102374602208238021674F2800B8470723EB
S113052042061840654B8000C158FA239B004B4398
S1130530120F6949920052582800534380212360C6
S11305403E220C23B847654B060098420FD0032384
S11305502F2280212800B847013602308640042328
S1130560502280212800B8478640B60A6660237C62
S11305703F2B39D900218022009101239200584851
S1130580524CA047002800D11CE7322405A8554D41
S1130590A847002800D115E7013CA4B2002CF5D1EE
S11305A03D4E0C233068444C12303E228021A0473B
S11305B04A4B322498420ED12E3C06A8A847002864
S11305C000D1FFE6013CA4B2002CF6D1069B3268B0
S11305D05B085360363406A8A847002800D1F1E62A
S11305E00134A4B2802CF6D180213F4889002C4BE1
S11305F09847002800D1E5E63C4B9847002800D1F5
S1130600E0E63B4B98470022234B1B689A73B0E605
S113061022237DE730237BE7402379E70C233E2226
S113062080213000A847032304002F2280213000BA
S1130630A847013402308440042350228021300032
S1130640A8478440A40A7C6007E71A2223681A7426
S11306500922114C2368DB7B1340012B0FD0236844
S1130660DB7BDB07C8D4CCE72B002F22402106A874
S1130670B047236830220128E9D02022E7E780210F
S113068019488900064B98470028E8D19AE6C046E5
S1130690D9010000C1010000B40000201D0E0000BB
S11306A0AD0F000008550000C10F00003A0500001E
S11306B03B110000FD02000015010000805B0000FA
S11306C09C5B00003711000033110800510E00003C
S11306D03D100000A5100000405B0000FF0F00006B
S11306E008110800CD0F000010110000890100005E
S11306F05D01000000232A68D27BD20700D47BE688
S11307009B07184E039300211748A04700280DD0DB
S113071003991648A047002808D0154FB84701216F
S1130720014000D156E6013E002EECD10223882080
S11307302A680021D3734001A047002800D141E674
S1130740084E00210B48A047002800D13AE6084F84
S1130750B8470121014000D1ACE6013E002EF0D1A2
S113076030E6C046EF1B00003711000029110000DD
S1130770C10F000001110000064B10B5984700237B
S1130780984204D1044B9847044B1B68DB7B180048
S113079010BDC046D9010000C1010000B400002012
S11307A0064B10B598470023984204D1044B984750
S11307B0044B1B685B68180010BDC046D9010000DB
S11307C0C1010000B40000200020704773B5144B31
S11307D00E0014009847051E06D1124B98470028B6
S11307E004D1114B98470525280076BD012C15D856
S11307F00E480F4B1B68DB7B1B0700D476020123DA
S1130800802200933100230092000A4EB047002852
S1130810E7D0094B1C80094B1C80E5E70848E8E752
S1130820D901000089010000C10100001111080074
S1130830B4000020510E0000B8000020BA000020CF
S11308401211100010B5074B0C009847064B0028F6
S113085002D11880053010BD19880020091B1980A9
S1130860F9E7C0463D100000B800002010B5114B58
S1130870040098470523002810D00F4B002C09D002
S113088000221A800D4B1B88012B09D10C4B984771
S1130890002303E01A882300002AF3D0180010BDB7
S11308A000210848084CA047011EEFD10548A04785
S11308B0ECE7C046A5100000B8000020BA000020F4
S11308C0C10100000C310000AD0F000073B5124BE4
S11308D00E0014009847051E15D1012C15D80F4899
S11308E00F4B1B68DB7B1B0700D47602012380229D
S11308F000933100230092000A4EB047002806D12D
S1130900094B98470525280076BD0848E8E7084BB9
S11309101C80084B1C80F6E7D901000018910800E0
S1130920B4000020510E0000C10100001991100014
S1130930B8000020BA00002010B5074B0C009847FF
S1130940064B002802D11880053010BD19880020FC
S1130950091B1980F9E7C046A9100000B80000205F
S113096010B50A4B04009847052300280CD0084B07
S1130970002C05D000221A80064B9847002303E080
S11309801A882300002AF7D0180010BD1D1100009A
S1130990B8000020C101000070B50E4B0500984757
S11309A00324012813D0002807D0023C02280ED1CA
S11309B00022094B04005A5509E0074B5C5D002CEA
S11309C004D1064B28009847830700D10224200055
S11309D070BDC04665030000BE000020790700001A
S11309E010B50020014B984710BDC046990900007E
S11309F070B5054B0D00040098474000013828608D
S1130A00024B2000984770BDA1070000990900001F
S1130A1010B50100014B0020984710BDF1090000FA
S1130A2010B50020014B984710BDC046C90700000F
S1130A3010B50C4B140001229847002805D0023849
S1130A40434243410133180010BD074B01212000EC
S1130A50984701230028F6D1044B9847431E984138
S1130A60C3B2F0E7CD070000450800006D080000A0
S1130A7010B50A00024B01000020984710BDC04683
S1130A80310A000010B50C4B1400012298470028CD
S1130A9005D00238434243410133180010BD074BCF
S1130AA001212000984701230028F6D1044B9847E0
S1130AB0431E9841C3B2F0E7CD0800003909000095
S1130AC06109000010B50A00024B0100002098479C
S1130AD010BDC046850A000037B56B46991DFF233B
S1130AE0094D01222800094C0B70A0476A46084BA7
S1130AF0D11D1B88012B05D1FD33280001220B7069
S1130B00A04737BDFC23F8E7C0000020211C0000EB
S1130B1002010020F7B56B46FF240F4EDD1D0122B4
S1130B20230029000D4F30002C70B8472300012208
S1130B3029003000B8470A4CFF2301222900300065
S1130B40064F013CB847002C04D02B78FF2BF3D17F
S1130B500120FEBD2000FCE7C0000020151B0000A2
S1130B60410D0300F7B56B46DD1D00230F26114C24
S1130B702B70013C002C04D1042220000E4B1A706F
S1130B80FEBD0122FF2329000C480D4FB8472878E9
S1130B900200B24309D10721074B084002D0197063
S1130BA01000EDE70B221A70EAE7FE28E1D1FD38C8
S1130BB0E6E7C04621A1070001010020C000002093
S1130BC0151B000037B56B46991D0123124D5B427E
S1130BD00B8002222800114B98476B465C1D2800AD
S1130BE0FF23012221000E4DA8471120237818402D
S1130BF0012804D001220B4B1A7000203EBD1E2296
S1130C001340042BFAD0074A0A2B02D1023B13707B
S1130C10F3E70A23FBE7C046C0000020211C0000C4
S1130C20151B000001010020F7B5134B1D882C0093
S1130C30012D1FD0114B01241988114B1868114B39
S1130C409847854216D86B46DD1DFF230E4F2200C0
S1130C5029000E4E38002B70B047FD2322002900D6
S1130C6038002B70B0470A4B9847041E02D1052266
S1130C70084B1A702000FEBD02010020FC00002079
S1130C8008010020B1440000C0000020211C000025
S1130C90150B000001010020F0B500252F4B91B089
S1130CA001261D706B46694617202D4F1D705E701E
S1130CB09D70B8470D236B4402ACDD7729000C22EC
S1130CC0284B08A8267025746574A674E6742575E7
S1130CD003950495984780235B02E360224B234DE0
S1130CE0A362234B2200E362224B23492363234B59
S1130CF028006363224BA361224B98472C68224B44
S1130D00200098471F2318408640204B1E602B6804
S1130D10DD69002DFCD1022322681D4E134323609C
S1130D2001241C4A1C4B107801A95D709D70187039
S1130D3030707570B5704C708D700C70B847327827
S1130D405309D10908D11F310A409440134ADB01E9
S1130D509B189C6111B0F0BDAD61FFDE0101002064
S1130D605D120000774A000003002200C00000204A
S1130D700300230003003600001C00420300370078
S1130D80801A06004D1900008D17000000E100E0F4
S1130D90FE000020300000200C010020004400412F
S1130DA000220E4B70B51A700D4B06000C009942D0
S1130DB000D91C000B4D210028000B4B9847172825
S1130DC008D003214E430949280089190122084B00
S1130DD0984770BDE308E41AECE7C046010100201F
S1130DE080969800C0000020C1180000FE0000207A
S1130DF0A51B00000321002210B54843034B0449FE
S1130E001A700918034B0448984710BD01010020CB
S1130E10FE000020A51B0000C000002037B56B4673
S1130E20DD1DFF2300220A242B70064B1A70013C9F
S1130E30012229000448054BE4B29847002CF6D15E
S1130E4037BDC04601010020C0000020211C000065
S1130E50F0B589B00292FF22039304AB9A71002289
S1130E603F24494B01901A70019B06A81C40402363
S1130E70234303700B0E43700B0C83700B0AC37077
S1130E8008261300092701713100845C5B00DBB282
S1130E901D0065402D0600D57B4001396400C9B2B0
S1130EA0E4B20029F2D10132052AEDD101245B001C
S1130EB0364F234306AE737104AB991D2200344DA3
S1130EC03800A847310006223800A84704ABD91DD2
S1130ED0FF23220038002F4C0B70A047072404ABDB
S1130EE0DE1D0122FF23310028482A4DA84733780C
S1130EF05AB2002A09DA013CE4B2002CEFD10222F2
S1130F000020214B1A7009B0F0BD0824224E1C4069
S1130F10336001D00622F3E7042009221840EFD100
S1130F200122934302D0184B1A70ECE7019B9B04F7
S1130F3005D51A4B9847002801D10322F3E7019BFA
S1130F409B0507D50023012233603100FF330F488E
S1130F50104CA047019B5B0509D50F4CFF230422CD
S1130F60210038000B4DA84723681BBA23606A464A
S1130F700B4B128901201A806A460A4B92891A8007
S1130F800022094B1A60BEE701010020C0000020C6
S1130F90211C0000151B000004010020150B00009B
S1130FA0FC0000200201002008010020002213B5EB
S1130FB013000092014CA04716BDC046510E00001C
S1130FC0014B18687047C046040100200022F0B5A8
S1130FD0134B144C144E85B001901A703188134F82
S1130FE02068B84700290ED0FF2301A90422104825
S1130FF0104DA84723683188181D2060B847002980
S113100007D0012003E00C4B98470028ECD105B031
S1131010F0BDFF23022203A9064C0548A047F0E7D0
S11310200101002008010020FC000020BD45000053
S1131030C0000020151B0000650B0000F0B5002463
S11310400D00124B85B001901C70002D02D10120BF
S113105005B0F0BD0E4B9847013DADB20028F7D066
S11310600C4F019B3A8819190B4EFF230B48B047CC
S11310700B4A3B881168E418CB18136003A9FF23BB
S11310800222054E0548B047DFE7C04601010020B3
S1131090650B0000FC000020151B0000C0000020B0
S11310A00801002001207047F7B50024134D01907A
S11310B02C704F1EBFB2002901D101201AE0104B41
S11310C09847104E019B328819190F480F4B9847C7
S11310D00F4A33881168E418CB1813600D4B9847F6
S11310E0002807D0002F06D00B4B9847002802D1C8
S11310F005232B70FEBD3900DBE7C046010100204B
S1131100D90A0000FC000020C0000020211C0000BF
S113111008010020C50B0000150B000010B5054B9D
S11311209847002803D10522034B1A7010BD034BC6
S11311309847FBE7150B000001010020290C000073
S113114070470000030010B50120002B01D1014BB2
S1131150984710BDE109000010B50123002803D110
S1131160024B080098470300180010BD110A000044
S113117043425841C0B27047030010B50120002B10
S113118001D1014B984710BD210A000010B501237D
S113119004000800002C03D1024B110098470300FF
S11311A0180010BD710A000010B5012304000800E6
S11311B0002C03D1024B110098470300180010BD06
S11311C0C50A0000094B196800290BD1EFF3108000
S11311D0074A002805D172B6BFF35F8F054908702E
S11311E0012111701A6801321A6070471001002041
S11311F01401002031000020084B1A68013A1A60DB
S11312001B68002B09D1064B1B78002B05D001224B
S1131210044B1A70BFF35F8F62B670471001002051
S11312201401002031000020F7B50125002701AC8E
S1131230084E210013206570A7702570B0478022E6
S1131240054B12039A6121001C2027706570B0477A
S1131250F7BDC0465D1200000044004107B580227E
S113126001AB1A700A785A704A789A708A78190011
S1131270DA70014B984707BDDD29000003689A7AAC
S113128052B2002AFBDB022219880A431A807047F3
S113129003689A7A52B2002AFBDBC12202219A71B6
S11312A01A721A888A431A807047000070B50500C4
S11312B0064B046898472A68937A5BB2002BFBDBE1
S11312C0012322881343238070BDC046911200007D
S11312D010B5CB88C2880C799A1A4B7964049B05A3
S11312E023438C7892062403234313430279002A70
S11312F005D1CA78002A02D08022520213434878CA
S11313000A7880011043184310BD70B50F251F26BD
S1131310C4888B0E1B198C0D2C4054714C0C34401A
S1131320D380147100790B0B002808D033409370DC
S11313303F208B09034001405370117070BD2B4056
S11313409370CB03DB0FD370F2E700000A004179FE
S113135010B5036800290AD10C49598001688C7AB8
S113136064B2002CFBDB1969094B984710BD5988FE
S11313704904F8D4C0215C8809020C435C800168EC
S11313808C7A64B2002CEEDAFAE7C0460080FFFFE4
S11313900B13000070B517230E001500012A0CD89A
S11313A0074B04689847A37A5BB2002BFBDBED0084
S11313B06419A061337A23770023180070BDC046F6
S11313C0D1120000202337B514001C4A0160916932
S11313D005000B439361022301A90B700420184BF1
S11313E098470420174B9847174B280098472379B0
S11313F02B71E3786B71E388EB80144B1D602179CA
S11314002A682388002916D008210B43A1780029D3
S113141001D080210B431380E378002B04D0802378
S11314205188DB010B43538021002800083100223E
S1131430074B984737BD4821E7E7C0460004004002
S11314400929000081280000AD1200007801002065
S113145095130000F0B5002489B0009201933F2356
S1131460002600272500069007910393039A134B47
S1131470012000219847B6197F41069B079A034033
S11314800A4004960597134303D0012333431E00F7
S1131490059F019BBB4209D802D1009BB34205D8EA
S11314A0009A019BB61A9F4104430D43039B5A1EA5
S11314B00392DBD22000290009B0F0BD9D47000053
S11314C010B54908040000234020A14201D210BDF8
S11314D00300581C091B80B28C42F9D94020FF2B11
S11314E0F5D813800020F2E7F0B585B01E000AABF2
S11314F00D00197803004B4303924027AB4217D8E1
S1131500002E18D10200330008001B4C3100A04704
S11315102A0001003300194C3000A04700220123A7
S1131520121A8B41140C180404430027039B1C80DB
S1131530380005B0F0BD0024012EF6D10A002300C6
S113154021000D4EB047009001910B0002002100D4
S113155028000A4CA047802306009B019842E7D844
S1131560009A019B690FE800A047F400041BE4B251
S113157064033443D9E7C046F5470000551400001E
S113158037B50D4C05002378002B01D000290CD071
S113159001A91320094B0D7098471320084B984755
S11315A001230020657023703EBD63780800AB42C0
S11315B0FAD01D20F8E7C0461501002009290000D3
S11315C081280000394A030000B50800934233D053
S11315D007D8374A934214D0364A93421FD0002387
S11315E017E0354A93423AD0344A934244D0344ABD
S11315F09342F4D1002303290BD802F04FFF502A61
S11316002C2E0023032904D802F048FF43020507C7
S11316102C4B180000BD2C4BFBE72C4BF9E70023A7
S11316200329F6D802F03AFF37020406284BF0E704
S1131630284BEEE7284BECE700230329E9D802F016
S11316402DFF2C020406254BE3E7254BE1E7254B50
S1131650DFE7254BDDE7254BDBE7254BD9E7002307
S11316600329D6D802F01AFF1D020406214BD0E745
S1131670214BCEE7214BCCE700230329C9D802F044
S11316800DFF120204061E4BC3E71E4BC1E71E4B9F
S1131690BFE71E4BBDE70323BBE71D4BB9E71D4B5B
S11316A0B7E71D4BB5E71D4BB3E7C046001000423A
S11316B000080042000C004200180042001C0042D6
S11316C000140042030005000300060003000700A5
S11316D00300010003001E0003001F0002000D00B0
S11316E002000E0002000F000300110003001200AC
S11316F00300130005003F0005003E0005005200F2
S1131700030017000300180003001900030004007D
S113171002000C0003001000050053000300160033
S113172070B586B06946094B6A4670CB70C170CB00
S113173070C1002399005158814202D1D8B206B039
S113174070BD0133062BF5D10020F8E7DC5B000007
S113175070470000F0B5094C094A2378002B09D1E1
S11317601E00084F084DD750EE500433182BFAD101
S1131770173B237080001150F0BDC04617010020B4
S113178018010020511700007C01002007B509232F
S11317906A46137001335370013393700133D3706D
S11317A00133137101335371024B98476B4618563A
S11317B00EBDC0462117000010B5024B00201B6867
S11317C0984710BD1801002010B5024B01205B683A
S11317D0984710BD1801002010B5024B02209B68E9
S11317E0984710BD1801002010B5024B0320DB6898
S11317F0984710BD1801002010B5024B04201B6946
S1131800984710BD1801002010B5024B05205B69F4
S1131810984710BD18010020002210B54309C409DF
S1131820944202D1DA01064BD2181F2318401E3B02
S11318308340002901D0936110BD5361FCE7C04689
S11318400044004170B5046805000A4B2000984725
S11318501F2318401E3B8340074AD3672A68D36975
S1131860002BFCD102228F33237523762368934304
S1131870236070BD8D17000004E100E003680520BB
S11318801A7ED20703D50020C905C90D9962704795
S113189030B50424036810221D7E25420CD05D8BD4
S11318A00022254201D05C831E3280799B6A012884
S11318B004D1DB05DB0D0B80100030BDDBB2FAE791
S11318C0F7B56B469D1D002304002B80194B066859
S11318D00F0098472068C369002BFCD1164B98472A
S11318E01430164BC0B298472A000100144B38003C
S11318F09847071E1CD12B7833732568EB69002B9E
S1131900FCD1104B280098471F2318401E3B8340EE
S11319100D4A13602268D369002BFCD12A68023374
S113192013432B602268D369002BFCD13800FEBD21
S11319301727FBE7451800002117000025290000A0
S1131940C11400008D17000000E100E0F0B50500AF
S1131950296014000A6889B00F001C23920700D57F
S1131960BAE001260B6833400193019A0523002A4B
S113197000D0B1E008005A4B9847811C8E40594B67
S113198014301A6A16431E62631DDB7F02AAC6B2B4
S1131990137011003000544B98473000534B984754
S11319A0631DD87F0199524B98472378012B03D1AB
S11319B03A680B3313433B602B002A0000260C3398
S11319C0283240C39342FCD12B003633AE86EE62FC
S11319D02E86AE621E705E709E70032328686B7242
S11319E03F4B2E7198470700424B43499847434B5E
S11319F0BF00FD50802302AA137101239371237841
S1131A002F685671D671002B00D196710026A36AF7
S1131A100493E36A0593236B0693636B0793B30004
S1131A2004AA9858F1B2002802D13800344B9847E0
S1131A30431C06D002AB1871000CC0B203A9314B91
S1131A4098470136042EEAD123786B71237CAB715D
S1131A50A37CEB71237D2B7202AB9E1C002333808D
S1131A602378012B10D11E4B286898471430264B3D
S1131A70C0B29847254B01003200A069984717234C
S1131A80002829D133783B73A3686268617C1A43C8
S1131A90E3681A43237C002903D11D498978890707
S1131AA001D580210A43A17C002902D0802189022A
S1131AB00B43E17C002902D0802189000B43217D66
S1131AC0002902D0802189010B4339680A433A6016
S1131AD07A6813437B600023180009B0F0BDC04648
S1131AE0211700000004004009290000812800009B
S1131AF08115000055170000AD1C00007C0100207A
S1131B00C5150000DD29000025290000C1140000CE
S1131B1000200041F0B585B00193030004000520C6
S1131B20009138331B781600834233D01230002AD8
S1131B3030D0E3790530002B2CD000256379012BBC
S1131B4008D122680121137E0B42FBD001992000A9
S1131B50124B984722680421137E0B42FBD002AB40
S1131B609F1D002339003B8020000D4B984700281F
S1131B7010D100993A886B1C4A55A1799BB201296E
S1131B800AD100990235120AADB2CA54013EB6B266
S1131B90002ED3D105B0F0BD1D00F7E77D1800007D
S1131BA09118000073B50E0041790500140015204A
S1131BB0012903D12A7A002A01D0002076BD307889
S1131BC0144B002C22D07478002C1CD02C68247E5A
S1131BD00C4202D198470520F0E7110098470E4BBC
S1131BE0B17828009847EB79002BE6D129680433B3
S1131BF00A7E1A42FCD06B460024991D2800074B2C
S1131C000C809847D9E721009847D6E798472000E9
S1131C10D4E7C046191800007D1800009118000090
S1131C200300F7B50400052038331B780F001500B6
S1131C30834203D012300026002A20D1FEBD0121A8
S1131C401A7E0A42FBD0A27973189BB2B95D012AAD
S1131C5017D01E0089B2134B20009847E379002B5C
S1131C6009D022680421137E0B42FBD06B4620006E
S1131C70991D0D4B9847013DADB2002D07D0236847
S1131C80DDE7FB5C02361B02B6B21943E3E7637976
S1131C902800012BD2D1216801330A7E1A42FCD0DC
S1131CA00020CBE77D18000091180000F8B5684BC0
S1131CB08000C458230022003733363225681B784D
S1131CC016781E402B7EAF7D1F40FB0734D562790A
S1131CD0012A31D1637A002B0DD15E4B1B88AB6294
S1131CE0638E013B9BB26386638E002B00D12A7501
S1131CF06379012B20D1637A002B1DD0E16A22681D
S1131D00481C0B78E062A079DBB2012851D09BB269
S1131D10DB05DB0D9362A38E013B9BB2A386A38EEE
S1131D20002B09D101332B75637A012B04D1E3799C
S1131D30002B01D10233AB7504210F4215D06B8BFC
S1131D400B423CD0637A012B0CD023001E22383383
S1131D501A700323637202332B75330702D52000F4
S1131D60A3699847AB6A04236B8302210F4214D002
S1131D706379012B11D1637ADBB2012B0DD1E279A6
S1131D80002A0AD1297501316172210038310A70A3
S1131D901E4202D02000E36898477FB2002F07DA82
S1131DA080232B752B76730602D5636A200098472F
S1131DB0F8BD4878023100020343E162A8E7627A81
S1131DC02368D2B29B6A012A13D1638E013B9BB272
S1131DD06386638E9BB2002BC7D1297521003831ED
S1131DE00B70033363721642BFD02000E368984738
S1131DF0BBE7DB05A16ADB0DDAB20A70A26A511CEB
S1131E00A162A179012904D11B0A5370A36A013389
S1131E10A362238E013B9BB22386238E9BB2002BAD
S1131E20A3D122003832137004332B75627A022A4C
S1131E3004D11E4299D020006369D8E7637A002B4D
S1131E4000D092E7B30700D48FE720002369CEE7E0
S1131E507C01002094010020F0B5070093B09E4B54
S1131E60396008001400049198470122049B06007D
S1131E701B680520134200D00AE1049B17301D683B
S1131E8002231D4000D003E1F3181B3898400300DF
S1131E90924A1436116AF6B20B43136223002D33AF
S1131EA002931B780CA90B7030008D4B98473000BF
S1131EB08C4B9847029B290018788B4B9847E37A00
S1131EC008267B71631DDB7FBB71A31DDB7FFB7168
S1131ED0E37E3B72237F7B723B68039318007E4B47
S1131EE098470EAB1D80238A143002938023029AF4
S1131EF0DB019A4214D008D8802310269B019A4211
S1131F0000D1C8E0102600250AE0C023029ADB01B4
S1131F109A4200D1BEE0802303261B029A42F1D1EB
S1131F2023680693E368079363690893237E099300
S1131F30E31DDB7F0A93636805932300059A083346
S1131F40002A00D1A9E080220599520591420ED1C0
S1131F50DB7F002B0BD1654BC0B2256A98470EAAD4
S1131F600100634B28009847002800D090E0637E6E
S1131F70002B02D0A37E039A93730EAE3388039A88
S1131F809381079A069B1343089A1343059A1343B4
S1131F90029A1343099A120213430A9A52071343EB
S1131FA022000832D27F002A01D104321343627E18
S1131FB0217F920249020A43617FE07A09020A43BF
S1131FC0611DC97F49040A43A11DC97F09040A434D
S1131FD0A17A01430A432189FF2900D173E08020BB
S1131FE0400403430A4321002C310978002903D11A
S1131FF040498978890701D580210B433868C16934
S11320000029FCD103994A603968CA69002AFCD1C5
S113201003990DAD0B6080232B70236B6A700E93B4
S1132020636BEA707360A36BAA70B360E36B140014
S1132030F360A300F058E1B2002802D104982E4BBB
S11320409847431C05D02870000CC0B229002B4BC4
S113205098470134042CECD13B0000243033FC8538
S1132060FC603C617C61BC61FC613C62BC627C6282
S1132070BC859C701C705C70DC703868164B98478B
S113208005001F4B1F49984720001F4BAD00EF5020
S113209013B0F0BD0826012542E7DB7F002B07D0F3
S11320A02B000096A16A206A0EAA184DA8475BE788
S11320B0236AC0B20B930D4B9847009601002B0086
S11320C00EAA0B98F1E7E17E002900D18BE780216D
S11320D0C9040B4387E7C0462117000000040040F1
S11320E0092900008128000081150000252900002D
S11320F0C114000000200041C5150000DD290000C6
S1132100551700009D2100007C010020E914000007
S1132110C2791C23002A0AD0C28D173B002A06D19B
S1132120036802321985197E1142FCD0002318007D
S1132130704710B582791C23002A11D0828D173B79
S1132140002A0DD102680420147E044208D0538B67
S1132150DBB29C061DD00224234203D01A235483ED
S1132160180010BD034202D050831E23F8E701205B
S1132170034202D050831323F2E71020034202D01B
S113218050834223ECE72020034202D050834123B2
S1132190E6E7138D0B800023E2E70000F8B5584B07
S11321A08000C4582568EB69002BFCD12B7EAF7DE1
S11321B01F40230030331A785E78012316401F42F3
S11321C019D0E28D002A00D172E0A26A511C137862
S11321D0A1626179DBB2012964D09BB2DB05DB0D1E
S11321E02B85E38D013B9BB2E385002B03D10133A7
S11321F02B750133AB7502231F4209D02B752300C5
S1132200002233331A70F30702D52000E36898479D
S113221004231F4227D0A28D002A00D16DE06B8BCE
S1132220DBB21A0746D43F22134045D002221A21BA
S113223013420FD104221E2113420BD10122132178
S1132240134207D110224221134203D12022134208
S113225004D041212300323319706A83730702D5F5
S113226020006369984710231F4206D02B752B76F4
S11322701E4202D02000E369984720231F4206D063
S11322802B752B76330702D52000A36998470823C2
S11322901F4206D02B752B76B30602D5236A200085
S11322A09847F8BD5178023209020B43A26295E7C0
S11322B02B75A0E73722B7E72B8D616ADB05DB0DB1
S11322C0DAB20A70626A511C61626179012904D12F
S11322D01B0A5370636A01336362A38D013B9BB293
S11322E0A385002BBFD104222A7522003232137039
S11322F0B307B8D520002369B4E72B75B3E7C0460C
S11323007C01002010230249CA681A42FCD070479D
S1132310000800400222F8B50026094D094C2B683C
S1132320094F13432B60A284B847AB68E3626B6820
S1132330A362A684B8472B6830009BB2A384F8BD7F
S113234030010020000800400523000070B5082873
S113235006D802F0A3F80805053030120B15280042
S11323600024200070BD164B1C69FAE7154B164C6F
S11323701B6A9B059B0FDC40F3E7114B5C69F0E79C
S11323800F4D00242B689B07EBD5104B9847242254
S11323902B681340042B11D120000D4B9847AC68D7
S11323A0A4B24443DDE70B4B00241B785B07D8D56C
S11323B0034BDC68D5E780242402D2E7064CD0E73F
S11323C0300100200008004000127A0005230000BC
S11323D02529000050080040006CDC0270B58478A8
S11323E00278457801204026054020408024084991
S11323F0AD010B6AC001B3432B43A3430343032042
S1132400024004481202034013430B6270BDC046ED
S113241000080040FFFCFFFFF0B5224B427807782C
S113242085B09C469B8A03927A425741427B8478CA
S1132430C57806790192027B0292817B1A4A8068F0
S11324405061B80004270122BB43184308231540F8
S1132450BD4016409843F6000643DB189E433543BF
S113246010339D432B004020144064012343029CFD
S113247083431440A401234380240198A3431040C0
S1132480C00103430720039C11402040074C000275
S11324902340074A03431A40634609030A439A82C6
S11324A005B0F0BD0008004030010020FFF8FFFF38
S11324B0FFEFFFFF10B5027A438992069B059B0D3F
S11324C0120C1A43174B5A60C179827984880A43E3
S11324D0418821430A4341780478C9010A431A60B8
S11324E0042C0DD1027B018A92060A43C1890E484D
S11324F0090401400A439A601A6814431C6010BD21
S1132500202CFCD1027B018A92060A43C189064829
S1132510090401400A439A601968044A0A431A608C
S1132520EDE7C046300100200000FF032404000052
S113253010B5082806D801F0B1FF1405050C0E1AD1
S113254007202300172010BD0223104A116A0B43F1
S113255013620020F7E702230C4A91690B4393614D
S1132560F7E70223094A118A0B431382F1E7022396
S1132570064A918A0B439382EBE7054B9847E2E7BF
S11325800223044A11780B431370E2E70008004069
S11325901523000044080040C2231E22F0B5444F16
S11325A0DB004449BB604B68002493431A000423B6
S11325B013434B6002238FB009AD2B70E0B22900A6
S11325C03D4B01349847252CF8D1802205A80023DF
S11325D0120282600621012203708370C370837328
S11325E04373364B02714170027398470520344C93
S11325F0A0470223FA681A42FCD000233F226B80D2
S1132600AB80AB71EB716A816B703B3A2D4B2A70D6
S11326101B689B0E3F2B00D1203B2B72B723DB00A2
S11326202B8203232B731C330126EB812800002506
S1132630254B984701A8254B86700570467098472E
S11326400620A047224B9847052302AC21002370A3
S11326503000204B666065702572657298473000C3
S11326601D4B984721002800134B267098472800DB
S11326701A4B98471A4B9847D022FB681340D02B2B
S1132680FBD10025174B07221D725D729D72DD720E
S1132690012321006360237228000E4B22706570B1
S11326A06572984728000C4B98470FB0F0BDC046A0
S11326B000080040004000410929000019240000DE
S11326C03125000024608000B5240000DD230000D3
S11326D0F526000015270000B92700008128000016
S11326E01523000000040040014B5878C0097047CE
S11326F0000C00400823054A91690B4393610123B0
S1132700034A137011781942FCD170470004004049
S1132710000C0040F8B50C784B7824020600050044
S11327200443002B02D08023DB021C434B7A002B92
S113273002D080231B031C434B68012B12D95D1E5E
S11327401D400222002D06D01D02802335439B022A
S113275007E0013552009A42FBD380232D02354312
S11327605B031C430B7A002B02D080239B031C4386
S11327700C4FB8470028FBD10B4B98470B4B1E70EE
S1132780B8470028FCD10A4B9D601D00B8470028BB
S1132790FCD180226B68520213401C436C60054BD1
S11327A09847F8BDE9260000C5110000080C004058
S11327B0000C0040F911000070B50500094CA04759
S11327C00028FBD1084B9847084B1D70A0470028F0
S11327D0FCD18023064A5B0251680B435360054BCE
S11327E0984770BDE9260000C5110000040C0040A4
S11327F0000C0040F9110000F7B50700184EB0476F
S11328000028FBD1174B9847174B1F700193B04713
S11328100028FCD1154D164B6868C004C00E9847BB
S11328200400019B1F706B68DB02DB0F0193114BEB
S11328301F70B0470028FCD1AD680F4B9847019B2F
S11328402D022D0C002B08D1012D04D920002900C4
S11328500A4B984704002000FEBD0135EC40FAE71E
S1132860E9260000C5110000040C0040000C0040E3
S11328704D230000080C0040F9110000B144000091
S113288010B50400064B9847064B074A1C7080237A
S11328905188DB010B435380044B984710BDC0465D
S11328A0C5110000020C0040000C0040F9110000AA
S11328B010B504000E4B98470E4B0F4A1C700F4B7B
S11328C00F4C588859880005114059805988000FC9
S11328D02140598011008022D2015C881442FCD12D
S11328E05A8800020A4002435A80064B984710BD9A
S11328F0C5110000020C0040FFF0FFFF000C004077
S1132900FFBFFFFFF911000010B50C78034B240240
S113291004439847024BA4B25C8010BDB128000068
S1132920000C004010B50400064B9847064B1C7081
S1132930064B5C88064B2405240F98472000054B62
S1132940984710BDC5110000020C0040000C004067
S1132950F9110000F9270000D37830B5002B35D1E8
S11329601478802C03D0802324065B0223430225A1
S11329705478AC4306D19478002C24D18024A4024A
S1132980234341605478013C012C01D8124C23406C
S1132990A0248DB2E4052C431C438462D0240D0C86
S11329A024062C431C438462D478002C0AD15B0394
S11329B003D59378012B0CD181615378013B012B12
S11329C000D8816030BDC024E402D9E7416000230F
S11329D0DEE74161F1E7C046FFFFFBFF10B50300EE
S11329E00A004409C1090020814202D10449E001DE
S11329F040181F210B401E399940024B984710BDC7
S1132A0000440041592900007047000010B5054BEF
S1132A109847054B9847054B9847054B9847054BF6
S1132A20984710BD9925000029120000092A0000CA
S1132A30092A0000092A0000FEE700002148224973
S1132A4070B5884204D00023204CCA18A24232D365
S1132A5000211F4B1F4A934231D3FF211E4B1F4AB3
S1132A608B43936002220C25082430261C4B1D48FE
S1132A705A62C378FC398B431343C370C378AB43A6
S1132A802343C370184B987BB04306002020304387
S1132A909873987BA84304439C73987B88430243B0
S1132AA09A738023114A51680B435360104B984723
S1132AB0104B9847FEE7C55804331560C5E702C3B9
S1132AC0C9E7C04690630000000000209800002081
S1132AD098000020E40100200000000000ED00E068
S1132AE0FC7000410050004100480041004000419A
S1132AF01D4A00003942000070B50E001400150094
S1132B00002808D0012040420CE0074B013D186822
S1132B10064B1B689847611B7118002DF5DCE043D8
S1132B20C017204070BDC046A001002098010020BD
S1132B30013870B50E0002280DD80C008D18A01BAA
S1132B40AC420AD0054B21781868054B01341B6848
S1132B5098470028F3DA0120404270BDA00100200C
S1132B609C010020054B02001968002901D1044989
S1132B701960186882181A607047C046480100201E
S1132B80E821002001204042704780239B0100205F
S1132B904B6070470120704700207047A02330B578
S1132BA087B001AA1B0113800023FA219370D3700C
S1132BB053729372D372154BC9000400D180042060
S1132BC00121D3810623124D1171107211735173B7
S1132BD0137428000F4B1049984728000F4B98474F
S1132BE0012C02D9012007B030BD20000C4DA847AC
S1132BF0032801D12000A8470028F3D1094B200065
S1132C009847431E98418000EDE7C046DE07000068
S1132C10A4010020C5130000001400407D12000030
S1132C204511000079110000054B10B59847031EAB
S1132C3003D00323022800D0023B180010BDC04675
S1132C4045110000F0B587B00293174B07000C0044
S1132C5016009847051E02D1012007B0F0BD134BA2
S1132C6005A938009847029A059B6A4301336B43D0
S1132C70921904209A42F0D86B0203930023019323
S1132C80019B029A934201D30020E6E7220031001F
S1132C90074B38009847039B7619E4180028DBD1CA
S1132CA0019B0133EBE7C04671110000591100008C
S1132CB08D110000F0B587B00293174B07000C008C
S1132CC016009847051E02D1012007B0F0BD134B32
S1132CD005A938009847029A059B6A4301336B4360
S1132CE0921904209A42F0D86B02039300230193B3
S1132CF0019B029A934201D30020E6E722003100AF
S1132D00074B38009847039B7619E4180028DBD159
S1132D10019B0133EBE7C04671110000591100001B
S1132D20A911000037B5042305001400032907D8AE
S1132D30080001F0B3FB1D070E02012323600023EA
S1132D4018003EBD0E4B01A928009847019B013392
S1132D50F4E70C4B28009847431EDBB2012B04D93F
S1132D60FB22043801231042EAD100232370E7E751
S1132D70054B28009847031EE2D00323E0E7C04632
S1132D8059110000711100004511000007B50E4BE8
S1132D900E48694698476B4658791B7940051B04D1
S1132DA018436B469B780A4ADB0218436B465B78F0
S1132DB05B0118436B461B785B0818436B46DB8842
S1132DC09B185B0618430EBD4D130000A4010020A0
S1132DD044F8FFFF002310B59A4200D110BDCC5C2B
S1132DE0C4540133F8E78218904200D1704701704F
S1132DF00130F9E782690239023A03000020914266
S1132E0003D298784143986A081870470100002358
S1132E100B315A08DB011343027801309B18DBB2F3
S1132E208842F6D118007047F7B5C56A04000E0051
S1132E308D4201D10020FEBD0379002B0CD1002E60
S1132E40F8D021006078012332003031144DA847B6
S1132E5000280CD1E662EEE703003033019340789A
S1132E6001232A0001990F4FB847002801D00120FF
S1132E70E1E7236AE26920719B189D42DFD2E3787F
S1132E800093009B012BDAD9E369064FED186078B3
S1132E9001232A000199B847009F013FFBB2EFE7E5
S1132EA0452C0000B52C000070B500212C4B04000B
S1132EB09847051E52D12378032B47D16379002B01
S1132EC044D02600802230360100E06292003000B7
S1132ED0244B98475522244B4121E254234B92180A
S1132EE0E2542200DE3BFF3B313233701370230087
S1132EF06122323385201A70597072238000235462
S1132F001B4823541B4BE1541B4BE2542369B83236
S1132F10FF32A354194A190AA154194A190CA1548D
S1132F20184A1B0EA354E3680132A354164A190A23
S1132F30A154164A190CA154154A1B0EA35431006E
S1132F40607801236269134EB04765710022124B09
S1132F50607811009847431E9841C0B270BDC046C6
S1132F60292E0000E72D00002E0200002F02000091
S1132F7015020000160200001702000019020000EA
S1132F801A0200001B0200001D0200001E020000C5
S1132F901F020000B52C0000252D000010B50923E8
S1132FA000280CD00278002A09D0C2888A4206D1AF
S1132FB0044B407898470323C007C0170340180008
S1132FC010BDC046292C00000A00010070B5012381
S1132FD0040030314078164DA8470323002824D13B
S1132FE0144B154AE35CA25C1B021A43134912B248
S1132FF002238A4219D1230066335A88198812049D
S11330000A430F491202120A03008A420DD0230018
S113301084348233188823880A4A1B0403431B021E
S11330201B0A9B18581E8341DBB2180070BDC046B2
S1133030452C00002F0200002E02000055AAFFFFBD
S113304046415400BABEABFFF0B5036885B01D78A5
S11330501600303D092D1FD85A783A2A1CD1023364
S113306003600B23072D14D8884BAA00D4580C23D3
S11330700C60002C0DD02378002B0FD0844B60788B
S113308098470123034009D1002E02D0420700D5FE
S11330900A23180005B0F0BD0025E5E70023E8B2D7
S11330A0237060707B4B98470323C207F1D4002E32
S11330B001D04307ECD400212000774DA847002617
S11330C0012816D1F9235B00E35CB34201D10D233F
S11330D0DFE7FB235B00E118E65C4B7820001B0272
S11330E033438E7836043343CE7836061E4331009C
S11330F0A84701230328CCD00028E8D123003C337F
S11331001A78013B1B781202134380221BB29200EF
S11331109342DCD1230047331A78013B1B78120217
S1133120134300D19FE00093009BE36123004033ED
S11331301B785A1EE370012AC9D822003D32117847
S1133140A1700029C3D04A1E1142C0D122004232CC
S11331501778013A12783F02174327813A07B6D10C
S1133160220044321078013A12780002104300D150
S1133170206D220025003F3212783E352D78120250
S113318015430195A3D0009A5A4303923B09039A2D
S11331905B199B180293984299D3C01A3F4B9847E6
S11331A0002894D03E4B0125984204D93D4D8542D8
S11331B0AD416D420235029B0230F318A362019BBC
S11331C0A061F3182362032D4FD1002F00D07EE7B6
S11331D0E36D80006362344BC018009B400A834255
S11331E000D274E701235B4223610023E360032DD3
S11331F02ED1637123002200210061331B786032D9
S113320012781B021A4392196261607801233031EB
S1133210264EB04700281BD1254BE25C254B1202F9
S1133220E35C1343244A1BB2934211D1234B226B18
S11332309A420DD185229200214BA2589A4207D17D
S113324087239B00E358E36086239B00E3582361B4
S11332501C4A2570138801339BB21380E38000233A
S1133260E362237115E7636D5DE7002F00D12EE75C
S1133270039AD3186362022D01D14000ABE7032304
S11332800122434310405B081818A4E74C010020B6
S1133290292C00009D2B0000C92F0000B144000020
S11332A0F50F0000F5FF0000FF010000452C0000B1
S11332B02F0200002E02000055AAFFFF5252614166
S11332C0727241616C010020F7B5012406000D0003
S11332D0A1422FD9836999422CD20378022B2ED094
S11332E0032B3ED0A34208D14F08036A7F18790A02
S11332F0C9182A4B9847002802D00124644219E0D7
S1133300FB05DB0DF31830331B7801370193336A67
S1133310790AC9183000214B98470028EDD1FF05E0
S1133320FF0DF61930363378019A1B0213432542F8
S113333002D01C092000FEBD1C05240DFAE7036A17
S1133340090AC918154B98470028D6D1FF236D00E8
S11333505B001D40761930367478337824021C43A0
S1133360E8E7036AC909C9180C4B98470028C4D177
S1133370FE23AD005B001D402B003033F318DC78D6
S11333809A78761912042406303614435B7832781E
S11333901B0214431C4324012409CBE7292E0000FB
S11333A070B50500E9800C008168012901D1022073
S11333B070BD03689A699142F9D2002917D11A782D
S11333C0032A02D1596A002911D10022EA601A891C
S11333D0A242ECD95B6A22099B182B610F222B684D
S11333E01440303364011C196C610020E0E79E78BE
S11333F03601B44207D20C4BE96028689847230988
S113340018182861EAE72868084B98470100431C0C
S113341008D00128CBD92B689B699842C7D2A41B3A
S1133420A4B2E6E70120C3E7F52D0000C93200008D
S1133430F7B505000C0016000220012940D9AB693C
S113344099423DD22F78874244D0032F54D0012F84
S113345034D14B085B18590A01932B6A2800C91808
S1133460344B9847002829D1019B2740DB05DB0D0D
S1133470EB18F2B2002F0AD01A000F21FF203032CD
S1133480127800010A40310101400A43D2B23033BC
S11334901A700123019C2B7101342B6A610AC9182B
S11334A02800244B9847002808D1E405E40D2C1982
S11334B0002F06D03609F6B23034267001232B7162
S11334C0FEBD23000F2230331B78360A9343164087
S11334D01E43F1E72B6A090AC9182800154B9847BF
S11334E00028EBD1FF2364005B001C402C1930340E
S11334F02670360A6670E1E72B6AC909C9182800E4
S11335000C4B98470028D9D1FE23A4005B001C4033
S113351023003033EB18DA782C19120912071643FA
S1133520320A303426705A70320C360E9A70DE70BD
S1133530C4E7C046292E0000F8B505000F1E0FD1C0
S1133540C668002E02D083699E4200D3012634004F
S1133550AB6901349C420FD3012E0CD8002408E03F
S11335601B4B98470400012830D9AB693E009842B0
S1133570EDD22000F8BD022421002800144B984706
S1133580002809D0431C02D101246442F1E7012838
S11335901CD0B442DCD1E1E70E4A210028000E4ED3
S11335A0B047002810D1002F08D12B69EC605A1CB9
S11335B0DFD0013B2B6101236B71DAE72200390074
S11335C02800B0470028F0D00128DDD00124D0E73E
S11335D0C9320000FFFFFF0F31340000F7B5C68881
S11335E004000136B6B20F00002E01D10420FEBD46
S11335F00369002BFAD00F223240009208D1C1682F
S113360001330361006800290BD10389B342EDD96A
S11336102368009A303352019B18E68063610020CE
S1133620E5E783783209013B1A42F1D1264B9847EA
S11336300500012801D80220D9E7431C01D101204B
S1133640D5E7206883699D4228D3002FCED0E16856
S11336501E4B984705000720002DC8D0012DEAD045
S11336606B1CECD000212068194B9847071EE6D14B
S113367080222068920030303900164B9847236826
S1133680290001931800144B9847019BD8622368C2
S11336909A78BA4209D8DA6AD71BDF62E560290052
S11336A020680D4B98472061B2E701221A7100216E
S11336B02068074B98470028C1D122680137D36A94
S11336C0FFB20133D362E2E7C932000039350000AA
S11336D0292E0000E72D0000F52D0000F8B50400A8
S11336E00D00012901D80220F8BD83690127994200
S11336F0F9D2A3699D4205D2290020000D4B9847B9
S1133700061E01D10020EFE70128ECD0431C0ED0A7
S1133710002229002000084B98470028E4D123699F
S11337205A1C02D00133236167713500E1E701209F
S1133730DAE7C046C932000031340000FF23F0B597
S113374005001C001F0087B0039329692868494BB2
S113375098470090002876D16E693378002B00D109
S113376084E03F22F17A0A40E52B00D170E009079A
S11337704FD50F2A00D06BE0EA690292002A00D1EB
S113378067E04022134261D09343717B1C00EB88B5
S113379003912B84737B039A934259D1402233784B
S11337A09343013B333A5A4300920022012301928E
S11337B0314A0199895C72185278705C1202104384
S11337C0002B4FD02D4B9847009B0590FE2B3FD8E4
S11337D001330493009B029A5B00985A274B984745
S11337E0059A0300824233D1049A0092019A01326D
S11337F001920D2ADCD13278520607D5002B05D070
S1133800009B029A5B009B5A002B21D1013CE4B23D
S11338101FE00F2AB0D0002C05D1194B3000984777
S1133820039B98420FD0012301215B42AA692B8498
S1133830D37A0B400CD1581CF15CD35C994207D16C
S113384003000B28F7D1009807B0F0BDA342A1D024
S11338503C00002128000B4B98470090002800D121
S113386073E7F0E7084A9042C0D0F1E704230093DD
S1133870E9E7C046292E0000F45B0000D9410000AE
S11338800D2E0000DD350000FFFF0000F0B501251E
S1133890C369876989B000930600824B0C22390002
S11338A005A8984702ABDB7D2B4263D00023FB7253
S11338B0F3617C4B0B2205A9380098472B00052D9A
S11338C00AD900995A08DB0313430A8802319B186A
S11338D00A889BB2002AF5D1072203A80F241C40B2
S11338E021003031392900D90731013A1B098418E4
S11338F09BB26170002BF1D17E2181549A4221D078
S1133900F95C20291CD103A82021072A01D8815C55
S11339100132F9540133072BF6D900213000624BF0
S11339209847041E1FD13000604B9847041E1AD1DB
S11339300135ADB2642DBCD10734200009B0F0BD0F
S11339400133DBE71300DEE7013080B2009A430065
S11339509B5A002BF8D119300D21554B984785B24D
S11339600EE0070029E0042CE7D102ABDB7DFB72FB
S1133970009BF36102ABDB7D012500209B07E5D4AE
S113398000213000484B9847041ED6D10700009010
S113399031693068474B9847041ECED173691B7850
S11339A0E52B01D0002BDCD1002F01D1F38800934B
S11339B07B1C9BB29D4207D01F00012130003E4B6F
S11339C09847041EE4D0B8E7012D4FD90099300080
S11339D0354B9847041EB0D1B069384B98470190D5
S11339E031693068334B9847041EA6D16A46F3699F
S11339F012799C4673690D245A730F22F9B2DA7254
S1133A004A1E54430094040018739876D8762C4DBB
S1133A10A84205D06546009A5000405B01320092EE
S1133A20284D655D58555A19050A5570002800D16E
S1133A30234801340D2CEAD1214CA04205D0604624
S1133A40009A5200125A002A01D1402211431970DF
S1133A5001233268002113713000174B9847041E6C
S1133A6000D06AE7013FBFB2002FB9D13169306895
S1133A70104B9847041E00D05FE7756901002022AF
S1133A802800114B98470B22064BB1692800984730
S1133A901822B369DB7A13402B733368173A1A710F
S1133AA04BE7C046D52D0000A13300003D37000090
S1133AB0C5450000292E0000DD3500000D2E000054
S1133AC0FFFF0000F45B0000E72D0000F0B50B7869
S1133AD087B0070001912F2B01D05C2B02D1019BF1
S1133AE0013301930024019BBC601B781F2B09D870
S1133AF021003800944B98477C6107B0F0BD019BCE
S1133B0001330193019B1B782F2BF8D05C2BF6D04B
S1133B100024FB690593019B2600185D651C1F2882
S1133B201BD92F2819D05C2817D0FF2C0ED00121C7
S1133B30864B9847002809D07F2809D80023844958
S1133B40CA5C002A04D001338242F9D10620D4E7AA
S1133B50059B640018532C00DDE7019B00245B19CE
S1133B6001931F2383426441A400002EEED0059AE2
S1133B707300D3189A1E1288202A02D02E2A00D04D
S1133B8085E0013EF1E7013305995A008A5A202A5B
S1133B90F9D02E2AF7D0002B02D003221443E4B22A
S1133BA072000599023A8A5A2E2A02D0013E002E4A
S1133BB0F6D1082202920022150004925A1C0392A4
S1133BC0059A5B00985A002876D0202804D02E2825
S1133BD007D1039BB34263D003231C43E4B2039B8A
S1133BE0ECE7049B029A93425ED2039BB34214D146
S1133BF0029B0B2B09D15AE0039BB34205D003234C
S1133C001C43039BE4B2B34256D80B23AD0002938A
S1133C10EDB20396033B0493E1E77F280FD94B4BA6
S1133C20002198470023984203D04A4B1818803843
S1133C30037898B202231C43E4B2002807D000237F
S1133C404549CA5C002A72D001338242F9D1032368
S1133C505F201C43E4B2BB69049A985413000133F7
S1133C60D9E702231D43F6E75B0700D545E77B69E7
S1133C70DA7AD20659D5597D1A7D09020A43D97ECA
S1133C809B7E090212040B431343BB603AE70025F1
S1133C901D800B22314B2021B86998472B0073E714
S1133CA0049B029A9342A3D3029B0B2BA4D103231C
S1133CB01C430833E4B20293BB691A78E52A01D1A4
S1133CC0E03A1A70029B082B01D1AD00EDB20C232F
S1133CD02B400C2B03D003222A40032A02D10222B8
S1133CE01443E4B2A2070BD403221540012D02D1E0
S1133CF00D321443E4B2042B02D104331C43E4B266
S1133D00BB690021DC7238000F4B9847002802D1B0
S1133D103800134B9847BB69DB7A0028A4D00428E9
S1133D2000D0EAE6034200D0E7E60520E5E603001A
S1133D30413B192B95D90300613B192B8BD80123E7
S1133D4020381D4380B286E7A13300009D41000066
S1133D50815C0000015C00008A5C0000E72D00002B
S1133D603D37000010B50B2307280BD80022064B63
S1133D708000C458944200D02270002900D00A70F8
S1133D8019500023180010BD4C010020F0B51F2766
S1133D901500002317401E224D4C0360A5440191D9
S1133DA04C4B06002A4005A901A8984702AB0B9387
S1133DB00EAB0C93002803D1019905A8464B9847F4
S1133DC00A9C002802D1002C00D106301C231D427D
S1133DD000D16FE000280DD0042802D105A83F4B84
S1133DE0984708230A9C1F4300280BD08F239B006D
S1133DF09D44F0BD1123E27A07201A42F6D1013026
S1133E006B07F3D43B072FD5354B9847030AE3736D
S1133E10030C23740023627D257DE17E1202A073CE
S1133E201543000EA27E607409020598E37223779D
S1133E306377A377E377A376E376237563752D041D
S1133E400A430133154303710ED0C36A290000935A
S1133E50244B98470028C9D10598013DC5600099B5
S1133E60214B98470028C1D13B0701D520231F438C
S1133E70059AD36A3462F361B771617D237DE07E74
S1133E8009020B43A17E0002014300201B040B43E3
S1133E903361617F237F09021943A37F1B04194304
S1133EA0E37FB0601B060B43F360B0613260D388DC
S1133EB0B3809BE7002899D1E37A0430DA0600D571
S1133EC094E7AA07D0D50330DB0700D58EE7CBE70C
S1133ED0C4FDFFFF49300000CD3A00008D380000DA
S1133EE08D2D0000DD360000292E0000F0B587B0CE
S1133EF0059300230192059A040013600D00654B9D
S1133F00818800689847061E3AD1A279022351B2EB
S1133F10002934DB1A4200D1BAE0E368019AD218CE
S1133F20934203D80295019B002B09D1A368E26850
S1133F30934200D9AAE02023A2791343A3711FE07E
S1133F40A368DA0500D083E020685A0A8178013931
S1133F500A40D2B20392002A24D1002B13D1216942
S1133F60002905D14C4B9847010020610029DDD080
S1133F7001290DD18023A2795B421343A371022648
S1133F80300007B0F0BD6169434B98470100EDE78D
S1133F904B1C06D18023A2795B421343A3710126F3
S1133FA0EEE761612068A269C36A934204D10021EB
S1133FB03A4B98470028EDD1276861693800384B9F
S1133FC098470028D6D0039BC3180493019B5D0A2D
S1133FD02FD0039ABB7852199A4201D9039A9D1A99
S1133FE07878EBB22F4F049A0299B847071ED1D1C3
S1133FF02068049AC36A991A8D4209D98022029BC7
S1134000490259183030284B9200984723681F7191
S11340106D02029B059A5B190293A3685B19A36066
S1134020059B1B6803935B191360019B5B1B019346
S113403079E7A368E268934208D329003800174B54
S113404098470028A6D12368049ADA62049BA361E6
S11340508022A368019DDB05DB0D9200D31A9D42EB
S113406000D91D00A16920680C4B9847002891D104
S1134070A3682A00D805C00D2368303018180299A7
S1134080094B9847012223681A71C2E7E36052E79B
S1134090072675E79D2F000039350000292E000002
S11340A0F52D0000B52C0000D52D000070B51E4B79
S11340B00400818800689847002833D12026A3791A
S11340C033422FD0E1692068184B9847002829D142
S11340D0256AEB7A3343EB72237B2B77637B6B7715
S11340E0E3681B0CAB77E3681B0EEB77237CAB76A2
S11340F0637CEB7623691B0C2B7523691B0E6B7594
S11341000B4B9847030AA875EB75030C000E2B762E
S11341106876A3792268B343A371012313712068DD
S1134120044B984770BDC0469D2F0000292E000007
S11341308D2D0000A92E000010B5034B04009847F4
S1134140002800D1206010BDAD40000013B503006D
S11341506A4608001370694601AB0122044CA0476B
S1134160019B581E431E984101234042184316BD2B
S1134170ED3E000070B505000E0004002378601BBE
S1134180002B00D170BD18003100034B9847431C2D
S1134190F8D00134F2E7C0464D41000010B57F2845
S11341A007D9002906D0FF2811D88038094B4000D0
S11341B0C05A10BD074A4C00A45A8BB2844203D0A3
S11341C001318029F7D10B008033D8B2F1E7002008
S11341D0EFE7C046925C0000002310B5054C5A007E
S11341E0115B002903D0814202D1034BD05A10BD88
S11341F00133F4E7925D0000725F000073B56B4613
S11342009C1D002306000D00238021003000034B79
S113421098470028F9D123882B7073BD33210000FF
S113422070B504000D00A9B22000024B9847002885
S1134230F9D170BD11210000F0B56A4C1222A544D9
S113424069496A4B68469847694B9847694B984750
S11342508023DB050E93FF2301220EAC2381C23B96
S11342606B44DA773E2301226B44DA773F2300253F
S11342706B44DD7710ABDD7719AB1D7065236B44A0
S11342801D701323A37680235B03E3605A4B5B4EBC
S113429023635B4B5B4A636301235B42A363E36376
S11342A096231B022362584B65601E60574BA57210
S11342B0E572A56265612582E576257625776576C2
S11342C065771A60524A534B53491A6030002200F2
S11342D0524B9847524F29003B689868514B984776
S11342E03B68290058684F4B984735684E4B280067
S11342F098471F2318401E3B83404C4A1360326882
S1134300D369002BFCD12A680233134301222B60AA
S1134310474B1A70BFF35F8F62B6464B98474648C7
S1134320464DA847464A47494748A8474748434E49
S1134330B0470020464B98470700012809D145485B
S1134340B0474548B0470020444B98470228FAD16B
S1134350EFE70028EDD14248424DA8478C223900AE
S11343609200414B20009847210038003F4B98476A
S113437001000B280AD13E48B0473E482F4B9847CE
S11343800020364B98470228FAD1CFE73A4E300046
S1134390A8473A48A8476B46302269461A7005A8D0
S11343A00A22374B9847011E03D0244B30489847C4
S11343B0E3E73000A8473348A84705A93248334B00
S11343C09847334F002804D105A8B8473148A84777
S11343D0D3E73000A84705A8B847184B2E4898479C
S11343E0CBE7C04694FDFFFFBC620000654A0000B5
S11343F00D2A00004111000003000400AC0100205C
S11344000300050021420000A00100209C010020BF
S1134410FD4100009801002000080042591E0000E0
S113442034000020914B00008D17000000E100E0F3
S1134430310000204503000052610000894A000059
S11344407A610000836100008F610000A7610000B1
S113445099090000CD610000E161000065030000DE
S1134460076200007D4B0000774A0000653D0000B4
S113447020620000A2620000306200003662000088
S11344808D3D000051620000716200007541000022
S113449039410000846200008C62000002B471465D
S11344A049084900095C49008E4402BC7047C04673
S11344B0002243088B4274D303098B425FD3030A5F
S11344C08B4244D3030B8B4228D3030C8B420DD372
S11344D0FF22090212BA030C8B4202D31212090200
S11344E065D0030B8B4219D300E0090AC30B8B423E
S11344F001D3CB03C01A5241830B8B4201D38B03EC
S1134500C01A5241430B8B4201D34B03C01A524190
S1134510030B8B4201D30B03C01A5241C30A8B42D3
S113452001D3CB02C01A5241830A8B4201D38B02BE
S1134530C01A5241430A8B4201D34B02C01A524162
S1134540030A8B4201D30B02C01A5241CDD2C309D4
S11345508B4201D3CB01C01A524183098B4201D350
S11345608B01C01A524143098B4201D34B01C01A3B
S1134570524103098B4201D30B01C01A5241C308B3
S11345808B4201D3CB00C01A524183088B4201D322
S11345908B00C01A524143088B4201D34B00C01A0E
S11345A05241411A00D20146524110467047FFE77A
S11345B001B5002000F0F0F802BDC0460029F7D094
S11345C076E7704703460B437FD4002243088B42AF
S11345D074D303098B425FD3030A8B4244D3030B86
S11345E08B4228D3030C8B420DD3FF22090212BA4B
S11345F0030C8B4202D31212090265D0030B8B42C7
S113460019D300E0090AC30B8B4201D3CB03C01AB0
S11346105241830B8B4201D38B03C01A5241430B8B
S11346208B4201D34B03C01A5241030B8B4201D37B
S11346300B03C01A5241C30A8B4201D3CB02C01AE6
S11346405241830A8B4201D38B02C01A5241430A5E
S11346508B4201D34B02C01A5241030A8B4201D34D
S11346600B02C01A5241CDD2C3098B4201D3CB01F4
S1134670C01A524183098B4201D38B01C01A5241A3
S113468043098B4201D34B01C01A524103098B42A7
S113469001D30B01C01A5241C3088B4201D3CB0092
S11346A0C01A524183088B4201D38B00C01A524175
S11346B043088B4201D34B00C01A5241411A00D225
S11346C001465241104670475DE0CA0F00D049428E
S11346D0031000D34042534000229C4603098B42FE
S11346E02DD3030A8B4212D3FC22890112BA030A86
S11346F08B420CD3890192118B4208D38901921108
S11347008B4204D389013AD0921100E08909C3098C
S11347108B4201D3CB01C01A524183098B4201D38E
S11347208B01C01A524143098B4201D34B01C01A79
S1134730524103098B4201D30B01C01A5241C308F1
S11347408B4201D3CB00C01A524183088B4201D360
S11347508B00C01A5241D9D243088B4201D34B007B
S1134760C01A5241411A00D20146634652415B10BD
S1134770104601D34042002B00D54942704763469E
S11347805B1000D3404201B5002000F005F802BDE3
S11347900029F8D016E770477047C0469140031CC3
S11347A090409C46203A9340194352426346D3407A
S11347B019437047002B11D1002A0FD1002900D1D1
S11347C0002802D00021C943081C07B4024802A1F2
S11347D04018029003BDC046C1FFFFFF03B4684602
S11347E001B5029800F030F8019B9E4602B00CBC63
S11347F07047C046F0B5CE46474615042D0C2E0032
S113480080B50704140C3F0C9946030C7E435D43AA
S1134810674363437F19340CE4199C46A54203D9CA
S113482080235B029846C4444B46514343433604B9
S1134830360C250C24046544A41959184919200080
S11348400CBC90469946F0BDF0B557464E464546D9
S1134850DE46E0B5040083B00D00924699468B42D3
S11348602FD82CD04946504600F0AEF82900060057
S1134870200000F0A9F8331A9846203B9B4600D547
S113488074E053465A4693401F00534642469340B1
S11348901E00AF4229D826D05B46A41BBD41002B85
S11348A000DA79E0002200230092019301235A46A2
S11348B093400193012342469340009319E08242BE
S11348C0D0D900220023009201930C9B002B01D02D
S11348D01C605D600098019903B03CBC9046994609
S11348E0A246AB46F0BDA342D6D9002200230092D3
S11348F001934346002BE8D0FB0772081A4346464F
S11349007B080EE0AB4201D1A2420CD8A41A9D410F
S1134910012024196D410021013E24184D41002E2F
S113492006D0AB42EED9013E24196D41002EF8D1D8
S11349305B460098019900196941002B22DB2B008A
S11349405A46D3402A004446E2401C005B46150008
S1134950002B2CDB26009E40330026004746BE4039
S11349603200801A994100900191AEE7424620231B
S11349709B1A5246DA40414613004A468A401700C1
S11349801F4382E7424620239B1A2A0046469A4048
S11349902300F3401343D5E74246202300219B1A0A
S11349A00022009101920122DA40019282E74246FC
S11349B0202326009B1ADE402F00B446974066460B
S11349C03B003343C9E7C04610B5002903D100F0CA
S11349D007F8203002E0081C00F002F810BDC046C1
S11349E01C2101231B04984201D3000C10391B0A1B
S11349F0984201D3000A08391B09984201D30009DF
S1134A00043902A2105C40187047C0460403020235
S1134A1001010101000000000000000070B5002643
S1134A200C4D0D4C641BA410A64209D1002601F0C4
S1134A309BFC0A4D0A4C641BA410A64205D170BD10
S1134A40B300EB5898470136EEE7B300EB589847AC
S1134A500136F2E7746300007463000074630000BD
S1134A6078630000002310B59A4200D110BDCC5CDD
S1134A70C4540133F8E703008218934200D170470D
S1134A8019700133F9E700000FB40B4B13B51C6820
S1134A90002C05D0A369002B02D1200000F0F2FA0B
S1134AA005AB049AA1682000019300F0C7FC16BC72
S1134AB008BC04B01847C0463400002070B5050097
S1134AC00E00002804D08369002B01D100F0DAFA2B
S1134AD0AB69AC68002B02D1280000F0D3FA244B58
S1134AE09C420FD16C68A3891B0702D52369002B54
S1134AF020D12100280000F057F900281AD0012005
S1134B00404270BD1B4B9C4201D1AC68EBE71A4B91
S1134B109C42E8D1EC68E6E7013B0136A360002B38
S1134B2004DAA269934216DB0A2914D023685A1CBA
S1134B30226019703178A3680029EDD1013BA3608C
S1134B40002B0FDA22000A31280000F0D7F8431CAA
S1134B50D5D00A20D5E72200280000F0CFF8431C66
S1134B60E8D1CCE70A2023685A1C22601870C8E7F1
S1134B70F462000014630000D462000010B5034B1B
S1134B8001001868FFF79AFF10BDC04634000020EA
S1134B904A424A41802310B55200DB0000F002F87B
S1134BA010BD0000F0B51D004F4B85B01E68040019
S1134BB00F000092002E05D0B369002B02D1300003
S1134BC000F060FA494B9C4250D17468009B022B60
S1134BD005D0012B00D984E0002D00DA81E021000A
S1134BE0300000F0E1F9616B002908D02300443360
S1134BF0994202D0300000F051FB0023636300238C
S1134C00A3616360A3891B0603D52169300000F00A
S1134C1045FBA389364A1340A381009B022B5AD03B
S1134C2003AB02AA2100300000F0C2FAA3891843A2
S1134C30A081002D24D1029D280000F025FB0195C0
S1134C40071E42D1029B0193AB4239D1012040425D
S1134C500223A2891343A3810023A36023004733C3
S1134C60236023610123636105B0F0BD214B9C42A5
S1134C7001D1B468AAE7204B9C42A7D1F468A5E708
S1134C80002FD9D0B369002B02D1300000F0FAF91B
S1134C90009B012B03D1A389009A1A43A281082007
S1134CA0A389276027616561184018D00120184046
S1134CB00023984211D06D42A360A5611800D3E788
S1134CC0019800F0E1FA071EC0D08023A289019D5B
S1134CD01343A381D6E70020BAE7A560C4E7A06028
S1134CE0C2E701204042BFE734000020F462000024
S1134CF05CF3FFFF14630000D4620000F8B5050004
S1134D000E001400002804D08369002B01D100F0A8
S1134D10B9F9224B9C422DD16C68A369A360A38985
S1134D201B0731D52369002B2ED023682269F7B2E3
S1134D30981A6369F6B2984205DB2100280000F056
S1134D4033F9002826D1A3680130013BA36023680E
S1134D505A1C22601F706369984204D0A389DB0740
S1134D601AD50A2E18D12100280000F01DF90028B8
S1134D7012D00FE00A4B9C4201D1AC68CDE7094B3D
S1134D809C42CAD1EC68C8E72100280000F00CF866
S1134D900028CAD0012676423000F8BDF462000033
S1134DA014630000D4620000364B70B51D68060021
S1134DB00C00002D05D0AB69002B02D1280000F0B7
S1134DC061F9314B9C420FD16C680C23E25E93B2C3
S1134DD019072DD4D90611D40923012033603733A0
S1134DE01343A381404270BD284B9C4201D1AC685F
S1134DF0EBE7274B9C42E8D1EC68E6E75B0713D569
S1134E00616B002908D023004433994202D030005A
S1134E1000F044FA002363632422A3899343A3810B
S1134E2000236360236923600823A2891343A381B9
S1134E302369002B0BD1A0218022A3898900920031
S1134E400B40934203D02100300000F0D9F9012334
S1134E50A289134011D00023A36063695B42A3615C
S1134E60002023698342BED10C23E25E1306BAD527
S1134E7040231343A3810138B5E7920700D4636943
S1134E80A360EDE734000020F46200001463000026
S1134E90D4620000F7B58A8905000C00130760D4BA
S1134EA04B68002B04DC0B6C002B01DC0020FEBDE6
S1134EB0E76A002FFAD000232E682B6080235B0161
S1134EC01A4034D0606DA3895B0706D56368C01AA5
S1134ED0636B002B01D0236CC01A0200216A0023EB
S1134EE02800E76AB847A189431C06D12B681D2B0B
S1134EF031D82C4ADA40D3072DD5002363602369C7
S1134F002360CB0405D5431C02D12B68002B00D1B0
S1134F106065616B2E600029C8D023004433994238
S1134F2002D0280000F0BAF900206063BFE7012333
S1134F30216A2800B847431CC5D12B68002BC2D076
S1134F401D2B01D0162B01D12E60AFE74023A2897F
S1134F501343A381ABE740230B430120A3814042C9
S1134F60A5E70F69002FA1D00B680F60DB1B01932D
S1134F700023920700D14B69A360019B002B00DC46
S1134F8094E7019B3A00216A2800A66AB0470028EA
S1134F9003DC4023A2891343DFE7019B3F181B1A5C
S1134FA00193EAE7010040200B6970B505000C008D
S1134FB0002B01D1002070BD002804D08369002B90
S1134FC001D100F05FF80B4B9C4209D16C680C22B4
S1134FD0A35E002BEED021002800FFF75BFFEAE779
S1134FE0054B9C4201D1AC68F1E7044B9C42EED1E5
S1134FF0EC68ECE7F462000014630000D462000083
S113500010B5024900F0B2F810BDC046A94F000027
S1135010002310B50400036043608360818143660C
S1135020C281036143618361190008225C30FFF788
S113503022FD054B24626362044BA362044BE362CA
S1135040044B236310BDC046A9590000D159000088
S1135050095A0000355A000070B568254A1E5543A8
S11350600E002900743100F063F9041E08D00021F9
S11350702A00016046600C30A0606832FFF7FBFC38
S1135080200070BD836913B50400002B28D183640C
S1135090C3640365134B144A1B68826201939842EC
S11350A001D101238361200000F020F8606020001A
S11350B000F01CF8A060200000F018F80022E06066
S11350C004216068FFF7A4FF01220921A068FFF70B
S11350D09FFF02221221E068FFF79AFF0123A361D8
S11350E013BDC046D062000001500000F8B51E4B4D
S11350F007001E68B369002B02D13000FFF7C2FF1E
S11351004836B4687368013B04D53368002B07D074
S11351103668F6E70C22A55E002D0DD06834F2E760
S113512004213800FFF798FF30600028F0D10C23E9
S113513004003B602000F8BD012320005B42E381B2
S11351400233A38165662560A5606560256165619C
S1135150A561082229005C30FFF78DFC6563A56317
S1135160A564E564E6E7C046D0620000F7B5040034
S11351700700002601914834002C01D13000FEBD07
S11351806368A5680093009B013B009301D52468E4
S1135190F2E7AB89012B08D90E22AB5E013304D0B0
S11351A029003800019B984706436835EBE7000067
S11351B070B50E001D000E23C95E90B014000029C6
S11351C007DA00232B60B3891B0611D48023DB008C
S11351D00FE001AA00F05AFC0028F2DBF022029B47
S11351E012021340054A9B185A4253412B60EDE7C3
S11351F040230020236010B070BDC04600E0FFFFD4
S1135200F7B502268B8905000C00334206D0230033
S113521047332360236101236361F7BD01AB6A4611
S1135220FFF7C6FF00990700280000F081F8002866
S113523008D10C22A35E9A05EFD4032293431E43A4
S1135240A681E4E70F4BAB628023A289206013435D
S1135250A381009B20616361019B002B0DD00E2371
S1135260E15E280000F024FC002806D00322A38974
S113527093431A0001231343A381A0893843A081D7
S1135280CBE7C0460150000010B5034B010018687D
S113529000F04EF810BDC0463400002070B5050083
S11352A0002910D00C1F2368002B00DAE418280012
S11352B000F02FFC1D4A1368002B05D163601460B5
S11352C0280000F027FC70BDA34209D921686018AA
S11352D08342F3D118685B6841182160EEE713003C
S11352E05A68002A01D0A242F9D919685818A04274
S11352F00BD120680918581819608242E0D110684F
S11353005268411819605A60DAE7A04202D90C23A6
S11353102B60D5E721686018824203D11068526877
S11353204118216062605C60CAE7C04670010020D9
S1135330032370B5CD1C9D43083506000C2D1ED2E9
S11353400C25A9421DD8300000F0E3FB254A14685F
S11353502100002919D1244C2368002B03D13000EB
S113536000F010FB20602900300000F00BFB431C10
S11353702CD10C233000336000F0CCFB03E0002D73
S1135380DFDA0C233360002070BD0B685B1B1AD47A
S11353900B2B03D90B60CC18256003E08C420ED193
S11353A063681360300000F0B5FB200007220B3067
S11353B0231D9043C31AE7D05A42E250E4E74B68F6
S11353C063600C00EEE70C004968C2E70323C41CC9
S11353D09C43A042E0D0211A300000F0D3FA431CD1
S11353E0DAD1C6E77001002074010020936810B57B
S11353F0013B9360002B05DA9469A34208DBCBB22E
S11354000A2B05D01368581C10601970C8B210BD5F
S1135410FFF774FCFBE7F8B506000F001400D5187D
S1135420AC4201D1002007E021783A003000FFF7B8
S1135430DDFF0134431CF3D1F8BD0000F0B59FB08B
S113544006000F0014000593002804D08369002B84
S113545001D1FFF717FE7F4B9F425CD17768BB8970
S11354601B0762D53B69002B5FD0002306AD6B613F
S113547020336B761033AB760294029C2378002B96
S11354805DD1029BE31A04930DD0049B029A390068
S11354903000FFF7C0FF431C00D1CCE06A69049BD5
S11354A0944663446B612378002B00D1C3E001224E
S11354B0002352426A6002A95432521801342B600C
S11354C0EB60AB601370AB6521780522624800F095
S11354D015FB631C9C46002835D12968CB0604D5EE
S11354E0532302AA20309B1818700B0704D55323AA
S11354F02B2002AA9B18187023782A2B2CD000206A
S11355000A21099B2278303A092A00D86BE0002846
S11355102AD0099328E0514B9F4201D1B7689EE7F6
S11355204F4B9F429BD1F76899E739003000FFF752
S11355303BFC002899D0012040421FB0F0BD252B30
S11355409FD001349AE7444B2968C01A0123834051
S11355500B432B606446B7E7059B181D1B68059039
S1135560002B3ADB0993644623782E2B0BD1637806
S1135570621C2A2B3FD1059B02341A1D1B6805921D
S1135580002B35DB079321780322364800F0B6FA66
S1135590002807D0334B2A68C01A402383401343A2
S11355A02B6001342178631C06222F48029329764C
S11355B000F0A4FA002844D02C4B002B2FD12968EA
S11355C0059B0722C90528D59B18934308330593E7
S11355D06B69039A9B186B614FE75B42EB60022394
S11355E00B432B60BFE74B4301349B18012089E731
S11355F001235B42C6E7002314000A201A006B60F3
S113560021783039092903D9002BBCD00792BAE795
S11356104243013452180123F2E70733D5E705ABBF
S113562000933A00124B2900300000E000BF0390C1
S1135630039B0133CCD1BB895B0600D57BE70B9878
S11356407BE705AB00933A00094B2900300000F0DA
S11356507FF8ECE7F4620000346300001463000098
S1135660D46200003A6300003E63000000000000C2
S113567017540000F7B5150001938A680B69009070
S11356800C00934200DA130022002B60433212789C
S1135690002A01D001332B6023689B0602D52B68B6
S11356A002332B60062723681F4027D0230043338F
S11356B01B785A1E93412268920630D42200019925
S11356C043320098089EB047431C25D00623206827
S11356D02A68E16803400025042B03D18D1AEB43AB
S11356E0DB171D40A3682269934201DD9B1AED1864
S11356F00027BD4220D1002010E00137E3682A686A
S11357009B1A9F42D2DA2200012319320199009890
S1135710089EB047431CF0D101204042FEBD30201A
S1135720E1184331087021005A1C45310978A21848
S1135730433202331170C1E7220001231A32019966
S11357400098089EB047431CE6D00137D1E700001B
S1135750F0B58BB006920A00433207930590049289
S11357600A7E0C00109B6E2A00D18FE017D8632AA2
S11357702CD008D8002A00D199E0582A54D0260009
S11357804236327029E0642A01D0692AF7D12168AF
S11357901A68080623D5111D1960156825E0732AB7
S11357A000D188E008D86F2A29D0702AE7D12022B6
S11357B009680A43226003E0752A20D0782ADED1E2
S11357C022007821453211706C4A30E00E001A68CC
S11357D04236111D196013683370012379E04906BC
S11357E0D9D5111D19600023D55E002D03DA2D23B0
S11357F0049A6D421370624B0A2703932FE02068CA
S11358001968050603D5081D18600D6805E04006F3
S1135810F9D50D68081D1860ADB2594B08270393DC
S11358206F2A18D00A2716E045310A70544A0392A9
S11358301A682168101D18601568080622D5CB0760
S113584002D52023194321601027002D03D12023E2
S113585022689A4322602300002243331A7063684B
S1135860A360002B5CDB0422216891432160002D9E
S113587058D1049E002B64D02600039B42361B782B
S113588033705EE04806DAD5ADB2D8E709681A6825
S1135890080605D5111D1960136862691A6006E0CF
S11358A04906F7D5111D19601368A28A1A800023CE
S11358B0049E236154E01A68111D196016680021C2
S11358C06268300000F01AF9002801D0801B606083
S11358D0636823610023049A137041E02369320052
S11358E006990598079DA847431C43D023680025C3
S11358F09B070FD4099BE06898423DDA18003BE00F
S113590022000123193206990598079EB047431CCB
S113591030D00135E368099A9B1A9D42F0DBE9E730
S1135920002DA9D0049E28003900FEF747FE039BF2
S1135930013E5B5C280033703900FEF7B9FD051E9B
S1135940F1D1082F09D12368DB0706D563682269E2
S1135950934202DC3023013E3370049B9B1B236182
S1135960079B09AA00932100069B0598FFF782FE76
S1135970431CB3D1012040420BB0F0BD566300007C
S113598045630000002370B5064C05000800236041
S1135990FDF7E8F8431C03D12368002B00D02B60EB
S11359A070BDC046E001002070B50C000E25495FB3
S11359B000F0B2F8002803DB636D1B18636570BD4B
S11359C0A389024A1340A381F9E7C046FFEFFFFF12
S11359D0F8B51F008B8905000C001600DB0505D502
S11359E00E23C95E0022022300F074F8A389054A3D
S11359F028001340A38132000E23E15E3B0000F037
S1135A001FF8F8BDFFEFFFFF70B50C000E25495FCE
S1135A1000F060F8A389421C03D1054A1340A38116
S1135A2070BD802252011343A3816065F8E7C0462C
S1135A30FFEFFFFF10B50E23C95E00F015F810BD8F
S1135A4070B50500080011000022064C22601A00FF
S1135A50FDF76EF8431C03D12368002B00D02B60A4
S1135A6070BDC046E0010020002370B5064C05005F
S1135A7008002360FDF786F8431C03D12368002B3C
S1135A8000D02B6070BDC046E0010020002370B53B
S1135A90064C0500080011002360FDF776F8431C4E
S1135AA003D12368002B00D02B6070BDE0010020DF
S1135AB0002370B5064C050008002360FDF76AF862
S1135AC0431C03D12368002B00D02B6070BDC0465B
S1135AD0E001002070B50500080011000022064C0A
S1135AE022601A00FDF758F8431C03D12368002BE9
S1135AF000D02B6070BDC046E0010020C9B28218FE
S1135B00904201D10020704703788B42FBD00130D2
S1135B10F6E770477047000070B5050008001100F3
S1135B200022064C22601A00FCF7E6FF431C03D156
S1135B302368002B00D02B6070BDC046E00100201C
S1135B40000000000A0000000C0000000D0000002E
S1135B500F000000140000001A0000001E000000E6
S1135B6023000000280000002D0000003400000085
S1135B70370000003C000000460000005000000018
S1135B800A00000064000000E80300001027000081
S1135B900000000000000000000000000000000001
S1135BA00A0000000C0000000D0000000F000000BF
S1135BB014000000190000001E0000002300000073
S1135BC0280000002D000000320000003700000013
S1135BD03C000000460000005000000000080042A5
S1135BE0000C004200100042001400420018004261
S1135BF0001C004201030507090E10121416181C9C
S1135C001E809A90B68EB78F80D2D3D4D8D7DE8E2A
S1135C108F909292E299E3EAEB59999A9D9C9D9E0A
S1135C209FB5D6E0E9A5A5A6A7A8A9AAABAC21AEC5
S1135C30AFB0B1B2B3B4B5B6B7B8B9BABBBCBDBEF8
S1135C40BFC0C1C2C3C4C5C7C7C8C9CACBCCCDCEE7
S1135C50CFD0D1D2D3D4D5D6D7D8D9DADBDCDDDED8
S1135C60DFE0E1E2E3E5E5E6E7E7E9EAEBEDEDEEC7
S1135C70EFF0F1F2F3F4F5F6F7F8F9FAFBFCFDFEB8
S1135C80FF222A3A3C3E3F7C7F002B2C3B3D5B5D50
S1135C900000C700FC00E900E200E400E000E500C9
S1135CA0E700EA00EB00E800EF00EE00EC00C400BF
S1135CB0C500C900E600C600F400F600F200FB00CF
S1135CC0F900FF00D600DC00F800A300D800D700DC
S1135CD09201E100ED00F300FA00F100D100AA0006
